{
  "_format": "hh-sol-artifact-1",
  "contractName": "Lif2",
  "sourceName": "contracts/Lif2.sol",
  "abi": [
    {
      "anonymous": false,
      "inputs": [
        {
          "indexed": true,
          "internalType": "address",
          "name": "owner",
          "type": "address"
        },
        {
          "indexed": true,
          "internalType": "address",
          "name": "spender",
          "type": "address"
        },
        {
          "indexed": false,
          "internalType": "uint256",
          "name": "value",
          "type": "uint256"
        }
      ],
      "name": "Approval",
      "type": "event"
    },
    {
      "anonymous": false,
      "inputs": [
        {
          "indexed": true,
          "internalType": "address",
          "name": "delegator",
          "type": "address"
        },
        {
          "indexed": true,
          "internalType": "address",
          "name": "fromDelegate",
          "type": "address"
        },
        {
          "indexed": true,
          "internalType": "address",
          "name": "toDelegate",
          "type": "address"
        }
      ],
      "name": "DelegateChanged",
      "type": "event"
    },
    {
      "anonymous": false,
      "inputs": [
        {
          "indexed": true,
          "internalType": "address",
          "name": "delegate",
          "type": "address"
        },
        {
          "indexed": false,
          "internalType": "uint256",
          "name": "previousBalance",
          "type": "uint256"
        },
        {
          "indexed": false,
          "internalType": "uint256",
          "name": "newBalance",
          "type": "uint256"
        }
      ],
      "name": "DelegateVotesChanged",
      "type": "event"
    },
    {
      "anonymous": false,
      "inputs": [
        {
          "indexed": true,
          "internalType": "address",
          "name": "previousOwner",
          "type": "address"
        },
        {
          "indexed": true,
          "internalType": "address",
          "name": "newOwner",
          "type": "address"
        }
      ],
      "name": "OwnershipTransferred",
      "type": "event"
    },
    {
      "anonymous": false,
      "inputs": [
        {
          "indexed": false,
          "internalType": "address",
          "name": "account",
          "type": "address"
        }
      ],
      "name": "Paused",
      "type": "event"
    },
    {
      "anonymous": false,
      "inputs": [
        {
          "indexed": true,
          "internalType": "address",
          "name": "from",
          "type": "address"
        },
        {
          "indexed": true,
          "internalType": "address",
          "name": "to",
          "type": "address"
        },
        {
          "indexed": false,
          "internalType": "uint256",
          "name": "value",
          "type": "uint256"
        }
      ],
      "name": "Transfer",
      "type": "event"
    },
    {
      "anonymous": false,
      "inputs": [
        {
          "indexed": false,
          "internalType": "address",
          "name": "account",
          "type": "address"
        }
      ],
      "name": "Unpaused",
      "type": "event"
    },
    {
      "inputs": [],
      "name": "DOMAIN_SEPARATOR",
      "outputs": [
        {
          "internalType": "bytes32",
          "name": "",
          "type": "bytes32"
        }
      ],
      "stateMutability": "view",
      "type": "function"
    },
    {
      "inputs": [
        {
          "internalType": "address",
          "name": "owner",
          "type": "address"
        },
        {
          "internalType": "address",
          "name": "spender",
          "type": "address"
        }
      ],
      "name": "allowance",
      "outputs": [
        {
          "internalType": "uint256",
          "name": "",
          "type": "uint256"
        }
      ],
      "stateMutability": "view",
      "type": "function"
    },
    {
      "inputs": [
        {
          "internalType": "address",
          "name": "spender",
          "type": "address"
        },
        {
          "internalType": "uint256",
          "name": "amount",
          "type": "uint256"
        }
      ],
      "name": "approve",
      "outputs": [
        {
          "internalType": "bool",
          "name": "",
          "type": "bool"
        }
      ],
      "stateMutability": "nonpayable",
      "type": "function"
    },
    {
      "inputs": [
        {
          "internalType": "address",
          "name": "account",
          "type": "address"
        }
      ],
      "name": "balanceOf",
      "outputs": [
        {
          "internalType": "uint256",
          "name": "",
          "type": "uint256"
        }
      ],
      "stateMutability": "view",
      "type": "function"
    },
    {
      "inputs": [
        {
          "internalType": "uint256",
          "name": "amount",
          "type": "uint256"
        }
      ],
      "name": "burn",
      "outputs": [],
      "stateMutability": "nonpayable",
      "type": "function"
    },
    {
      "inputs": [
        {
          "internalType": "address",
          "name": "account",
          "type": "address"
        },
        {
          "internalType": "uint256",
          "name": "amount",
          "type": "uint256"
        }
      ],
      "name": "burnFrom",
      "outputs": [],
      "stateMutability": "nonpayable",
      "type": "function"
    },
    {
      "inputs": [
        {
          "internalType": "address",
          "name": "account",
          "type": "address"
        },
        {
          "internalType": "uint32",
          "name": "pos",
          "type": "uint32"
        }
      ],
      "name": "checkpoints",
      "outputs": [
        {
          "components": [
            {
              "internalType": "uint32",
              "name": "fromBlock",
              "type": "uint32"
            },
            {
              "internalType": "uint224",
              "name": "votes",
              "type": "uint224"
            }
          ],
          "internalType": "struct ERC20VotesUpgradeable.Checkpoint",
          "name": "",
          "type": "tuple"
        }
      ],
      "stateMutability": "view",
      "type": "function"
    },
    {
      "inputs": [],
      "name": "decimals",
      "outputs": [
        {
          "internalType": "uint8",
          "name": "",
          "type": "uint8"
        }
      ],
      "stateMutability": "view",
      "type": "function"
    },
    {
      "inputs": [
        {
          "internalType": "address",
          "name": "spender",
          "type": "address"
        },
        {
          "internalType": "uint256",
          "name": "subtractedValue",
          "type": "uint256"
        }
      ],
      "name": "decreaseAllowance",
      "outputs": [
        {
          "internalType": "bool",
          "name": "",
          "type": "bool"
        }
      ],
      "stateMutability": "nonpayable",
      "type": "function"
    },
    {
      "inputs": [
        {
          "internalType": "address",
          "name": "delegatee",
          "type": "address"
        }
      ],
      "name": "delegate",
      "outputs": [],
      "stateMutability": "nonpayable",
      "type": "function"
    },
    {
      "inputs": [
        {
          "internalType": "address",
          "name": "delegatee",
          "type": "address"
        },
        {
          "internalType": "uint256",
          "name": "nonce",
          "type": "uint256"
        },
        {
          "internalType": "uint256",
          "name": "expiry",
          "type": "uint256"
        },
        {
          "internalType": "uint8",
          "name": "v",
          "type": "uint8"
        },
        {
          "internalType": "bytes32",
          "name": "r",
          "type": "bytes32"
        },
        {
          "internalType": "bytes32",
          "name": "s",
          "type": "bytes32"
        }
      ],
      "name": "delegateBySig",
      "outputs": [],
      "stateMutability": "nonpayable",
      "type": "function"
    },
    {
      "inputs": [
        {
          "internalType": "address",
          "name": "account",
          "type": "address"
        }
      ],
      "name": "delegates",
      "outputs": [
        {
          "internalType": "address",
          "name": "",
          "type": "address"
        }
      ],
      "stateMutability": "view",
      "type": "function"
    },
    {
      "inputs": [
        {
          "internalType": "uint256",
          "name": "blockNumber",
          "type": "uint256"
        }
      ],
      "name": "getPastTotalSupply",
      "outputs": [
        {
          "internalType": "uint256",
          "name": "",
          "type": "uint256"
        }
      ],
      "stateMutability": "view",
      "type": "function"
    },
    {
      "inputs": [
        {
          "internalType": "address",
          "name": "account",
          "type": "address"
        },
        {
          "internalType": "uint256",
          "name": "blockNumber",
          "type": "uint256"
        }
      ],
      "name": "getPastVotes",
      "outputs": [
        {
          "internalType": "uint256",
          "name": "",
          "type": "uint256"
        }
      ],
      "stateMutability": "view",
      "type": "function"
    },
    {
      "inputs": [
        {
          "internalType": "address",
          "name": "account",
          "type": "address"
        }
      ],
      "name": "getVotes",
      "outputs": [
        {
          "internalType": "uint256",
          "name": "",
          "type": "uint256"
        }
      ],
      "stateMutability": "view",
      "type": "function"
    },
    {
      "inputs": [
        {
          "internalType": "address",
          "name": "spender",
          "type": "address"
        },
        {
          "internalType": "uint256",
          "name": "addedValue",
          "type": "uint256"
        }
      ],
      "name": "increaseAllowance",
      "outputs": [
        {
          "internalType": "bool",
          "name": "",
          "type": "bool"
        }
      ],
      "stateMutability": "nonpayable",
      "type": "function"
    },
    {
      "inputs": [],
      "name": "initialize",
      "outputs": [],
      "stateMutability": "nonpayable",
      "type": "function"
    },
    {
      "inputs": [
        {
          "internalType": "address",
          "name": "to",
          "type": "address"
        },
        {
          "internalType": "uint256",
          "name": "amount",
          "type": "uint256"
        }
      ],
      "name": "mint",
      "outputs": [],
      "stateMutability": "nonpayable",
      "type": "function"
    },
    {
      "inputs": [],
      "name": "name",
      "outputs": [
        {
          "internalType": "string",
          "name": "",
          "type": "string"
        }
      ],
      "stateMutability": "view",
      "type": "function"
    },
    {
      "inputs": [
        {
          "internalType": "address",
          "name": "owner",
          "type": "address"
        }
      ],
      "name": "nonces",
      "outputs": [
        {
          "internalType": "uint256",
          "name": "",
          "type": "uint256"
        }
      ],
      "stateMutability": "view",
      "type": "function"
    },
    {
      "inputs": [
        {
          "internalType": "address",
          "name": "account",
          "type": "address"
        }
      ],
      "name": "numCheckpoints",
      "outputs": [
        {
          "internalType": "uint32",
          "name": "",
          "type": "uint32"
        }
      ],
      "stateMutability": "view",
      "type": "function"
    },
    {
      "inputs": [],
      "name": "owner",
      "outputs": [
        {
          "internalType": "address",
          "name": "",
          "type": "address"
        }
      ],
      "stateMutability": "view",
      "type": "function"
    },
    {
      "inputs": [],
      "name": "pause",
      "outputs": [],
      "stateMutability": "nonpayable",
      "type": "function"
    },
    {
      "inputs": [],
      "name": "paused",
      "outputs": [
        {
          "internalType": "bool",
          "name": "",
          "type": "bool"
        }
      ],
      "stateMutability": "view",
      "type": "function"
    },
    {
      "inputs": [
        {
          "internalType": "address",
          "name": "owner",
          "type": "address"
        },
        {
          "internalType": "address",
          "name": "spender",
          "type": "address"
        },
        {
          "internalType": "uint256",
          "name": "value",
          "type": "uint256"
        },
        {
          "internalType": "uint256",
          "name": "deadline",
          "type": "uint256"
        },
        {
          "internalType": "uint8",
          "name": "v",
          "type": "uint8"
        },
        {
          "internalType": "bytes32",
          "name": "r",
          "type": "bytes32"
        },
        {
          "internalType": "bytes32",
          "name": "s",
          "type": "bytes32"
        }
      ],
      "name": "permit",
      "outputs": [],
      "stateMutability": "nonpayable",
      "type": "function"
    },
    {
      "inputs": [],
      "name": "renounceOwnership",
      "outputs": [],
      "stateMutability": "nonpayable",
      "type": "function"
    },
    {
      "inputs": [],
      "name": "symbol",
      "outputs": [
        {
          "internalType": "string",
          "name": "",
          "type": "string"
        }
      ],
      "stateMutability": "view",
      "type": "function"
    },
    {
      "inputs": [],
      "name": "totalSupply",
      "outputs": [
        {
          "internalType": "uint256",
          "name": "",
          "type": "uint256"
        }
      ],
      "stateMutability": "view",
      "type": "function"
    },
    {
      "inputs": [
        {
          "internalType": "address",
          "name": "recipient",
          "type": "address"
        },
        {
          "internalType": "uint256",
          "name": "amount",
          "type": "uint256"
        }
      ],
      "name": "transfer",
      "outputs": [
        {
          "internalType": "bool",
          "name": "",
          "type": "bool"
        }
      ],
      "stateMutability": "nonpayable",
      "type": "function"
    },
    {
      "inputs": [
        {
          "internalType": "address",
          "name": "sender",
          "type": "address"
        },
        {
          "internalType": "address",
          "name": "recipient",
          "type": "address"
        },
        {
          "internalType": "uint256",
          "name": "amount",
          "type": "uint256"
        }
      ],
      "name": "transferFrom",
      "outputs": [
        {
          "internalType": "bool",
          "name": "",
          "type": "bool"
        }
      ],
      "stateMutability": "nonpayable",
      "type": "function"
    },
    {
      "inputs": [
        {
          "internalType": "address",
          "name": "newOwner",
          "type": "address"
        }
      ],
      "name": "transferOwnership",
      "outputs": [],
      "stateMutability": "nonpayable",
      "type": "function"
    },
    {
      "inputs": [],
      "name": "unpause",
      "outputs": [],
      "stateMutability": "nonpayable",
      "type": "function"
    }
  ],
  "bytecode": "0x608060405234801561001057600080fd5b5061291f806100206000396000f3fe608060405234801561001057600080fd5b50600436106101f05760003560e01c8063715018a61161010f5780639ab24eb0116100a2578063d505accf11610071578063d505accf14610432578063dd62ed3e14610445578063f1127ed81461047e578063f2fde38b146104bb57600080fd5b80639ab24eb0146103e6578063a457c2d7146103f9578063a9059cbb1461040c578063c3cda5201461041f57600080fd5b80638456cb59116100de5780638456cb59146103b25780638da5cb5b146103ba5780638e539e8c146103cb57806395d89b41146103de57600080fd5b8063715018a61461037c57806379cc6790146103845780637ecebe00146103975780638129fc1c146103aa57600080fd5b80633f4ba83a116101875780635c19a95c116101565780635c19a95c1461030d5780635c975abb146103205780636fcfff451461032b57806370a082311461035357600080fd5b80633f4ba83a1461029857806340c10f19146102a257806342966c68146102b5578063587cde1e146102c857600080fd5b8063313ce567116101c3578063313ce5671461025b5780633644e5151461026a57806339509351146102725780633a46b1a81461028557600080fd5b806306fdde03146101f5578063095ea7b31461021357806318160ddd1461023657806323b872dd14610248575b600080fd5b6101fd6104ce565b60405161020a9190612749565b60405180910390f35b61022661022136600461266e565b610560565b604051901515815260200161020a565b6035545b60405190815260200161020a565b6102266102563660046125c8565b610576565b6040516012815260200161020a565b61023a610625565b61022661028036600461266e565b610634565b61023a61029336600461266e565b610670565b6102a06106eb565b005b6102a06102b036600461266e565b61071f565b6102a06102c3366004612730565b610757565b6102f56102d636600461257a565b6001600160a01b03908116600090815261016260205260409020541690565b6040516001600160a01b03909116815260200161020a565b6102a061031b36600461257a565b610764565b60975460ff16610226565b61033e61033936600461257a565b61076e565b60405163ffffffff909116815260200161020a565b61023a61036136600461257a565b6001600160a01b031660009081526033602052604090205490565b6102a0610797565b6102a061039236600461266e565b6107cb565b61023a6103a536600461257a565b610851565b6102a0610870565b6102a0610963565b60c9546001600160a01b03166102f5565b61023a6103d9366004612730565b610995565b6101fd6109f2565b61023a6103f436600461257a565b610a01565b61022661040736600461266e565b610a8a565b61022661041a36600461266e565b610b23565b6102a061042d366004612698565b610b30565b6102a0610440366004612604565b610c66565b61023a610453366004612595565b6001600160a01b03918216600090815260346020908152604080832093909416825291909152205490565b61049161048c3660046126f0565b610dad565b60408051825163ffffffff1681526020928301516001600160e01b0316928101929092520161020a565b6102a06104c936600461257a565b610e32565b6060603680546104dd90612872565b80601f016020809104026020016040519081016040528092919081815260200182805461050990612872565b80156105565780601f1061052b57610100808354040283529160200191610556565b820191906000526020600020905b81548152906001019060200180831161053957829003601f168201915b5050505050905090565b600061056d338484610eca565b50600192915050565b6000610583848484610fee565b6001600160a01b03841660009081526034602090815260408083203384529091529020548281101561060d5760405162461bcd60e51b815260206004820152602860248201527f45524332303a207472616e7366657220616d6f756e74206578636565647320616044820152676c6c6f77616e636560c01b60648201526084015b60405180910390fd5b61061a8533858403610eca565b506001949350505050565b600061062f6111d3565b905090565b3360008181526034602090815260408083206001600160a01b0387168452909152812054909161056d91859061066b908690612821565b610eca565b60004382106106c15760405162461bcd60e51b815260206004820152601f60248201527f4552433230566f7465733a20626c6f636b206e6f7420796574206d696e6564006044820152606401610604565b6001600160a01b0383166000908152610163602052604090206106e4908361124e565b9392505050565b60c9546001600160a01b031633146107155760405162461bcd60e51b8152600401610604906127ec565b61071d61130b565b565b60c9546001600160a01b031633146107495760405162461bcd60e51b8152600401610604906127ec565b610753828261139e565b5050565b61076133826113a8565b50565b61076133826113b2565b6001600160a01b038116600090815261016360205260408120546107919061142d565b92915050565b60c9546001600160a01b031633146107c15760405162461bcd60e51b8152600401610604906127ec565b61071d6000611496565b60006107d78333610453565b9050818110156108355760405162461bcd60e51b8152602060048201526024808201527f45524332303a206275726e20616d6f756e74206578636565647320616c6c6f77604482015263616e636560e01b6064820152608401610604565b6108428333848403610eca565b61084c83836113a8565b505050565b6001600160a01b038116600090815261012f6020526040812054610791565b600054610100900460ff1680610889575060005460ff16155b6108a55760405162461bcd60e51b81526004016106049061279e565b600054610100900460ff161580156108c7576000805461ffff19166101011790555b61090d604051806040016040528060098152602001682634b3102a37b5b2b760b91b815250604051806040016040528060038152602001622624a360e91b8152506114e8565b610915611567565b61091d6115ce565b610925611635565b61094f604051806040016040528060098152602001682634b3102a37b5b2b760b91b81525061169c565b8015610761576000805461ff001916905550565b60c9546001600160a01b0316331461098d5760405162461bcd60e51b8152600401610604906127ec565b61071d61173c565b60004382106109e65760405162461bcd60e51b815260206004820152601f60248201527f4552433230566f7465733a20626c6f636b206e6f7420796574206d696e6564006044820152606401610604565b6107916101648361124e565b6060603780546104dd90612872565b6001600160a01b038116600090815261016360205260408120548015610a77576001600160a01b038316600090815261016360205260409020610a4560018361285b565b81548110610a5557610a556128d3565b60009182526020909120015464010000000090046001600160e01b0316610a7a565b60005b6001600160e01b03169392505050565b3360009081526034602090815260408083206001600160a01b038616845290915281205482811015610b0c5760405162461bcd60e51b815260206004820152602560248201527f45524332303a2064656372656173656420616c6c6f77616e63652062656c6f77604482015264207a65726f60d81b6064820152608401610604565b610b193385858403610eca565b5060019392505050565b600061056d338484610fee565b83421115610b805760405162461bcd60e51b815260206004820152601d60248201527f4552433230566f7465733a207369676e617475726520657870697265640000006044820152606401610604565b604080517fe48329057bfd03d55e49b547132e39cffd9c1820ad7b9d4c5307691425d15adf60208201526001600160a01b038816918101919091526060810186905260808101859052600090610bfa90610bf29060a001604051602081830303815290604052805190602001206117b7565b858585611805565b9050610c058161182d565b8614610c535760405162461bcd60e51b815260206004820152601960248201527f4552433230566f7465733a20696e76616c6964206e6f6e6365000000000000006044820152606401610604565b610c5d81886113b2565b50505050505050565b83421115610cb65760405162461bcd60e51b815260206004820152601d60248201527f45524332305065726d69743a206578706972656420646561646c696e650000006044820152606401610604565b600061013054888888610cc88c61182d565b6040805160208101969096526001600160a01b0394851690860152929091166060840152608083015260a082015260c0810186905260e0016040516020818303038152906040528051906020012090506000610d23826117b7565b90506000610d3382878787611805565b9050896001600160a01b0316816001600160a01b031614610d965760405162461bcd60e51b815260206004820152601e60248201527f45524332305065726d69743a20696e76616c6964207369676e617475726500006044820152606401610604565b610da18a8a8a610eca565b50505050505050505050565b60408051808201909152600080825260208201526001600160a01b038316600090815261016360205260409020805463ffffffff8416908110610df257610df26128d3565b60009182526020918290206040805180820190915291015463ffffffff8116825264010000000090046001600160e01b0316918101919091529392505050565b60c9546001600160a01b03163314610e5c5760405162461bcd60e51b8152600401610604906127ec565b6001600160a01b038116610ec15760405162461bcd60e51b815260206004820152602660248201527f4f776e61626c653a206e6577206f776e657220697320746865207a65726f206160448201526564647265737360d01b6064820152608401610604565b61076181611496565b6001600160a01b038316610f2c5760405162461bcd60e51b8152602060048201526024808201527f45524332303a20617070726f76652066726f6d20746865207a65726f206164646044820152637265737360e01b6064820152608401610604565b6001600160a01b038216610f8d5760405162461bcd60e51b815260206004820152602260248201527f45524332303a20617070726f766520746f20746865207a65726f206164647265604482015261737360f01b6064820152608401610604565b6001600160a01b0383811660008181526034602090815260408083209487168084529482529182902085905590518481527f8c5be1e5ebec7d5bd14f71427d1e84f3dd0314c0f7b2291e5b200ac8c7c3b925910160405180910390a3505050565b6001600160a01b0383166110525760405162461bcd60e51b815260206004820152602560248201527f45524332303a207472616e736665722066726f6d20746865207a65726f206164604482015264647265737360d81b6064820152608401610604565b6001600160a01b0382166110b45760405162461bcd60e51b815260206004820152602360248201527f45524332303a207472616e7366657220746f20746865207a65726f206164647260448201526265737360e81b6064820152608401610604565b6110bf838383611856565b6001600160a01b038316600090815260336020526040902054818110156111375760405162461bcd60e51b815260206004820152602660248201527f45524332303a207472616e7366657220616d6f756e7420657863656564732062604482015265616c616e636560d01b6064820152608401610604565b6001600160a01b0380851660009081526033602052604080822085850390559185168152908120805484929061116e908490612821565b92505081905550826001600160a01b0316846001600160a01b03167fddf252ad1be2c89b69c2b068fc378daa952ba7f163c4a11628f55a4df523b3ef846040516111ba91815260200190565b60405180910390a36111cd84848461189c565b50505050565b600061062f7f8b73c3c69bb8fe3d512ecc4cf759cc79239f7b179b0ffacaa9a75d522b39400f61120260fb5490565b60fc546040805160208101859052908101839052606081018290524660808201523060a082015260009060c0016040516020818303038152906040528051906020012090509392505050565b8154600090815b818110156112b257600061126982846118a7565b90508486828154811061127e5761127e6128d3565b60009182526020909120015463ffffffff16111561129e578092506112ac565b6112a9816001612821565b91505b50611255565b81156112f657846112c460018461285b565b815481106112d4576112d46128d3565b60009182526020909120015464010000000090046001600160e01b03166112f9565b60005b6001600160e01b031695945050505050565b60975460ff166113545760405162461bcd60e51b815260206004820152601460248201527314185d5cd8589b194e881b9bdd081c185d5cd95960621b6044820152606401610604565b6097805460ff191690557f5db9ee0a495bf2e6ff9c91a7834c1ba4fdd244a5e8aa4e537bd38aeae4b073aa335b6040516001600160a01b03909116815260200160405180910390a1565b61075382826118c2565b610753828261194d565b6001600160a01b0382811660008181526101626020818152604080842080546033845282862054949093528787166001600160a01b03198416811790915590519190951694919391928592917f3134e8a2e6d97e929a7e54011ea5485d7d196dd5f0ba4d4ef95803e8e3fc257f9190a46111cd828483611966565b600063ffffffff8211156114925760405162461bcd60e51b815260206004820152602660248201527f53616665436173743a2076616c756520646f65736e27742066697420696e203360448201526532206269747360d01b6064820152608401610604565b5090565b60c980546001600160a01b038381166001600160a01b0319831681179093556040519116919082907f8be0079c531659141344cd1fd0a4f28419497f9722a3daafe3b4186f6b6457e090600090a35050565b600054610100900460ff1680611501575060005460ff16155b61151d5760405162461bcd60e51b81526004016106049061279e565b600054610100900460ff1615801561153f576000805461ffff19166101011790555b611547611aa5565b6115518383611b0f565b801561084c576000805461ff0019169055505050565b600054610100900460ff1680611580575060005460ff16155b61159c5760405162461bcd60e51b81526004016106049061279e565b600054610100900460ff161580156115be576000805461ffff19166101011790555b6115c6611aa5565b61094f611aa5565b600054610100900460ff16806115e7575060005460ff16155b6116035760405162461bcd60e51b81526004016106049061279e565b600054610100900460ff16158015611625576000805461ffff19166101011790555b61162d611aa5565b61094f611ba4565b600054610100900460ff168061164e575060005460ff16155b61166a5760405162461bcd60e51b81526004016106049061279e565b600054610100900460ff1615801561168c576000805461ffff19166101011790555b611694611aa5565b61094f611c19565b600054610100900460ff16806116b5575060005460ff16155b6116d15760405162461bcd60e51b81526004016106049061279e565b600054610100900460ff161580156116f3576000805461ffff19166101011790555b6116fb611aa5565b61171e82604051806040016040528060018152602001603160f81b815250611c79565b61172782611d03565b8015610753576000805461ff00191690555050565b60975460ff16156117825760405162461bcd60e51b815260206004820152601060248201526f14185d5cd8589b194e881c185d5cd95960821b6044820152606401610604565b6097805460ff191660011790557f62e78cea01bee320cd4e420270b5ea74000d11b0c9f74754ebdbfc544b05a2586113813390565b60006107916117c46111d3565b8360405161190160f01b6020820152602281018390526042810182905260009060620160405160208183030381529060405280519060200120905092915050565b600080600061181687878787611d94565b9150915061182381611e81565b5095945050505050565b6001600160a01b038116600090815261012f602052604090208054600181018255905b50919050565b60975460ff161561084c5760405162461bcd60e51b815260206004820152601060248201526f14185d5cd8589b194e881c185d5cd95960821b6044820152606401610604565b61084c83838361203c565b60006118b66002848418612839565b6106e490848416612821565b6118cc828261206f565b6035546001600160e01b03101561193e5760405162461bcd60e51b815260206004820152603060248201527f4552433230566f7465733a20746f74616c20737570706c79207269736b73206f60448201526f766572666c6f77696e6720766f74657360801b6064820152608401610604565b6111cd6101646121628361216e565b61195782826122e7565b6111cd6101646124488361216e565b816001600160a01b0316836001600160a01b0316141580156119885750600081115b1561084c576001600160a01b03831615611a17576001600160a01b03831660009081526101636020526040812081906119c4906124488561216e565b91509150846001600160a01b03167fdec2bacdd2f05b59de34da9b523dff8be42e5e38e818c82fdb0bae774387a7248383604051611a0c929190918252602082015260400190565b60405180910390a250505b6001600160a01b0382161561084c576001600160a01b0382166000908152610163602052604081208190611a4e906121628561216e565b91509150836001600160a01b03167fdec2bacdd2f05b59de34da9b523dff8be42e5e38e818c82fdb0bae774387a7248383604051611a96929190918252602082015260400190565b60405180910390a25050505050565b600054610100900460ff1680611abe575060005460ff16155b611ada5760405162461bcd60e51b81526004016106049061279e565b600054610100900460ff1615801561094f576000805461ffff19166101011790558015610761576000805461ff001916905550565b600054610100900460ff1680611b28575060005460ff16155b611b445760405162461bcd60e51b81526004016106049061279e565b600054610100900460ff16158015611b66576000805461ffff19166101011790555b8251611b799060369060208601906124bd565b508151611b8d9060379060208501906124bd565b50801561084c576000805461ff0019169055505050565b600054610100900460ff1680611bbd575060005460ff16155b611bd95760405162461bcd60e51b81526004016106049061279e565b600054610100900460ff16158015611bfb576000805461ffff19166101011790555b6097805460ff191690558015610761576000805461ff001916905550565b600054610100900460ff1680611c32575060005460ff16155b611c4e5760405162461bcd60e51b81526004016106049061279e565b600054610100900460ff16158015611c70576000805461ffff19166101011790555b61094f33611496565b600054610100900460ff1680611c92575060005460ff16155b611cae5760405162461bcd60e51b81526004016106049061279e565b600054610100900460ff16158015611cd0576000805461ffff19166101011790555b825160208085019190912083519184019190912060fb9190915560fc55801561084c576000805461ff0019169055505050565b600054610100900460ff1680611d1c575060005460ff16155b611d385760405162461bcd60e51b81526004016106049061279e565b600054610100900460ff16158015611d5a576000805461ffff19166101011790555b7f6e71edae12b1b97f4d1f60370fef10105fa2faae0126114a169c64845d6126c9610130558015610753576000805461ff00191690555050565b6000807f7fffffffffffffffffffffffffffffff5d576e7357a4501ddfe92f46681b20a0831115611dcb5750600090506003611e78565b8460ff16601b14158015611de357508460ff16601c14155b15611df45750600090506004611e78565b6040805160008082526020820180845289905260ff881692820192909252606081018690526080810185905260019060a0016020604051602081039080840390855afa158015611e48573d6000803e3d6000fd5b5050604051601f1901519150506001600160a01b038116611e7157600060019250925050611e78565b9150600090505b94509492505050565b6000816004811115611e9557611e956128bd565b1415611e9e5750565b6001816004811115611eb257611eb26128bd565b1415611f005760405162461bcd60e51b815260206004820152601860248201527f45434453413a20696e76616c6964207369676e617475726500000000000000006044820152606401610604565b6002816004811115611f1457611f146128bd565b1415611f625760405162461bcd60e51b815260206004820152601f60248201527f45434453413a20696e76616c6964207369676e6174757265206c656e677468006044820152606401610604565b6003816004811115611f7657611f766128bd565b1415611fcf5760405162461bcd60e51b815260206004820152602260248201527f45434453413a20696e76616c6964207369676e6174757265202773272076616c604482015261756560f01b6064820152608401610604565b6004816004811115611fe357611fe36128bd565b14156107615760405162461bcd60e51b815260206004820152602260248201527f45434453413a20696e76616c6964207369676e6174757265202776272076616c604482015261756560f01b6064820152608401610604565b6001600160a01b038381166000908152610162602052604080822054858416835291205461084c92918216911683611966565b6001600160a01b0382166120c55760405162461bcd60e51b815260206004820152601f60248201527f45524332303a206d696e7420746f20746865207a65726f2061646472657373006044820152606401610604565b6120d160008383611856565b80603560008282546120e39190612821565b90915550506001600160a01b03821660009081526033602052604081208054839290612110908490612821565b90915550506040518181526001600160a01b038316906000907fddf252ad1be2c89b69c2b068fc378daa952ba7f163c4a11628f55a4df523b3ef9060200160405180910390a36107536000838361189c565b60006106e48284612821565b8254600090819080156121b9578561218760018361285b565b81548110612197576121976128d3565b60009182526020909120015464010000000090046001600160e01b03166121bc565b60005b6001600160e01b031692506121d583858763ffffffff16565b9150600081118015612213575043866121ef60018461285b565b815481106121ff576121ff6128d3565b60009182526020909120015463ffffffff16145b156122735761222182612454565b8661222d60018461285b565b8154811061223d5761223d6128d3565b9060005260206000200160000160046101000a8154816001600160e01b0302191690836001600160e01b031602179055506122de565b8560405180604001604052806122884361142d565b63ffffffff16815260200161229c85612454565b6001600160e01b0390811690915282546001810184556000938452602093849020835194909301519091166401000000000263ffffffff909316929092179101555b50935093915050565b6001600160a01b0382166123475760405162461bcd60e51b815260206004820152602160248201527f45524332303a206275726e2066726f6d20746865207a65726f206164647265736044820152607360f81b6064820152608401610604565b61235382600083611856565b6001600160a01b038216600090815260336020526040902054818110156123c75760405162461bcd60e51b815260206004820152602260248201527f45524332303a206275726e20616d6f756e7420657863656564732062616c616e604482015261636560f01b6064820152608401610604565b6001600160a01b03831660009081526033602052604081208383039055603580548492906123f690849061285b565b90915550506040518281526000906001600160a01b038516907fddf252ad1be2c89b69c2b068fc378daa952ba7f163c4a11628f55a4df523b3ef9060200160405180910390a361084c8360008461189c565b60006106e4828461285b565b60006001600160e01b038211156114925760405162461bcd60e51b815260206004820152602760248201527f53616665436173743a2076616c756520646f65736e27742066697420696e20326044820152663234206269747360c81b6064820152608401610604565b8280546124c990612872565b90600052602060002090601f0160209004810192826124eb5760008555612531565b82601f1061250457805160ff1916838001178555612531565b82800160010185558215612531579182015b82811115612531578251825591602001919060010190612516565b506114929291505b808211156114925760008155600101612539565b80356001600160a01b038116811461256457600080fd5b919050565b803560ff8116811461256457600080fd5b60006020828403121561258c57600080fd5b6106e48261254d565b600080604083850312156125a857600080fd5b6125b18361254d565b91506125bf6020840161254d565b90509250929050565b6000806000606084860312156125dd57600080fd5b6125e68461254d565b92506125f46020850161254d565b9150604084013590509250925092565b600080600080600080600060e0888a03121561261f57600080fd5b6126288861254d565b96506126366020890161254d565b9550604088013594506060880135935061265260808901612569565b925060a0880135915060c0880135905092959891949750929550565b6000806040838503121561268157600080fd5b61268a8361254d565b946020939093013593505050565b60008060008060008060c087890312156126b157600080fd5b6126ba8761254d565b955060208701359450604087013593506126d660608801612569565b92506080870135915060a087013590509295509295509295565b6000806040838503121561270357600080fd5b61270c8361254d565b9150602083013563ffffffff8116811461272557600080fd5b809150509250929050565b60006020828403121561274257600080fd5b5035919050565b600060208083528351808285015260005b818110156127765785810183015185820160400152820161275a565b81811115612788576000604083870101525b50601f01601f1916929092016040019392505050565b6020808252602e908201527f496e697469616c697a61626c653a20636f6e747261637420697320616c72656160408201526d191e481a5b9a5d1a585b1a5e995960921b606082015260800190565b6020808252818101527f4f776e61626c653a2063616c6c6572206973206e6f7420746865206f776e6572604082015260600190565b60008219821115612834576128346128a7565b500190565b60008261285657634e487b7160e01b600052601260045260246000fd5b500490565b60008282101561286d5761286d6128a7565b500390565b600181811c9082168061288657607f821691505b6020821081141561185057634e487b7160e01b600052602260045260246000fd5b634e487b7160e01b600052601160045260246000fd5b634e487b7160e01b600052602160045260246000fd5b634e487b7160e01b600052603260045260246000fdfea26469706673582212200a27c73ec69d9491c71983bb2d567794b5788578e8e9c4d6a8d37102c493589464736f6c63430008070033",
  "linkReferences": {},
  "deployedLinkReferences": {}
}