{
  "_format": "hh-sol-artifact-1",
  "contractName": "Lif2",
  "sourceName": "contracts/Lif2.sol",
  "abi": [
    {
      "anonymous": false,
      "inputs": [
        {
          "indexed": true,
          "internalType": "address",
          "name": "owner",
          "type": "address"
        },
        {
          "indexed": true,
          "internalType": "address",
          "name": "spender",
          "type": "address"
        },
        {
          "indexed": false,
          "internalType": "uint256",
          "name": "value",
          "type": "uint256"
        }
      ],
      "name": "Approval",
      "type": "event"
    },
    {
      "anonymous": false,
      "inputs": [
        {
          "indexed": true,
          "internalType": "address",
          "name": "holder",
          "type": "address"
        },
        {
          "indexed": false,
          "internalType": "uint256",
          "name": "value",
          "type": "uint256"
        }
      ],
      "name": "Claim",
      "type": "event"
    },
    {
      "anonymous": false,
      "inputs": [
        {
          "indexed": true,
          "internalType": "address",
          "name": "previousOwner",
          "type": "address"
        },
        {
          "indexed": true,
          "internalType": "address",
          "name": "newOwner",
          "type": "address"
        }
      ],
      "name": "OwnershipTransferred",
      "type": "event"
    },
    {
      "anonymous": false,
      "inputs": [
        {
          "indexed": false,
          "internalType": "address",
          "name": "account",
          "type": "address"
        }
      ],
      "name": "Paused",
      "type": "event"
    },
    {
      "anonymous": false,
      "inputs": [
        {
          "indexed": true,
          "internalType": "address",
          "name": "holder",
          "type": "address"
        },
        {
          "indexed": false,
          "internalType": "uint256",
          "name": "value",
          "type": "uint256"
        }
      ],
      "name": "Resurrect",
      "type": "event"
    },
    {
      "anonymous": false,
      "inputs": [
        {
          "indexed": false,
          "internalType": "address",
          "name": "account",
          "type": "address"
        }
      ],
      "name": "Stopped",
      "type": "event"
    },
    {
      "anonymous": false,
      "inputs": [
        {
          "indexed": true,
          "internalType": "address",
          "name": "from",
          "type": "address"
        },
        {
          "indexed": true,
          "internalType": "address",
          "name": "to",
          "type": "address"
        },
        {
          "indexed": false,
          "internalType": "uint256",
          "name": "value",
          "type": "uint256"
        }
      ],
      "name": "Transfer",
      "type": "event"
    },
    {
      "anonymous": false,
      "inputs": [
        {
          "indexed": false,
          "internalType": "address",
          "name": "account",
          "type": "address"
        }
      ],
      "name": "Unpaused",
      "type": "event"
    },
    {
      "inputs": [],
      "name": "DOMAIN_SEPARATOR",
      "outputs": [
        {
          "internalType": "bytes32",
          "name": "",
          "type": "bytes32"
        }
      ],
      "stateMutability": "view",
      "type": "function"
    },
    {
      "inputs": [
        {
          "internalType": "address",
          "name": "owner",
          "type": "address"
        },
        {
          "internalType": "address",
          "name": "spender",
          "type": "address"
        }
      ],
      "name": "allowance",
      "outputs": [
        {
          "internalType": "uint256",
          "name": "",
          "type": "uint256"
        }
      ],
      "stateMutability": "view",
      "type": "function"
    },
    {
      "inputs": [
        {
          "internalType": "address",
          "name": "spender",
          "type": "address"
        },
        {
          "internalType": "uint256",
          "name": "amount",
          "type": "uint256"
        }
      ],
      "name": "approve",
      "outputs": [
        {
          "internalType": "bool",
          "name": "",
          "type": "bool"
        }
      ],
      "stateMutability": "nonpayable",
      "type": "function"
    },
    {
      "inputs": [
        {
          "internalType": "address",
          "name": "account",
          "type": "address"
        }
      ],
      "name": "balanceOf",
      "outputs": [
        {
          "internalType": "uint256",
          "name": "",
          "type": "uint256"
        }
      ],
      "stateMutability": "view",
      "type": "function"
    },
    {
      "inputs": [
        {
          "internalType": "bytes32",
          "name": "c__0x4551282f",
          "type": "bytes32"
        }
      ],
      "name": "c_0x4551282f",
      "outputs": [],
      "stateMutability": "pure",
      "type": "function"
    },
    {
      "inputs": [
        {
          "internalType": "bytes32",
          "name": "c__0x821dc3c9",
          "type": "bytes32"
        }
      ],
      "name": "c_0x821dc3c9",
      "outputs": [],
      "stateMutability": "pure",
      "type": "function"
    },
    {
      "inputs": [],
      "name": "claim",
      "outputs": [],
      "stateMutability": "nonpayable",
      "type": "function"
    },
    {
      "inputs": [],
      "name": "decimals",
      "outputs": [
        {
          "internalType": "uint8",
          "name": "",
          "type": "uint8"
        }
      ],
      "stateMutability": "view",
      "type": "function"
    },
    {
      "inputs": [
        {
          "internalType": "address",
          "name": "spender",
          "type": "address"
        },
        {
          "internalType": "uint256",
          "name": "subtractedValue",
          "type": "uint256"
        }
      ],
      "name": "decreaseAllowance",
      "outputs": [
        {
          "internalType": "bool",
          "name": "",
          "type": "bool"
        }
      ],
      "stateMutability": "nonpayable",
      "type": "function"
    },
    {
      "inputs": [
        {
          "internalType": "address",
          "name": "spender",
          "type": "address"
        },
        {
          "internalType": "uint256",
          "name": "addedValue",
          "type": "uint256"
        }
      ],
      "name": "increaseAllowance",
      "outputs": [
        {
          "internalType": "bool",
          "name": "",
          "type": "bool"
        }
      ],
      "stateMutability": "nonpayable",
      "type": "function"
    },
    {
      "inputs": [
        {
          "internalType": "address",
          "name": "tokenAddress_",
          "type": "address"
        }
      ],
      "name": "initialize",
      "outputs": [],
      "stateMutability": "nonpayable",
      "type": "function"
    },
    {
      "inputs": [],
      "name": "name",
      "outputs": [
        {
          "internalType": "string",
          "name": "",
          "type": "string"
        }
      ],
      "stateMutability": "view",
      "type": "function"
    },
    {
      "inputs": [
        {
          "internalType": "address",
          "name": "owner",
          "type": "address"
        }
      ],
      "name": "nonces",
      "outputs": [
        {
          "internalType": "uint256",
          "name": "",
          "type": "uint256"
        }
      ],
      "stateMutability": "view",
      "type": "function"
    },
    {
      "inputs": [],
      "name": "originalLif",
      "outputs": [
        {
          "internalType": "address",
          "name": "",
          "type": "address"
        }
      ],
      "stateMutability": "view",
      "type": "function"
    },
    {
      "inputs": [],
      "name": "owner",
      "outputs": [
        {
          "internalType": "address",
          "name": "",
          "type": "address"
        }
      ],
      "stateMutability": "view",
      "type": "function"
    },
    {
      "inputs": [],
      "name": "pause",
      "outputs": [],
      "stateMutability": "nonpayable",
      "type": "function"
    },
    {
      "inputs": [],
      "name": "paused",
      "outputs": [
        {
          "internalType": "bool",
          "name": "",
          "type": "bool"
        }
      ],
      "stateMutability": "view",
      "type": "function"
    },
    {
      "inputs": [
        {
          "internalType": "address",
          "name": "owner",
          "type": "address"
        },
        {
          "internalType": "address",
          "name": "spender",
          "type": "address"
        },
        {
          "internalType": "uint256",
          "name": "value",
          "type": "uint256"
        },
        {
          "internalType": "uint256",
          "name": "deadline",
          "type": "uint256"
        },
        {
          "internalType": "uint8",
          "name": "v",
          "type": "uint8"
        },
        {
          "internalType": "bytes32",
          "name": "r",
          "type": "bytes32"
        },
        {
          "internalType": "bytes32",
          "name": "s",
          "type": "bytes32"
        }
      ],
      "name": "permit",
      "outputs": [],
      "stateMutability": "nonpayable",
      "type": "function"
    },
    {
      "inputs": [],
      "name": "renounceOwnership",
      "outputs": [],
      "stateMutability": "nonpayable",
      "type": "function"
    },
    {
      "inputs": [],
      "name": "stop",
      "outputs": [],
      "stateMutability": "nonpayable",
      "type": "function"
    },
    {
      "inputs": [],
      "name": "stopped",
      "outputs": [
        {
          "internalType": "bool",
          "name": "",
          "type": "bool"
        }
      ],
      "stateMutability": "view",
      "type": "function"
    },
    {
      "inputs": [],
      "name": "symbol",
      "outputs": [
        {
          "internalType": "string",
          "name": "",
          "type": "string"
        }
      ],
      "stateMutability": "view",
      "type": "function"
    },
    {
      "inputs": [],
      "name": "totalSupply",
      "outputs": [
        {
          "internalType": "uint256",
          "name": "",
          "type": "uint256"
        }
      ],
      "stateMutability": "view",
      "type": "function"
    },
    {
      "inputs": [
        {
          "internalType": "address",
          "name": "recipient",
          "type": "address"
        },
        {
          "internalType": "uint256",
          "name": "amount",
          "type": "uint256"
        }
      ],
      "name": "transfer",
      "outputs": [
        {
          "internalType": "bool",
          "name": "",
          "type": "bool"
        }
      ],
      "stateMutability": "nonpayable",
      "type": "function"
    },
    {
      "inputs": [
        {
          "internalType": "address",
          "name": "sender",
          "type": "address"
        },
        {
          "internalType": "address",
          "name": "recipient",
          "type": "address"
        },
        {
          "internalType": "uint256",
          "name": "amount",
          "type": "uint256"
        }
      ],
      "name": "transferFrom",
      "outputs": [
        {
          "internalType": "bool",
          "name": "",
          "type": "bool"
        }
      ],
      "stateMutability": "nonpayable",
      "type": "function"
    },
    {
      "inputs": [
        {
          "internalType": "address",
          "name": "newOwner",
          "type": "address"
        }
      ],
      "name": "transferOwnership",
      "outputs": [],
      "stateMutability": "nonpayable",
      "type": "function"
    },
    {
      "inputs": [],
      "name": "unpause",
      "outputs": [],
      "stateMutability": "nonpayable",
      "type": "function"
    }
  ],
  "bytecode": "0x608060405234801561001057600080fd5b5061632880620000216000396000f3fe608060405234801561001057600080fd5b50600436106101a95760003560e01c806370a08231116100f9578063a457c2d711610097578063c4d66de811610071578063c4d66de814610476578063d505accf14610492578063dd62ed3e146104ae578063f2fde38b146104de576101a9565b8063a457c2d7146103f8578063a9059cbb14610428578063c43b1b4714610458576101a9565b80637ecebe00116100d35780637ecebe00146103825780638456cb59146103b25780638da5cb5b146103bc57806395d89b41146103da576101a9565b806370a082311461032a578063715018a61461035a57806375f12b2114610364576101a9565b8063313ce567116101665780633f4ba83a116101405780633f4ba83a146102dc5780633fa4495c146102e65780634e71d92d146103025780635c975abb1461030c576101a9565b8063313ce567146102705780633644e5151461028e57806339509351146102ac576101a9565b806306fdde03146101ae57806307da68f5146101cc578063095ea7b3146101d657806318160ddd1461020657806323b872dd146102245780632ab6dc9014610254575b600080fd5b6101b66104fa565b6040516101c39190615610565b60405180910390f35b6101d461058c565b005b6101f060048036038101906101eb9190614eb7565b610696565b6040516101fd91906154e1565b60405180910390f35b61020e6106b4565b60405161021b91906159b2565b60405180910390f35b61023e60048036038101906102399190614dc2565b6106be565b60405161024b91906154e1565b60405180910390f35b61026e60048036038101906102699190614f24565b6107b6565b005b6102786107b9565b60405161028591906159cd565b60405180910390f35b6102966107c2565b6040516102a391906154fc565b60405180910390f35b6102c660048036038101906102c19190614eb7565b6107d1565b6040516102d391906154e1565b60405180910390f35b6102e461087d565b005b61030060048036038101906102fb9190614f24565b610987565b005b61030a61098a565b005b6103146112e4565b60405161032191906154e1565b60405180910390f35b610344600480360381019061033f9190614d55565b6112fb565b60405161035191906159b2565b60405180910390f35b610362611344565b005b61036c6113cc565b60405161037991906154e1565b60405180910390f35b61039c60048036038101906103979190614d55565b611468565b6040516103a991906159b2565b60405180910390f35b6103ba6114b8565b005b6103c46115c2565b6040516103d1919061548f565b60405180910390f35b6103e26115ec565b6040516103ef9190615610565b60405180910390f35b610412600480360381019061040d9190614eb7565b61167e565b60405161041f91906154e1565b60405180910390f35b610442600480360381019061043d9190614eb7565b611769565b60405161044f91906154e1565b60405180910390f35b6104606118fa565b60405161046d919061548f565b60405180910390f35b610490600480360381019061048b9190614d55565b6119a9565b005b6104ac60048036038101906104a79190614e15565b611d32565b005b6104c860048036038101906104c39190614d82565b611e56565b6040516104d591906159b2565b60405180910390f35b6104f860048036038101906104f39190614d55565b611edd565b005b60606036805461050990615b0d565b80601f016020809104026020016040519081016040528092919081815260200182805461053590615b0d565b80156105825780601f1061055757610100808354040283529160200191610582565b820191906000526020600020905b81548152906001019060200180831161056557829003601f168201915b5050505050905090565b610594611fd5565b73ffffffffffffffffffffffffffffffffffffffff166105b26115c2565b73ffffffffffffffffffffffffffffffffffffffff1614610608576040517f08c379a00000000000000000000000000000000000000000000000000000000081526004016105ff90615852565b60405180910390fd5b6106347fef360c158021078db11af78d1a7600ba162c8d50f4855490209a480ac92bee9d60001b6107b6565b6106607febcb94d0da9a0e36668c1a174d38f896fca7de7c8036b72821938003df53520e60001b6107b6565b61068c7f7e5fdb2a1634d296f80824fe79cb96b0f75b1f8b1d0b44b38b25e958d19fbc8a60001b6107b6565b610694611fdd565b565b60006106aa6106a3611fd5565b8484612265565b6001905092915050565b6000603554905090565b60006106cb848484612430565b6000603460008673ffffffffffffffffffffffffffffffffffffffff1673ffffffffffffffffffffffffffffffffffffffff1681526020019081526020016000206000610716611fd5565b73ffffffffffffffffffffffffffffffffffffffff1673ffffffffffffffffffffffffffffffffffffffff16815260200190815260200160002054905082811015610796576040517f08c379a000000000000000000000000000000000000000000000000000000000815260040161078d90615832565b60405180910390fd5b6107aa856107a2611fd5565b858403612265565b60019150509392505050565b50565b60006012905090565b60006107cc6126b4565b905090565b60006108736107de611fd5565b8484603460006107ec611fd5565b73ffffffffffffffffffffffffffffffffffffffff1673ffffffffffffffffffffffffffffffffffffffff16815260200190815260200160002060008873ffffffffffffffffffffffffffffffffffffffff1673ffffffffffffffffffffffffffffffffffffffff1681526020019081526020016000205461086e9190615a25565b612265565b6001905092915050565b610885611fd5565b73ffffffffffffffffffffffffffffffffffffffff166108a36115c2565b73ffffffffffffffffffffffffffffffffffffffff16146108f9576040517f08c379a00000000000000000000000000000000000000000000000000000000081526004016108f090615852565b60405180910390fd5b6109257f21f6e4106bfa04d8ea9784b57e40cc0f11f47c32f5fff9d5f28edcacadf9d20060001b6107b6565b6109517f8b79875725de087e75fa9fa7beb103a7aa256371a90ff9a21cb94d7ca4aa0bec60001b6107b6565b61097d7f2900a08412e3820ef3b871eddb729f8c374f302da04098df86d9fbd62a0422e560001b6107b6565b6109856126f4565b565b50565b60026101305414156109d1576040517f08c379a00000000000000000000000000000000000000000000000000000000081526004016109c890615932565b60405180910390fd5b600261013081905550610a067f1dd6362f8a3e4ed5bffb1e241208b47058a17b26a812d0f933701749d3597e7060001b610987565b610a327ff29f9f3dc7fd985175628dfc27b17c6ba7aae55e06c053d5fc6ef720303839c560001b610987565b610a5e7f869ce308f686c1ab5899b987a37199e49918ba5062f6bf7756b4e8f5853ec52d60001b610987565b6000610a68611fd5565b9050610a967fde715b7f8ed3d9c36297dbe7599fef37751b5122df69e8191db75fa534bf8bdc60001b610987565b610ac27fd281d643cc8899645fc1178b7701345f59579ec02c3af97edfc9d326afee270460001b610987565b600061016260009054906101000a900473ffffffffffffffffffffffffffffffffffffffff1673ffffffffffffffffffffffffffffffffffffffff166370a08231836040518263ffffffff1660e01b8152600401610b20919061548f565b60206040518083038186803b158015610b3857600080fd5b505afa158015610b4c573d6000803e3d6000fd5b505050506040513d601f19601f82011682018060405250810190610b709190614f51565b9050610b9e7f74a3849ba55db1d7a94adf5b77977349fb30aa2c639fc267ce90942f57d6905660001b610987565b610bca7feb4f28d0063478c0ddb7c5199de1e9d91fed82ad7947e947056505ac0bf69aea60001b610987565b610bf67f038fc6e836cfcbab7ac03728012cd4ee939cd73ef280b122ea106ba9396f2a4f60001b610987565b60008111610c39576040517f08c379a0000000000000000000000000000000000000000000000000000000008152600401610c30906157f2565b60405180910390fd5b610c657fc754e7188c1b01c3933f623738715f7f67bb1299c0bbe4fbad88b30da53cc39460001b610987565b610c917ffcd48447cb100cf33d5bc2a6e6f4856aed11f1bb9421339ebe3419747cfd20b160001b610987565b610cbd7fcdc44b3b0481e096502f9a817461d26bc2dfbd5e8b20f3d2e2ba22ac63e7ad8d60001b610987565b610cec61016260009054906101000a900473ffffffffffffffffffffffffffffffffffffffff16833084612796565b610d187ff4d1fc300bd222763849ce848c1b41c5d7669f9300a44da43aafed0cc17932cf60001b610987565b610d447f3f366816bbc8ad9c0572266bee073fad7f8ae248a9b6968ec8f44661b713850760001b610987565b610d707f69b8c08099e98686c90c9031b9bfd4b87a78ba3f7044eaf219d98ecfc5d29b2560001b610987565b600061016260009054906101000a900473ffffffffffffffffffffffffffffffffffffffff1673ffffffffffffffffffffffffffffffffffffffff166370a08231846040518263ffffffff1660e01b8152600401610dce919061548f565b60206040518083038186803b158015610de657600080fd5b505afa158015610dfa573d6000803e3d6000fd5b505050506040513d601f19601f82011682018060405250810190610e1e9190614f51565b14610e5e576040517f08c379a0000000000000000000000000000000000000000000000000000000008152600401610e5590615872565b60405180910390fd5b610e8a7fc4b4e116aa2dd32cb7d543281f99a03c8bb4154a9344afb44d46d65f24a8283860001b610987565b610eb67f69b5b6ec9c0375456b65324597febfb7a3273c437ad05eef1f274fae274dfc4e60001b610987565b610ee27f6c84fd29f1415d8c456cd55107b8e6f03d52d12cbb424e5b0b8fb6b5034ce68e60001b610987565b610eed308383612430565b610f197f4d91b938c5be758144064e87ea0c59178040815199325f3d706c23598299cf5760001b610987565b610f457fe43ddea1a274ab5114fe4b3d2f36f7dde8f3b57975e9a19d5bd10adb5f47b00960001b610987565b8173ffffffffffffffffffffffffffffffffffffffff167f47cee97cb7acd717b3c0aa1435d004cd5b3c8c57d70dbceb4e4458bbd60e39d482604051610f8b91906159b2565b60405180910390a2610fbf7f292e040f800bd0b02b64485ccca48a046671e67a64505d619d1ecac3d3d2c6f160001b610987565b610feb7faff6300f7ca94396c0ebca540ba4861518f314e87b5dbd37fa4f5a59b8dea53460001b610987565b600061016360008473ffffffffffffffffffffffffffffffffffffffff1673ffffffffffffffffffffffffffffffffffffffff1681526020019081526020016000205411156112aa576110607f5a4bf739e6a0edd62a61151155133f96cfdd7663061b31a968e48ab59c33d51060001b610987565b61108c7f53b87d949f5aa0ab6325c1c7ae64437c6d995b4738ec4b46c5bea547f79d135860001b610987565b6110b87f5fec9a36fd144d31a147bff4918b1dbff67ee84777a89bb4b8d4fed8b71f21f360001b610987565b600061016360008473ffffffffffffffffffffffffffffffffffffffff1673ffffffffffffffffffffffffffffffffffffffff1681526020019081526020016000205490506111297f25feb85ff986f12c5f2a3ba573b95d5a92c9e29bce2d78b6ddfef6cc4a85fe8860001b610987565b6111557f650458575d6e0538fa935cd40222a8055ccfaa39991250a63993bbf431833b8060001b610987565b600061016360008573ffffffffffffffffffffffffffffffffffffffff1673ffffffffffffffffffffffffffffffffffffffff168152602001908152602001600020819055506111c77f044678927d8291a5ee5b17dc88b828ea67ca6a7edb24b0f3da1b403a5557c64260001b610987565b6111f37f65f349d79a4f755b33f5f027f131dfd5354b93d76561d6981c5a7bbf525e7ed660001b610987565b6111fe308483612430565b61122a7f31020964c5423ea2d34c630f7d2d43cef4cf3a87d7ba028fa6eafc5f5ffdaead60001b610987565b6112567f5751b2a948513d69c0e58da581617b2125dcb823d309148b5d4165f25bf8a68060001b610987565b8273ffffffffffffffffffffffffffffffffffffffff167fa065a6bcbaa96b9d220b93617b9a6602d16a15aa84337912c99fc90e04d13cdb8260405161129c91906159b2565b60405180910390a2506112d7565b6112d67f4a54fee5d155b1ee8b188da2d3dfb5446433ec0b4f6e2f35fe44526caf50a70760001b610987565b5b5050600161013081905550565b6000606560009054906101000a900460ff16905090565b6000603360008373ffffffffffffffffffffffffffffffffffffffff1673ffffffffffffffffffffffffffffffffffffffff168152602001908152602001600020549050919050565b61134c611fd5565b73ffffffffffffffffffffffffffffffffffffffff1661136a6115c2565b73ffffffffffffffffffffffffffffffffffffffff16146113c0576040517f08c379a00000000000000000000000000000000000000000000000000000000081526004016113b790615852565b60405180910390fd5b6113ca600061281f565b565b60006113fa7fe55d8cb0d4042d7ec4b55c37d83acec8773d6061fd01298179a18ce2060eeb4c60001b610987565b6114267f485122e600333a9c9bd96eec63b3aa00cb39e99d256c5cd5f79b0a75f2c4fab560001b610987565b6114527f6e7327a432b31b915bd5c9f3e0e5fee1e51d49bcc398a6bff134e3e9c578a09360001b610987565b61016260149054906101000a900460ff16905090565b60006114b160fd60008473ffffffffffffffffffffffffffffffffffffffff1673ffffffffffffffffffffffffffffffffffffffff1681526020019081526020016000206128e5565b9050919050565b6114c0611fd5565b73ffffffffffffffffffffffffffffffffffffffff166114de6115c2565b73ffffffffffffffffffffffffffffffffffffffff1614611534576040517f08c379a000000000000000000000000000000000000000000000000000000000815260040161152b90615852565b60405180910390fd5b6115607f1f08b029dc3de0b8bdaa5233098eb5f22278e96e94c0eda937cf1b37dd291e0f60001b6107b6565b61158c7ff6fe58649da30d319e08a21c865436d25eae601e3dad758c50654d29ab1ce74760001b6107b6565b6115b87f411dde850f441abfcdb0d41d35334d9bbf915e01d604139ab76f87214b106e0360001b6107b6565b6115c06128f3565b565b6000609760009054906101000a900473ffffffffffffffffffffffffffffffffffffffff16905090565b6060603780546115fb90615b0d565b80601f016020809104026020016040519081016040528092919081815260200182805461162790615b0d565b80156116745780601f1061164957610100808354040283529160200191611674565b820191906000526020600020905b81548152906001019060200180831161165757829003601f168201915b5050505050905090565b6000806034600061168d611fd5565b73ffffffffffffffffffffffffffffffffffffffff1673ffffffffffffffffffffffffffffffffffffffff16815260200190815260200160002060008573ffffffffffffffffffffffffffffffffffffffff1673ffffffffffffffffffffffffffffffffffffffff1681526020019081526020016000205490508281101561174a576040517f08c379a000000000000000000000000000000000000000000000000000000000815260040161174190615972565b60405180910390fd5b61175e611755611fd5565b85858403612265565b600191505092915050565b60006117977f1fcb63eb956a58dacc6a3c8a17c13b64deee7863b199d86e09ccf6b59825256b60001b6107b6565b6117c37f4b81b2637612178ce6565c8063ae4f00d6324262192dc9fbb74caca0a4d7283f60001b6107b6565b6117ef7f9556f03dfa3e11e40f0c27f3f32dd0bbad688ec628d03dbbdf8d1e08ea9e04c560001b6107b6565b61181b7f395c10bda24145549899599eacd04fd3936ce927c167b2012cfa464884a22ad360001b6107b6565b61182483612996565b15611864576040517f08c379a000000000000000000000000000000000000000000000000000000000815260040161185b906158f2565b60405180910390fd5b6118907fbf2236149aef38c2487608ae27fd2530f7add4582daeb6833444523f1b833f0a60001b6107b6565b6118bc7f6dfe50180c035f1a791276c4dcca510fc6ce0fc6f0b977dbc39abe923deb1a7260001b6107b6565b6118e87f262d113f05435c62a47adf4ef32149bdea197dc9a262d404e5a71f0a22524b0d60001b6107b6565b6118f283836129a9565b905092915050565b60006119287f79412001ddb63a1d5e6f969f5abba17f93ef94ac0ab471d953bbc646379f0e4460001b610987565b6119547f9ee28d204271fb9c062ee7f50a59f88008ae3bfb3b253c3ea1901b98f77271b660001b610987565b6119807f73af5e62203d44e60a9b39ffbf849f532b37b23992bbdaaba73a9249535802b360001b610987565b61016260009054906101000a900473ffffffffffffffffffffffffffffffffffffffff16905090565b600060019054906101000a900460ff16806119cf575060008054906101000a900460ff16155b611a0e576040517f08c379a0000000000000000000000000000000000000000000000000000000008152600401611a05906157b2565b60405180910390fd5b60008060019054906101000a900460ff161590508015611a5e576001600060016101000a81548160ff02191690831515021790555060016000806101000a81548160ff0219169083151502179055505b611a8a7fb2509db3b56e10b73fb3e6b111f23532bde10974aaae86f05be4d2c74b23344a60001b6107b6565b611ab67f14dfa1edccae448bb928f3d29fb5a4442560667b82d90cdd2d2164e2d0a02c7c60001b6107b6565b611ae27fed69a9955291573e1f687c524add9e31f6bf743e65eed32af3baacddbb76d93d60001b6107b6565b611b566040518060400160405280600981526020017f4c696620546f6b656e00000000000000000000000000000000000000000000008152506040518060400160405280600381526020017f4c494600000000000000000000000000000000000000000000000000000000008152506129c7565b611b827fa167ed4246e5bd0061f94dac47652b973355c0caec614017db71ad9b0857b63a60001b6107b6565b611bae7f2d84c44154defb49845d761507a3146865356d5d4893754dca336edb29b7124760001b6107b6565b611bb6612ab4565b611be27f1407e105c6b922aa95e4cdd59a6416ce0c7fe0d16ebc350fcb25a0d21c96246f60001b6107b6565b611c0e7f9a53758e956e252fc54a82aae7f7650ac875de3d22677d571b4b7132f11fa8cf60001b6107b6565b611c16612b9d565b611c427f0cff5ba85b04d0fd86e4bf7f2a09c4dd38005f502e2c59524a5cdc9b4f62b2e860001b6107b6565b611c6e7ff50eacd4e5a5b35149b488241647cb68fdaf5eb366ba660e68824a04feb1701960001b6107b6565b611cac6040518060400160405280600981526020017f4c696620546f6b656e0000000000000000000000000000000000000000000000815250612c86565b611cd87f643191d0742f0987cad7df53d052a6604cb06baac2fb60057307d65fe285ff5e60001b6107b6565b611d047f5c4aba0d050f9900a0f2f68206b39411b47578de59bb9a963aa99dea3443ebdb60001b6107b6565b611d0d82612db0565b8015611d2e5760008060016101000a81548160ff0219169083151502179055505b5050565b83421115611d75576040517f08c379a0000000000000000000000000000000000000000000000000000000008152600401611d6c906156f2565b60405180910390fd5b600060fe54888888611d868c613a3a565b89604051602001611d9c96959493929190615517565b6040516020818303038152906040528051906020012090506000611dbf82613a98565b90506000611dcf82878787613ab2565b90508973ffffffffffffffffffffffffffffffffffffffff168173ffffffffffffffffffffffffffffffffffffffff1614611e3f576040517f08c379a0000000000000000000000000000000000000000000000000000000008152600401611e3690615812565b60405180910390fd5b611e4a8a8a8a612265565b50505050505050505050565b6000603460008473ffffffffffffffffffffffffffffffffffffffff1673ffffffffffffffffffffffffffffffffffffffff16815260200190815260200160002060008373ffffffffffffffffffffffffffffffffffffffff1673ffffffffffffffffffffffffffffffffffffffff16815260200190815260200160002054905092915050565b611ee5611fd5565b73ffffffffffffffffffffffffffffffffffffffff16611f036115c2565b73ffffffffffffffffffffffffffffffffffffffff1614611f59576040517f08c379a0000000000000000000000000000000000000000000000000000000008152600401611f5090615852565b60405180910390fd5b600073ffffffffffffffffffffffffffffffffffffffff168173ffffffffffffffffffffffffffffffffffffffff161415611fc9576040517f08c379a0000000000000000000000000000000000000000000000000000000008152600401611fc0906156b2565b60405180910390fd5b611fd28161281f565b50565b600033905090565b6120097f5a96bcb3df574558477eb8495e40add993a26d73447fcfc6f955bec907ec4a5b60001b610987565b6120357f1a11ac5cb9b686dab0f8c7279ad4397d3f8a79ebb8f8613e02530f07471a023460001b610987565b6120617f9601735e84630779953ec7d6bf018fa7e3654769562248a4f009f2ca6a92f15060001b610987565b61208d7f325ed5dd431529cd817d0aa135e99673bf4f7bb0084e6492a870de4176bad5dd60001b610987565b6120956113cc565b156120d5576040517f08c379a00000000000000000000000000000000000000000000000000000000081526004016120cc90615952565b60405180910390fd5b6121017f47160e85bc89ffe7219c291b28e37f12e31c59293a20cc6febc2443472c9925060001b610987565b61212d7f6050ff688b8609a2a4bb5d898d93e892c259064e4e336797f0a4d629fbfe344a60001b610987565b6121597f4d3d20f9c97bfabcda03ec1339778ca0e9f9842522b6fcba7cc3465723e66d7760001b610987565b6121857f1dd545ee1cbb993594f5e284dd858e901a8fc6e821c99fc6aa9015ecc69fdd9560001b610987565b6121b17f2bdef0e5691542826eb069de97fea7568e898c5e49fb4f400aee063f9a44684f60001b610987565b600161016260146101000a81548160ff0219169083151502179055506121f97f90a48ac27bc105ab2e5d1ad4e454f95768318e5bb56fd08e25872c82ae443b2260001b610987565b6122257f6a575220731bdd7ab118b25a11b5e8001a8c966c8b9120865605f7f05da74c7f60001b610987565b7f55c4adf1f68f084b809304657594a92ba835ada8d3b5340955bf05746723c05b61224e611fd5565b60405161225b919061548f565b60405180910390a1565b600073ffffffffffffffffffffffffffffffffffffffff168373ffffffffffffffffffffffffffffffffffffffff1614156122d5576040517f08c379a00000000000000000000000000000000000000000000000000000000081526004016122cc906158b2565b60405180910390fd5b600073ffffffffffffffffffffffffffffffffffffffff168273ffffffffffffffffffffffffffffffffffffffff161415612345576040517f08c379a000000000000000000000000000000000000000000000000000000000815260040161233c906156d2565b60405180910390fd5b80603460008573ffffffffffffffffffffffffffffffffffffffff1673ffffffffffffffffffffffffffffffffffffffff16815260200190815260200160002060008473ffffffffffffffffffffffffffffffffffffffff1673ffffffffffffffffffffffffffffffffffffffff168152602001908152602001600020819055508173ffffffffffffffffffffffffffffffffffffffff168373ffffffffffffffffffffffffffffffffffffffff167f8c5be1e5ebec7d5bd14f71427d1e84f3dd0314c0f7b2291e5b200ac8c7c3b9258360405161242391906159b2565b60405180910390a3505050565b600073ffffffffffffffffffffffffffffffffffffffff168373ffffffffffffffffffffffffffffffffffffffff1614156124a0576040517f08c379a000000000000000000000000000000000000000000000000000000000815260040161249790615892565b60405180910390fd5b600073ffffffffffffffffffffffffffffffffffffffff168273ffffffffffffffffffffffffffffffffffffffff161415612510576040517f08c379a000000000000000000000000000000000000000000000000000000000815260040161250790615652565b60405180910390fd5b61251b838383613add565b6000603360008573ffffffffffffffffffffffffffffffffffffffff1673ffffffffffffffffffffffffffffffffffffffff168152602001908152602001600020549050818110156125a2576040517f08c379a000000000000000000000000000000000000000000000000000000000815260040161259990615712565b60405180910390fd5b818103603360008673ffffffffffffffffffffffffffffffffffffffff1673ffffffffffffffffffffffffffffffffffffffff1681526020019081526020016000208190555081603360008573ffffffffffffffffffffffffffffffffffffffff1673ffffffffffffffffffffffffffffffffffffffff16815260200190815260200160002060008282546126379190615a25565b925050819055508273ffffffffffffffffffffffffffffffffffffffff168473ffffffffffffffffffffffffffffffffffffffff167fddf252ad1be2c89b69c2b068fc378daa952ba7f163c4a11628f55a4df523b3ef8460405161269b91906159b2565b60405180910390a36126ae848484613bb8565b50505050565b60006126ef7f8b73c3c69bb8fe3d512ecc4cf759cc79239f7b179b0ffacaa9a75d522b39400f6126e2613c4c565b6126ea613c56565b613c60565b905090565b6126fc6112e4565b61273b576040517f08c379a000000000000000000000000000000000000000000000000000000000815260040161273290615672565b60405180910390fd5b6000606560006101000a81548160ff0219169083151502179055507f5db9ee0a495bf2e6ff9c91a7834c1ba4fdd244a5e8aa4e537bd38aeae4b073aa61277f611fd5565b60405161278c919061548f565b60405180910390a1565b612819846323b872dd60e01b8585856040516024016127b7939291906154aa565b604051602081830303815290604052907bffffffffffffffffffffffffffffffffffffffffffffffffffffffff19166020820180517bffffffffffffffffffffffffffffffffffffffffffffffffffffffff8381831617835250505050613c9a565b50505050565b6000609760009054906101000a900473ffffffffffffffffffffffffffffffffffffffff16905081609760006101000a81548173ffffffffffffffffffffffffffffffffffffffff021916908373ffffffffffffffffffffffffffffffffffffffff1602179055508173ffffffffffffffffffffffffffffffffffffffff168173ffffffffffffffffffffffffffffffffffffffff167f8be0079c531659141344cd1fd0a4f28419497f9722a3daafe3b4186f6b6457e060405160405180910390a35050565b600081600001549050919050565b6128fb6112e4565b1561293b576040517f08c379a000000000000000000000000000000000000000000000000000000000815260040161293290615792565b60405180910390fd5b6001606560006101000a81548160ff0219169083151502179055507f62e78cea01bee320cd4e420270b5ea74000d11b0c9f74754ebdbfc544b05a25861297f611fd5565b60405161298c919061548f565b60405180910390a1565b600080823b905060008111915050919050565b60006129bd6129b6611fd5565b8484612430565b6001905092915050565b600060019054906101000a900460ff16806129ed575060008054906101000a900460ff16155b612a2c576040517f08c379a0000000000000000000000000000000000000000000000000000000008152600401612a23906157b2565b60405180910390fd5b60008060019054906101000a900460ff161590508015612a7c576001600060016101000a81548160ff02191690831515021790555060016000806101000a81548160ff0219169083151502179055505b612a84613d61565b612a8e8383613e3a565b8015612aaf5760008060016101000a81548160ff0219169083151502179055505b505050565b600060019054906101000a900460ff1680612ada575060008054906101000a900460ff16155b612b19576040517f08c379a0000000000000000000000000000000000000000000000000000000008152600401612b10906157b2565b60405180910390fd5b60008060019054906101000a900460ff161590508015612b69576001600060016101000a81548160ff02191690831515021790555060016000806101000a81548160ff0219169083151502179055505b612b71613d61565b612b79613f43565b8015612b9a5760008060016101000a81548160ff0219169083151502179055505b50565b600060019054906101000a900460ff1680612bc3575060008054906101000a900460ff16155b612c02576040517f08c379a0000000000000000000000000000000000000000000000000000000008152600401612bf9906157b2565b60405180910390fd5b60008060019054906101000a900460ff161590508015612c52576001600060016101000a81548160ff02191690831515021790555060016000806101000a81548160ff0219169083151502179055505b612c5a613d61565b612c62614037565b8015612c835760008060016101000a81548160ff0219169083151502179055505b50565b600060019054906101000a900460ff1680612cac575060008054906101000a900460ff16155b612ceb576040517f08c379a0000000000000000000000000000000000000000000000000000000008152600401612ce2906157b2565b60405180910390fd5b60008060019054906101000a900460ff161590508015612d3b576001600060016101000a81548160ff02191690831515021790555060016000806101000a81548160ff0219169083151502179055505b612d43613d61565b612d82826040518060400160405280600181526020017f3100000000000000000000000000000000000000000000000000000000000000815250614120565b612d8b82614223565b8015612dac5760008060016101000a81548160ff0219169083151502179055505b5050565b600060019054906101000a900460ff1680612dd6575060008054906101000a900460ff16155b612e15576040517f08c379a0000000000000000000000000000000000000000000000000000000008152600401612e0c906157b2565b60405180910390fd5b60008060019054906101000a900460ff161590508015612e65576001600060016101000a81548160ff02191690831515021790555060016000806101000a81548160ff0219169083151502179055505b612e917fe2200f2755473316b221e7e47f3cfbb22145a14fb0b1cd72855f27f24f57a5e960001b610987565b612ebd7ff95445d6ab5e466b3fd4d80b72b4cb0a5d48a54df8b4d232fc057b34e7f2c14e60001b610987565b612ee97ff0577e6fb141961db4c8fa620fb2c02c9c580c1d66e7b680ea292a4b6d5436c560001b610987565b612f157fb6a1cfac2c9516ac65ba46e61c0d6f0e6db9a3a74f094b943142d0f889b3d1a960001b610987565b600073ffffffffffffffffffffffffffffffffffffffff168273ffffffffffffffffffffffffffffffffffffffff161415612f85576040517f08c379a0000000000000000000000000000000000000000000000000000000008152600401612f7c90615772565b60405180910390fd5b612fb17f5404c564a7cb97494c437d103fdc2cdcddab66baba4ca7b713ba50a8103e7e4d60001b610987565b612fdd7f996db8253aeb18ff5519276fd6e33ad131e237192d00eb6e40cd85987df56b1160001b610987565b6130097f0a9c2f99a0bcc010e5921ee823990c45f3e6adca577466abb491374f818bf22660001b610987565b600061016260146101000a81548160ff0219169083151502179055506130517fdf262dd705d2cf92fe0474a1b06bbbdb010388916ffe801652e3c6ec53bf053860001b610987565b61307d7f1fc5bd933cffde27d035de91650cf6077aa581d1b46b1abea8dd36485a735ea260001b610987565b8161016260006101000a81548173ffffffffffffffffffffffffffffffffffffffff021916908373ffffffffffffffffffffffffffffffffffffffff1602179055506130eb7fd7067f404a8bb381d5c8c6431f83d5be50ba7d6ac413353d2d82c4275e258a7e60001b610987565b6131177fa3bf8fc6c7113e6d9d8b20803bec860aa13879e87c0584c00db748d26c98ede560001b610987565b61311f614324565b61314b7f827385f8f21c87fb5af5f7745ffa8813e2ecc433ecd3e42036da6a97895b638060001b610987565b6131777fcd68bc6fc44b645ec9cf28c0df554a65b82d6b74a5994cbbd85887d77f0e3d7460001b610987565b6132213061016260009054906101000a900473ffffffffffffffffffffffffffffffffffffffff1673ffffffffffffffffffffffffffffffffffffffff166318160ddd6040518163ffffffff1660e01b815260040160206040518083038186803b1580156131e457600080fd5b505afa1580156131f8573d6000803e3d6000fd5b505050506040513d601f19601f8201168201806040525081019061321c9190614f51565b614405565b61324d7f46203d504d5d38208b675e9624591f0c37bc3e2baf18bed01cc0b0b8b4da704b60001b610987565b6132797fb08009fe961ef7a5bd3bd7d29b3166ad92522698a06dbcd20ca067a8cf45fd2060001b610987565b690214e2a7766d89d800006101636000739067ae747976631d6194311f6cf6fd83a561b0c973ffffffffffffffffffffffffffffffffffffffff1673ffffffffffffffffffffffffffffffffffffffff16815260200190815260200160002060008282546132e79190615a25565b9250508190555061331a7f3adeced8689f9d965f9b649a2dbe4dc97b10d22be7e2dc497b7aaa1ef8dbaca460001b610987565b6133467f0f2f0611bf430a4abe7a6e5cfc4f14970d18b2e5638efb2def36082e968f551f60001b610987565b690b02ecf74c31387fedf9610163600073415df4ef8f2e4afaebd99ec1d49b05a220ac367373ffffffffffffffffffffffffffffffffffffffff1673ffffffffffffffffffffffffffffffffffffffff16815260200190815260200160002060008282546133b49190615a25565b925050819055506133e77f4596754ae8dd72b2dcaff7213cdeef2f7adfec47e418bb83d3f07e521422bdde60001b610987565b6134137f2ee15267ff3aec2355808e5e1cd0356fe0267bceb915e620214ac1f3f796c85260001b610987565b6828b6c5bb47a018cc0061016360007377e4588685744cdbddbf677860b42a3c28e166dd73ffffffffffffffffffffffffffffffffffffffff1673ffffffffffffffffffffffffffffffffffffffff16815260200190815260200160002060008282546134809190615a25565b925050819055506134b37f5c7cafb4b547f74b15b5040b270a8f3d367d581a1af8033cb3eae731bdbb567b60001b610987565b6134df7f63e414aa137a7689c2613bc4bbe71fd8a8a7beb3ec881df90f3b66144027cf4e60001b610987565b612710610163600073b91e2071762e2825d3ec7513304b7f833be32d4873ffffffffffffffffffffffffffffffffffffffff1673ffffffffffffffffffffffffffffffffffffffff16815260200190815260200160002060008282546135459190615a25565b925050819055506135787fe6ef0ae28fd4300ac23b1b7cc0aa821ac8d37976476e37d6c70da43cfaa3194560001b610987565b6135a47f9dfac54db6a5823e8c5325315752442e17d83ff6d302a3acc55c929f65fbb9b460001b610987565b6901117d708271c5b4000061016360007372ba03f175420890d18423500f0c6b1f2b3e821d73ffffffffffffffffffffffffffffffffffffffff1673ffffffffffffffffffffffffffffffffffffffff16815260200190815260200160002060008282546136129190615a25565b925050819055506136457f953f685aa290ba8fadcf84bf49f11ee378b04c485bf21363d986182bb4b2da2660001b610987565b6136717fcbbd0767af47f01be5db2d14b78307524403f76743a6245a42d2df2cd1d2e13860001b610987565b680a14c14b39cdf78000610163600073692306857d17a8f31bb5feb17cfe765773487e6673ffffffffffffffffffffffffffffffffffffffff1673ffffffffffffffffffffffffffffffffffffffff16815260200190815260200160002060008282546136de9190615a25565b925050819055506137117f89230c2f643ce97fba3c4e63dbe1b1925059b381685000a8da1add06c4f6f74360001b610987565b61373d7f76b1e9d356550775081ce33841c958c2dd883e3021bd53ecc029151e3afaf73760001b610987565b681b1ae4d6e2ef500000610163600073a7f660812022155ada962f54d2c289c5592f518a73ffffffffffffffffffffffffffffffffffffffff1673ffffffffffffffffffffffffffffffffffffffff16815260200190815260200160002060008282546137aa9190615a25565b925050819055506137dd7f08a6b37b428fe3f2dabcd7c1eb5d4e6d5230d9eb97ee12bdec899db0024ab98260001b610987565b6138097f27c1b4462b6291969d9287b5de6fa6e738cdb98b2aab3b113f5350ea49a7b7d960001b610987565b68a55740b8684d6800006101636000738adbf5f4f80319cfbe8d49976aad9aacc158b4b873ffffffffffffffffffffffffffffffffffffffff1673ffffffffffffffffffffffffffffffffffffffff16815260200190815260200160002060008282546138769190615a25565b925050819055506138a97fafdfb66a28fede24adfed174608b5db47031cd7ae466938c47efab54dea2f49960001b610987565b6138d57f9f33789873b700cf80420148ccef05d5e2ae2937395bcf104b2d309c6695bf5560001b610987565b68022b1c8c1227a0000061016360007377e4588685744cdbddbf677860b42a3c28e166dd73ffffffffffffffffffffffffffffffffffffffff1673ffffffffffffffffffffffffffffffffffffffff16815260200190815260200160002060008282546139429190615a25565b925050819055506139757f772de57fffdd2a2c82f030228611793b220b82b389ed67bf578c69212f743fb960001b610987565b6139a17ffd4d17812c2bd30cdd0c4e8374fd6588128d034823b095113d1205bfc58f0e3160001b610987565b681043561a882930000061016360007377928bbe911befe4bd4e5d6a6c6d1b7ca58eab6e73ffffffffffffffffffffffffffffffffffffffff1673ffffffffffffffffffffffffffffffffffffffff1681526020019081526020016000206000828254613a0e9190615a25565b925050819055508015613a365760008060016101000a81548160ff0219169083151502179055505b5050565b60008060fd60008473ffffffffffffffffffffffffffffffffffffffff1673ffffffffffffffffffffffffffffffffffffffff1681526020019081526020016000209050613a87816128e5565b9150613a9281614497565b50919050565b6000613aab613aa56126b4565b836144ad565b9050919050565b6000806000613ac3878787876144e0565b91509150613ad0816145ed565b8192505050949350505050565b613ae56112e4565b15613b25576040517f08c379a0000000000000000000000000000000000000000000000000000000008152600401613b1c90615792565b60405180910390fd5b613b517f6573f7776f9ab86757d04a20d32fba7c75745683da825f4c08f700b5c4a27f2960001b6107b6565b613b7c7eb91dc01a71e5ee602055c9b71467f90420e8e998bc74f4973106b85e90348360001b6107b6565b613ba87f85c536f9dc523b7cd17f9c2f0c585a15865302b67bb8607c423563756c790b8160001b6107b6565b613bb38383836147c2565b505050565b613be47f545b1ea12e29d00897f8037f32772d0910d37501f7dc06b92c3aa6f950613f6660001b6107b6565b613c107fa134f52a4040c12c9385df282fb563806728c60fe513359e39004e8e76c4289260001b6107b6565b613c3c7f3ad8aff7216cde775ce378b04d3ab74802cea5560b85dd6d09322391d52346ba60001b6107b6565b613c478383836147c7565b505050565b600060c954905090565b600060ca54905090565b60008383834630604051602001613c7b959493929190615578565b6040516020818303038152906040528051906020012090509392505050565b6000613cfc826040518060400160405280602081526020017f5361666545524332303a206c6f772d6c6576656c2063616c6c206661696c65648152508573ffffffffffffffffffffffffffffffffffffffff166147cc9092919063ffffffff16565b9050600081511115613d5c5780806020019051810190613d1c9190614ef7565b613d5b576040517f08c379a0000000000000000000000000000000000000000000000000000000008152600401613d5290615912565b60405180910390fd5b5b505050565b600060019054906101000a900460ff1680613d87575060008054906101000a900460ff16155b613dc6576040517f08c379a0000000000000000000000000000000000000000000000000000000008152600401613dbd906157b2565b60405180910390fd5b60008060019054906101000a900460ff161590508015613e16576001600060016101000a81548160ff02191690831515021790555060016000806101000a81548160ff0219169083151502179055505b8015613e375760008060016101000a81548160ff0219169083151502179055505b50565b600060019054906101000a900460ff1680613e60575060008054906101000a900460ff16155b613e9f576040517f08c379a0000000000000000000000000000000000000000000000000000000008152600401613e96906157b2565b60405180910390fd5b60008060019054906101000a900460ff161590508015613eef576001600060016101000a81548160ff02191690831515021790555060016000806101000a81548160ff0219169083151502179055505b8260369080519060200190613f05929190614c34565b508160379080519060200190613f1c929190614c34565b508015613f3e5760008060016101000a81548160ff0219169083151502179055505b505050565b600060019054906101000a900460ff1680613f69575060008054906101000a900460ff16155b613fa8576040517f08c379a0000000000000000000000000000000000000000000000000000000008152600401613f9f906157b2565b60405180910390fd5b60008060019054906101000a900460ff161590508015613ff8576001600060016101000a81548160ff02191690831515021790555060016000806101000a81548160ff0219169083151502179055505b6000606560006101000a81548160ff02191690831515021790555080156140345760008060016101000a81548160ff0219169083151502179055505b50565b600060019054906101000a900460ff168061405d575060008054906101000a900460ff16155b61409c576040517f08c379a0000000000000000000000000000000000000000000000000000000008152600401614093906157b2565b60405180910390fd5b60008060019054906101000a900460ff1615905080156140ec576001600060016101000a81548160ff02191690831515021790555060016000806101000a81548160ff0219169083151502179055505b6140fc6140f7611fd5565b61281f565b801561411d5760008060016101000a81548160ff0219169083151502179055505b50565b600060019054906101000a900460ff1680614146575060008054906101000a900460ff16155b614185576040517f08c379a000000000000000000000000000000000000000000000000000000000815260040161417c906157b2565b60405180910390fd5b60008060019054906101000a900460ff1615905080156141d5576001600060016101000a81548160ff02191690831515021790555060016000806101000a81548160ff0219169083151502179055505b6000838051906020012090506000838051906020012090508160c9819055508060ca819055505050801561421e5760008060016101000a81548160ff0219169083151502179055505b505050565b600060019054906101000a900460ff1680614249575060008054906101000a900460ff16155b614288576040517f08c379a000000000000000000000000000000000000000000000000000000000815260040161427f906157b2565b60405180910390fd5b60008060019054906101000a900460ff1615905080156142d8576001600060016101000a81548160ff02191690831515021790555060016000806101000a81548160ff0219169083151502179055505b7f6e71edae12b1b97f4d1f60370fef10105fa2faae0126114a169c64845d6126c960fe8190555080156143205760008060016101000a81548160ff0219169083151502179055505b5050565b600060019054906101000a900460ff168061434a575060008054906101000a900460ff16155b614389576040517f08c379a0000000000000000000000000000000000000000000000000000000008152600401614380906157b2565b60405180910390fd5b60008060019054906101000a900460ff1615905080156143d9576001600060016101000a81548160ff02191690831515021790555060016000806101000a81548160ff0219169083151502179055505b6143e16147e4565b80156144025760008060016101000a81548160ff0219169083151502179055505b50565b6144317f7fb16105134b42cd8397b64a398fd3502569c3c42d8bdecf65b99a62dc6b323a60001b6107b6565b61445d7f9ac0d8b94d9569ebd33d859ffb3148f4c7966b4f26cf7a9eeb9b4afdb3a0390a60001b6107b6565b6144897f8c12731be4e9831bbdecdd32c3b1414409b1056cf5ac9dca75e9644fa01d652b60001b6107b6565b61449382826148c6565b5050565b6001816000016000828254019250508190555050565b600082826040516020016144c2929190615458565b60405160208183030381529060405280519060200120905092915050565b6000807f7fffffffffffffffffffffffffffffff5d576e7357a4501ddfe92f46681b20a08360001c111561451b5760006003915091506145e4565b601b8560ff16141580156145335750601c8560ff1614155b156145455760006004915091506145e4565b60006001878787876040516000815260200160405260405161456a94939291906155cb565b6020604051602081039080840390855afa15801561458c573d6000803e3d6000fd5b505050602060405103519050600073ffffffffffffffffffffffffffffffffffffffff168173ffffffffffffffffffffffffffffffffffffffff1614156145db576000600192509250506145e4565b80600092509250505b94509492505050565b6000600481111561460157614600615b78565b5b81600481111561461457614613615b78565b5b141561461f576147bf565b6001600481111561463357614632615b78565b5b81600481111561464657614645615b78565b5b1415614687576040517f08c379a000000000000000000000000000000000000000000000000000000000815260040161467e90615632565b60405180910390fd5b6002600481111561469b5761469a615b78565b5b8160048111156146ae576146ad615b78565b5b14156146ef576040517f08c379a00000000000000000000000000000000000000000000000000000000081526004016146e690615692565b60405180910390fd5b6003600481111561470357614702615b78565b5b81600481111561471657614715615b78565b5b1415614757576040517f08c379a000000000000000000000000000000000000000000000000000000000815260040161474e90615732565b60405180910390fd5b60048081111561476a57614769615b78565b5b81600481111561477d5761477c615b78565b5b14156147be576040517f08c379a00000000000000000000000000000000000000000000000000000000081526004016147b5906157d2565b60405180910390fd5b5b50565b505050565b505050565b60606147db8484600085614958565b90509392505050565b600060019054906101000a900460ff168061480a575060008054906101000a900460ff16155b614849576040517f08c379a0000000000000000000000000000000000000000000000000000000008152600401614840906157b2565b60405180910390fd5b60008060019054906101000a900460ff161590508015614899576001600060016101000a81548160ff02191690831515021790555060016000806101000a81548160ff0219169083151502179055505b60016101308190555080156148c35760008060016101000a81548160ff0219169083151502179055505b50565b6148f27fba9a300cc5243db9e283c5e114f9d7568ffca6d66f12db37ec496a3b7d9c36f560001b610987565b61491e7ff7edd2166bee4d6c9fd476dbbd23c1f92462fd75e1f3c1d2d2fd1d1a661dec8260001b610987565b61494a7f1eb04e149d840ff5d9db5e30a9ec7bb2e55949f66695186e0e416317ed642fa360001b610987565b6149548282614a6c565b5050565b60608247101561499d576040517f08c379a000000000000000000000000000000000000000000000000000000000815260040161499490615752565b60405180910390fd5b6149a685612996565b6149e5576040517f08c379a00000000000000000000000000000000000000000000000000000000081526004016149dc906158d2565b60405180910390fd5b6000808673ffffffffffffffffffffffffffffffffffffffff168587604051614a0e9190615441565b60006040518083038185875af1925050503d8060008114614a4b576040519150601f19603f3d011682016040523d82523d6000602084013e614a50565b606091505b5091509150614a60828286614bcd565b92505050949350505050565b600073ffffffffffffffffffffffffffffffffffffffff168273ffffffffffffffffffffffffffffffffffffffff161415614adc576040517f08c379a0000000000000000000000000000000000000000000000000000000008152600401614ad390615992565b60405180910390fd5b614ae860008383613add565b8060356000828254614afa9190615a25565b9250508190555080603360008473ffffffffffffffffffffffffffffffffffffffff1673ffffffffffffffffffffffffffffffffffffffff1681526020019081526020016000206000828254614b509190615a25565b925050819055508173ffffffffffffffffffffffffffffffffffffffff16600073ffffffffffffffffffffffffffffffffffffffff167fddf252ad1be2c89b69c2b068fc378daa952ba7f163c4a11628f55a4df523b3ef83604051614bb591906159b2565b60405180910390a3614bc960008383613bb8565b5050565b60608315614bdd57829050614c2d565b600083511115614bf05782518084602001fd5b816040517f08c379a0000000000000000000000000000000000000000000000000000000008152600401614c249190615610565b60405180910390fd5b9392505050565b828054614c4090615b0d565b90600052602060002090601f016020900481019282614c625760008555614ca9565b82601f10614c7b57805160ff1916838001178555614ca9565b82800160010185558215614ca9579182015b82811115614ca8578251825591602001919060010190614c8d565b5b509050614cb69190614cba565b5090565b5b80821115614cd3576000816000905550600101614cbb565b5090565b600081359050614ce68161627f565b92915050565b600081519050614cfb81616296565b92915050565b600081359050614d10816162ad565b92915050565b600081359050614d25816162c4565b92915050565b600081519050614d3a816162c4565b92915050565b600081359050614d4f816162db565b92915050565b600060208284031215614d6b57614d6a615bd6565b5b6000614d7984828501614cd7565b91505092915050565b60008060408385031215614d9957614d98615bd6565b5b6000614da785828601614cd7565b9250506020614db885828601614cd7565b9150509250929050565b600080600060608486031215614ddb57614dda615bd6565b5b6000614de986828701614cd7565b9350506020614dfa86828701614cd7565b9250506040614e0b86828701614d16565b9150509250925092565b600080600080600080600060e0888a031215614e3457614e33615bd6565b5b6000614e428a828b01614cd7565b9750506020614e538a828b01614cd7565b9650506040614e648a828b01614d16565b9550506060614e758a828b01614d16565b9450506080614e868a828b01614d40565b93505060a0614e978a828b01614d01565b92505060c0614ea88a828b01614d01565b91505092959891949750929550565b60008060408385031215614ece57614ecd615bd6565b5b6000614edc85828601614cd7565b9250506020614eed85828601614d16565b9150509250929050565b600060208284031215614f0d57614f0c615bd6565b5b6000614f1b84828501614cec565b91505092915050565b600060208284031215614f3a57614f39615bd6565b5b6000614f4884828501614d01565b91505092915050565b600060208284031215614f6757614f66615bd6565b5b6000614f7584828501614d2b565b91505092915050565b614f8781615a7b565b82525050565b614f9681615a8d565b82525050565b614fa581615a99565b82525050565b614fbc614fb782615a99565b615b3f565b82525050565b6000614fcd826159e8565b614fd781856159fe565b9350614fe7818560208601615ada565b80840191505092915050565b6000614ffe826159f3565b6150088185615a09565b9350615018818560208601615ada565b61502181615bdb565b840191505092915050565b6000615039601883615a09565b915061504482615bec565b602082019050919050565b600061505c602383615a09565b915061506782615c15565b604082019050919050565b600061507f601483615a09565b915061508a82615c64565b602082019050919050565b60006150a2601f83615a09565b91506150ad82615c8d565b602082019050919050565b60006150c5602683615a09565b91506150d082615cb6565b604082019050919050565b60006150e8602283615a09565b91506150f382615d05565b604082019050919050565b600061510b600283615a1a565b915061511682615d54565b600282019050919050565b600061512e601d83615a09565b915061513982615d7d565b602082019050919050565b6000615151602683615a09565b915061515c82615da6565b604082019050919050565b6000615174602283615a09565b915061517f82615df5565b604082019050919050565b6000615197602683615a09565b91506151a282615e44565b604082019050919050565b60006151ba602083615a09565b91506151c582615e93565b602082019050919050565b60006151dd601083615a09565b91506151e882615ebc565b602082019050919050565b6000615200602e83615a09565b915061520b82615ee5565b604082019050919050565b6000615223602283615a09565b915061522e82615f34565b604082019050919050565b6000615246601b83615a09565b915061525182615f83565b602082019050919050565b6000615269601e83615a09565b915061527482615fac565b602082019050919050565b600061528c602883615a09565b915061529782615fd5565b604082019050919050565b60006152af602083615a09565b91506152ba82616024565b602082019050919050565b60006152d2601d83615a09565b91506152dd8261604d565b602082019050919050565b60006152f5602583615a09565b915061530082616076565b604082019050919050565b6000615318602483615a09565b9150615323826160c5565b604082019050919050565b600061533b601d83615a09565b915061534682616114565b602082019050919050565b600061535e601f83615a09565b91506153698261613d565b602082019050919050565b6000615381602a83615a09565b915061538c82616166565b604082019050919050565b60006153a4601f83615a09565b91506153af826161b5565b602082019050919050565b60006153c7601283615a09565b91506153d2826161de565b602082019050919050565b60006153ea602583615a09565b91506153f582616207565b604082019050919050565b600061540d601f83615a09565b915061541882616256565b602082019050919050565b61542c81615ac3565b82525050565b61543b81615acd565b82525050565b600061544d8284614fc2565b915081905092915050565b6000615463826150fe565b915061546f8285614fab565b60208201915061547f8284614fab565b6020820191508190509392505050565b60006020820190506154a46000830184614f7e565b92915050565b60006060820190506154bf6000830186614f7e565b6154cc6020830185614f7e565b6154d96040830184615423565b949350505050565b60006020820190506154f66000830184614f8d565b92915050565b60006020820190506155116000830184614f9c565b92915050565b600060c08201905061552c6000830189614f9c565b6155396020830188614f7e565b6155466040830187614f7e565b6155536060830186615423565b6155606080830185615423565b61556d60a0830184615423565b979650505050505050565b600060a08201905061558d6000830188614f9c565b61559a6020830187614f9c565b6155a76040830186614f9c565b6155b46060830185615423565b6155c16080830184614f7e565b9695505050505050565b60006080820190506155e06000830187614f9c565b6155ed6020830186615432565b6155fa6040830185614f9c565b6156076060830184614f9c565b95945050505050565b6000602082019050818103600083015261562a8184614ff3565b905092915050565b6000602082019050818103600083015261564b8161502c565b9050919050565b6000602082019050818103600083015261566b8161504f565b9050919050565b6000602082019050818103600083015261568b81615072565b9050919050565b600060208201905081810360008301526156ab81615095565b9050919050565b600060208201905081810360008301526156cb816150b8565b9050919050565b600060208201905081810360008301526156eb816150db565b9050919050565b6000602082019050818103600083015261570b81615121565b9050919050565b6000602082019050818103600083015261572b81615144565b9050919050565b6000602082019050818103600083015261574b81615167565b9050919050565b6000602082019050818103600083015261576b8161518a565b9050919050565b6000602082019050818103600083015261578b816151ad565b9050919050565b600060208201905081810360008301526157ab816151d0565b9050919050565b600060208201905081810360008301526157cb816151f3565b9050919050565b600060208201905081810360008301526157eb81615216565b9050919050565b6000602082019050818103600083015261580b81615239565b9050919050565b6000602082019050818103600083015261582b8161525c565b9050919050565b6000602082019050818103600083015261584b8161527f565b9050919050565b6000602082019050818103600083015261586b816152a2565b9050919050565b6000602082019050818103600083015261588b816152c5565b9050919050565b600060208201905081810360008301526158ab816152e8565b9050919050565b600060208201905081810360008301526158cb8161530b565b9050919050565b600060208201905081810360008301526158eb8161532e565b9050919050565b6000602082019050818103600083015261590b81615351565b9050919050565b6000602082019050818103600083015261592b81615374565b9050919050565b6000602082019050818103600083015261594b81615397565b9050919050565b6000602082019050818103600083015261596b816153ba565b9050919050565b6000602082019050818103600083015261598b816153dd565b9050919050565b600060208201905081810360008301526159ab81615400565b9050919050565b60006020820190506159c76000830184615423565b92915050565b60006020820190506159e26000830184615432565b92915050565b600081519050919050565b600081519050919050565b600081905092915050565b600082825260208201905092915050565b600081905092915050565b6000615a3082615ac3565b9150615a3b83615ac3565b9250827fffffffffffffffffffffffffffffffffffffffffffffffffffffffffffffffff03821115615a7057615a6f615b49565b5b828201905092915050565b6000615a8682615aa3565b9050919050565b60008115159050919050565b6000819050919050565b600073ffffffffffffffffffffffffffffffffffffffff82169050919050565b6000819050919050565b600060ff82169050919050565b60005b83811015615af8578082015181840152602081019050615add565b83811115615b07576000848401525b50505050565b60006002820490506001821680615b2557607f821691505b60208210811415615b3957615b38615ba7565b5b50919050565b6000819050919050565b7f4e487b7100000000000000000000000000000000000000000000000000000000600052601160045260246000fd5b7f4e487b7100000000000000000000000000000000000000000000000000000000600052602160045260246000fd5b7f4e487b7100000000000000000000000000000000000000000000000000000000600052602260045260246000fd5b600080fd5b6000601f19601f8301169050919050565b7f45434453413a20696e76616c6964207369676e61747572650000000000000000600082015250565b7f45524332303a207472616e7366657220746f20746865207a65726f206164647260008201527f6573730000000000000000000000000000000000000000000000000000000000602082015250565b7f5061757361626c653a206e6f7420706175736564000000000000000000000000600082015250565b7f45434453413a20696e76616c6964207369676e6174757265206c656e67746800600082015250565b7f4f776e61626c653a206e6577206f776e657220697320746865207a65726f206160008201527f6464726573730000000000000000000000000000000000000000000000000000602082015250565b7f45524332303a20617070726f766520746f20746865207a65726f20616464726560008201527f7373000000000000000000000000000000000000000000000000000000000000602082015250565b7f1901000000000000000000000000000000000000000000000000000000000000600082015250565b7f45524332305065726d69743a206578706972656420646561646c696e65000000600082015250565b7f45524332303a207472616e7366657220616d6f756e742065786365656473206260008201527f616c616e63650000000000000000000000000000000000000000000000000000602082015250565b7f45434453413a20696e76616c6964207369676e6174757265202773272076616c60008201527f7565000000000000000000000000000000000000000000000000000000000000602082015250565b7f416464726573733a20696e73756666696369656e742062616c616e636520666f60008201527f722063616c6c0000000000000000000000000000000000000000000000000000602082015250565b7f436c61696d61626c653a20696e76616c696420746f6b656e2061646472657373600082015250565b7f5061757361626c653a2070617573656400000000000000000000000000000000600082015250565b7f496e697469616c697a61626c653a20636f6e747261637420697320616c72656160008201527f647920696e697469616c697a6564000000000000000000000000000000000000602082015250565b7f45434453413a20696e76616c6964207369676e6174757265202776272076616c60008201527f7565000000000000000000000000000000000000000000000000000000000000602082015250565b7f436c61696d61626c653a206e6f7468696e6720746f20636c61696d0000000000600082015250565b7f45524332305065726d69743a20696e76616c6964207369676e61747572650000600082015250565b7f45524332303a207472616e7366657220616d6f756e742065786365656473206160008201527f6c6c6f77616e6365000000000000000000000000000000000000000000000000602082015250565b7f4f776e61626c653a2063616c6c6572206973206e6f7420746865206f776e6572600082015250565b7f436c61696d61626c653a20756e61626c6520746f207472616e73666572000000600082015250565b7f45524332303a207472616e736665722066726f6d20746865207a65726f20616460008201527f6472657373000000000000000000000000000000000000000000000000000000602082015250565b7f45524332303a20617070726f76652066726f6d20746865207a65726f2061646460008201527f7265737300000000000000000000000000000000000000000000000000000000602082015250565b7f416464726573733a2063616c6c20746f206e6f6e2d636f6e7472616374000000600082015250565b7f45524332303a207472616e7366657220746f2074686520636f6e747261637400600082015250565b7f5361666545524332303a204552433230206f7065726174696f6e20646964206e60008201527f6f74207375636365656400000000000000000000000000000000000000000000602082015250565b7f5265656e7472616e637947756172643a207265656e7472616e742063616c6c00600082015250565b7f436c61696d61626c653a2073746f707065640000000000000000000000000000600082015250565b7f45524332303a2064656372656173656420616c6c6f77616e63652062656c6f7760008201527f207a65726f000000000000000000000000000000000000000000000000000000602082015250565b7f45524332303a206d696e7420746f20746865207a65726f206164647265737300600082015250565b61628881615a7b565b811461629357600080fd5b50565b61629f81615a8d565b81146162aa57600080fd5b50565b6162b681615a99565b81146162c157600080fd5b50565b6162cd81615ac3565b81146162d857600080fd5b50565b6162e481615acd565b81146162ef57600080fd5b5056fea26469706673582212205fbb3b197cc9d218bb7365a7455aba7462cdc7610cdcc9b394690fa5bc7e9f9b64736f6c63430008070033",
  "linkReferences": {},
  "deployedLinkReferences": {}
}