{
  "_format": "hh-sol-artifact-1",
  "contractName": "Lif2",
  "sourceName": "contracts/Lif2.sol",
  "abi": [
    {
      "anonymous": false,
      "inputs": [
        {
          "indexed": true,
          "internalType": "address",
          "name": "owner",
          "type": "address"
        },
        {
          "indexed": true,
          "internalType": "address",
          "name": "spender",
          "type": "address"
        },
        {
          "indexed": false,
          "internalType": "uint256",
          "name": "value",
          "type": "uint256"
        }
      ],
      "name": "Approval",
      "type": "event"
    },
    {
      "anonymous": false,
      "inputs": [
        {
          "indexed": true,
          "internalType": "address",
          "name": "holder",
          "type": "address"
        },
        {
          "indexed": false,
          "internalType": "uint256",
          "name": "value",
          "type": "uint256"
        }
      ],
      "name": "Claim",
      "type": "event"
    },
    {
      "anonymous": false,
      "inputs": [
        {
          "indexed": true,
          "internalType": "address",
          "name": "previousOwner",
          "type": "address"
        },
        {
          "indexed": true,
          "internalType": "address",
          "name": "newOwner",
          "type": "address"
        }
      ],
      "name": "OwnershipTransferred",
      "type": "event"
    },
    {
      "anonymous": false,
      "inputs": [
        {
          "indexed": false,
          "internalType": "address",
          "name": "account",
          "type": "address"
        }
      ],
      "name": "Paused",
      "type": "event"
    },
    {
      "anonymous": false,
      "inputs": [
        {
          "indexed": true,
          "internalType": "address",
          "name": "holder",
          "type": "address"
        },
        {
          "indexed": false,
          "internalType": "uint256",
          "name": "value",
          "type": "uint256"
        }
      ],
      "name": "Resurrect",
      "type": "event"
    },
    {
      "anonymous": false,
      "inputs": [
        {
          "indexed": false,
          "internalType": "address",
          "name": "account",
          "type": "address"
        }
      ],
      "name": "Stopped",
      "type": "event"
    },
    {
      "anonymous": false,
      "inputs": [
        {
          "indexed": true,
          "internalType": "address",
          "name": "from",
          "type": "address"
        },
        {
          "indexed": true,
          "internalType": "address",
          "name": "to",
          "type": "address"
        },
        {
          "indexed": false,
          "internalType": "uint256",
          "name": "value",
          "type": "uint256"
        }
      ],
      "name": "Transfer",
      "type": "event"
    },
    {
      "anonymous": false,
      "inputs": [
        {
          "indexed": false,
          "internalType": "address",
          "name": "account",
          "type": "address"
        }
      ],
      "name": "Unpaused",
      "type": "event"
    },
    {
      "inputs": [],
      "name": "DOMAIN_SEPARATOR",
      "outputs": [
        {
          "internalType": "bytes32",
          "name": "",
          "type": "bytes32"
        }
      ],
      "stateMutability": "view",
      "type": "function"
    },
    {
      "inputs": [
        {
          "internalType": "address",
          "name": "owner",
          "type": "address"
        },
        {
          "internalType": "address",
          "name": "spender",
          "type": "address"
        }
      ],
      "name": "allowance",
      "outputs": [
        {
          "internalType": "uint256",
          "name": "",
          "type": "uint256"
        }
      ],
      "stateMutability": "view",
      "type": "function"
    },
    {
      "inputs": [
        {
          "internalType": "address",
          "name": "spender",
          "type": "address"
        },
        {
          "internalType": "uint256",
          "name": "amount",
          "type": "uint256"
        }
      ],
      "name": "approve",
      "outputs": [
        {
          "internalType": "bool",
          "name": "",
          "type": "bool"
        }
      ],
      "stateMutability": "nonpayable",
      "type": "function"
    },
    {
      "inputs": [
        {
          "internalType": "address",
          "name": "account",
          "type": "address"
        }
      ],
      "name": "balanceOf",
      "outputs": [
        {
          "internalType": "uint256",
          "name": "",
          "type": "uint256"
        }
      ],
      "stateMutability": "view",
      "type": "function"
    },
    {
      "inputs": [],
      "name": "claim",
      "outputs": [],
      "stateMutability": "nonpayable",
      "type": "function"
    },
    {
      "inputs": [],
      "name": "decimals",
      "outputs": [
        {
          "internalType": "uint8",
          "name": "",
          "type": "uint8"
        }
      ],
      "stateMutability": "view",
      "type": "function"
    },
    {
      "inputs": [
        {
          "internalType": "address",
          "name": "spender",
          "type": "address"
        },
        {
          "internalType": "uint256",
          "name": "subtractedValue",
          "type": "uint256"
        }
      ],
      "name": "decreaseAllowance",
      "outputs": [
        {
          "internalType": "bool",
          "name": "",
          "type": "bool"
        }
      ],
      "stateMutability": "nonpayable",
      "type": "function"
    },
    {
      "inputs": [
        {
          "internalType": "address",
          "name": "spender",
          "type": "address"
        },
        {
          "internalType": "uint256",
          "name": "addedValue",
          "type": "uint256"
        }
      ],
      "name": "increaseAllowance",
      "outputs": [
        {
          "internalType": "bool",
          "name": "",
          "type": "bool"
        }
      ],
      "stateMutability": "nonpayable",
      "type": "function"
    },
    {
      "inputs": [
        {
          "internalType": "address",
          "name": "tokenAddress_",
          "type": "address"
        }
      ],
      "name": "initialize",
      "outputs": [],
      "stateMutability": "nonpayable",
      "type": "function"
    },
    {
      "inputs": [],
      "name": "name",
      "outputs": [
        {
          "internalType": "string",
          "name": "",
          "type": "string"
        }
      ],
      "stateMutability": "view",
      "type": "function"
    },
    {
      "inputs": [
        {
          "internalType": "address",
          "name": "owner",
          "type": "address"
        }
      ],
      "name": "nonces",
      "outputs": [
        {
          "internalType": "uint256",
          "name": "",
          "type": "uint256"
        }
      ],
      "stateMutability": "view",
      "type": "function"
    },
    {
      "inputs": [],
      "name": "originalLif",
      "outputs": [
        {
          "internalType": "address",
          "name": "",
          "type": "address"
        }
      ],
      "stateMutability": "view",
      "type": "function"
    },
    {
      "inputs": [],
      "name": "owner",
      "outputs": [
        {
          "internalType": "address",
          "name": "",
          "type": "address"
        }
      ],
      "stateMutability": "view",
      "type": "function"
    },
    {
      "inputs": [],
      "name": "pause",
      "outputs": [],
      "stateMutability": "nonpayable",
      "type": "function"
    },
    {
      "inputs": [],
      "name": "paused",
      "outputs": [
        {
          "internalType": "bool",
          "name": "",
          "type": "bool"
        }
      ],
      "stateMutability": "view",
      "type": "function"
    },
    {
      "inputs": [
        {
          "internalType": "address",
          "name": "owner",
          "type": "address"
        },
        {
          "internalType": "address",
          "name": "spender",
          "type": "address"
        },
        {
          "internalType": "uint256",
          "name": "value",
          "type": "uint256"
        },
        {
          "internalType": "uint256",
          "name": "deadline",
          "type": "uint256"
        },
        {
          "internalType": "uint8",
          "name": "v",
          "type": "uint8"
        },
        {
          "internalType": "bytes32",
          "name": "r",
          "type": "bytes32"
        },
        {
          "internalType": "bytes32",
          "name": "s",
          "type": "bytes32"
        }
      ],
      "name": "permit",
      "outputs": [],
      "stateMutability": "nonpayable",
      "type": "function"
    },
    {
      "inputs": [],
      "name": "renounceOwnership",
      "outputs": [],
      "stateMutability": "nonpayable",
      "type": "function"
    },
    {
      "inputs": [],
      "name": "stop",
      "outputs": [],
      "stateMutability": "nonpayable",
      "type": "function"
    },
    {
      "inputs": [],
      "name": "stopped",
      "outputs": [
        {
          "internalType": "bool",
          "name": "",
          "type": "bool"
        }
      ],
      "stateMutability": "view",
      "type": "function"
    },
    {
      "inputs": [],
      "name": "symbol",
      "outputs": [
        {
          "internalType": "string",
          "name": "",
          "type": "string"
        }
      ],
      "stateMutability": "view",
      "type": "function"
    },
    {
      "inputs": [],
      "name": "totalSupply",
      "outputs": [
        {
          "internalType": "uint256",
          "name": "",
          "type": "uint256"
        }
      ],
      "stateMutability": "view",
      "type": "function"
    },
    {
      "inputs": [
        {
          "internalType": "address",
          "name": "recipient",
          "type": "address"
        },
        {
          "internalType": "uint256",
          "name": "amount",
          "type": "uint256"
        }
      ],
      "name": "transfer",
      "outputs": [
        {
          "internalType": "bool",
          "name": "",
          "type": "bool"
        }
      ],
      "stateMutability": "nonpayable",
      "type": "function"
    },
    {
      "inputs": [
        {
          "internalType": "address",
          "name": "sender",
          "type": "address"
        },
        {
          "internalType": "address",
          "name": "recipient",
          "type": "address"
        },
        {
          "internalType": "uint256",
          "name": "amount",
          "type": "uint256"
        }
      ],
      "name": "transferFrom",
      "outputs": [
        {
          "internalType": "bool",
          "name": "",
          "type": "bool"
        }
      ],
      "stateMutability": "nonpayable",
      "type": "function"
    },
    {
      "inputs": [
        {
          "internalType": "address",
          "name": "newOwner",
          "type": "address"
        }
      ],
      "name": "transferOwnership",
      "outputs": [],
      "stateMutability": "nonpayable",
      "type": "function"
    },
    {
      "inputs": [],
      "name": "unpause",
      "outputs": [],
      "stateMutability": "nonpayable",
      "type": "function"
    }
  ],
  "bytecode": "0x608060405234801561001057600080fd5b50612802806100206000396000f3fe608060405234801561001057600080fd5b50600436106101735760003560e01c8063715018a6116100de578063a457c2d711610097578063c4d66de811610071578063c4d66de8146102f1578063d505accf14610304578063dd62ed3e14610317578063f2fde38b1461035057600080fd5b8063a457c2d7146102b9578063a9059cbb146102cc578063c43b1b47146102df57600080fd5b8063715018a61461025657806375f12b211461025e5780637ecebe00146102715780638456cb59146102845780638da5cb5b1461028c57806395d89b41146102b157600080fd5b80633644e515116101305780633644e515146101f757806339509351146101ff5780633f4ba83a146102125780634e71d92d1461021a5780635c975abb1461022257806370a082311461022d57600080fd5b806306fdde031461017857806307da68f514610196578063095ea7b3146101a057806318160ddd146101c357806323b872dd146101d5578063313ce567146101e8575b600080fd5b610180610363565b60405161018d9190612679565b60405180910390f35b61019e6103f5565b005b6101b36101ae3660046125f8565b610432565b604051901515815260200161018d565b6035545b60405190815260200161018d565b6101b36101e3366004612549565b610448565b6040516012815260200161018d565b6101c76104f4565b6101b361020d3660046125f8565b610503565b61019e61053f565b61019e610571565b60655460ff166101b3565b6101c761023b3660046124fb565b6001600160a01b031660009081526033602052604090205490565b61019e61086d565b61016254600160a01b900460ff166101b3565b6101c761027f3660046124fb565b6108a1565b61019e6108c1565b6097546001600160a01b03165b6040516001600160a01b03909116815260200161018d565b6101806108f3565b6101b36102c73660046125f8565b610902565b6101b36102da3660046125f8565b61099b565b610162546001600160a01b0316610299565b61019e6102ff3660046124fb565b6109f6565b61019e610312366004612585565b610aec565b6101c7610325366004612516565b6001600160a01b03918216600090815260346020908152604080832093909416825291909152205490565b61019e61035e3660046124fb565b610c32565b60606036805461037290612781565b80601f016020809104026020016040519081016040528092919081815260200182805461039e90612781565b80156103eb5780601f106103c0576101008083540402835291602001916103eb565b820191906000526020600020905b8154815290600101906020018083116103ce57829003601f168201915b5050505050905090565b6097546001600160a01b031633146104285760405162461bcd60e51b815260040161041f906126fa565b60405180910390fd5b610430610ccd565b565b600061043f338484610d76565b50600192915050565b6000610455848484610e9a565b6001600160a01b0384166000908152603460209081526040808320338452909152902054828110156104da5760405162461bcd60e51b815260206004820152602860248201527f45524332303a207472616e7366657220616d6f756e74206578636565647320616044820152676c6c6f77616e636560c01b606482015260840161041f565b6104e78533858403610d76565b60019150505b9392505050565b60006104fe611075565b905090565b3360008181526034602090815260408083206001600160a01b0387168452909152812054909161043f91859061053a90869061272f565b610d76565b6097546001600160a01b031633146105695760405162461bcd60e51b815260040161041f906126fa565b6104306110f0565b60026101305414156105c55760405162461bcd60e51b815260206004820152601f60248201527f5265656e7472616e637947756172643a207265656e7472616e742063616c6c00604482015260640161041f565b600261013055600033610162546040516370a0823160e01b81526001600160a01b038084166004830152929350600092909116906370a082319060240160206040518083038186803b15801561061a57600080fd5b505afa15801561062e573d6000803e3d6000fd5b505050506040513d601f19601f820116820180604052508101906106529190612644565b9050600081116106a45760405162461bcd60e51b815260206004820152601b60248201527f436c61696d61626c653a206e6f7468696e6720746f20636c61696d0000000000604482015260640161041f565b610162546106bd906001600160a01b031683308461116a565b610162546040516370a0823160e01b81526001600160a01b038481166004830152909116906370a082319060240160206040518083038186803b15801561070357600080fd5b505afa158015610717573d6000803e3d6000fd5b505050506040513d601f19601f8201168201806040525081019061073b9190612644565b156107885760405162461bcd60e51b815260206004820152601d60248201527f436c61696d61626c653a20756e61626c6520746f207472616e73666572000000604482015260640161041f565b610793308383610e9a565b816001600160a01b03167f47cee97cb7acd717b3c0aa1435d004cd5b3c8c57d70dbceb4e4458bbd60e39d4826040516107ce91815260200190565b60405180910390a26001600160a01b0382166000908152610163602052604090205415610863576001600160a01b038216600090815261016360205260408120805491905561081e308483610e9a565b826001600160a01b03167fa065a6bcbaa96b9d220b93617b9a6602d16a15aa84337912c99fc90e04d13cdb8260405161085991815260200190565b60405180910390a2505b5050600161013055565b6097546001600160a01b031633146108975760405162461bcd60e51b815260040161041f906126fa565b61043060006111c4565b6001600160a01b038116600090815260fd60205260408120545b92915050565b6097546001600160a01b031633146108eb5760405162461bcd60e51b815260040161041f906126fa565b610430611216565b60606037805461037290612781565b3360009081526034602090815260408083206001600160a01b0386168452909152812054828110156109845760405162461bcd60e51b815260206004820152602560248201527f45524332303a2064656372656173656420616c6c6f77616e63652062656c6f77604482015264207a65726f60d81b606482015260840161041f565b6109913385858403610d76565b5060019392505050565b6000823b156109ec5760405162461bcd60e51b815260206004820152601f60248201527f45524332303a207472616e7366657220746f2074686520636f6e747261637400604482015260640161041f565b6104ed8383611291565b600054610100900460ff1680610a0f575060005460ff16155b610a2b5760405162461bcd60e51b815260040161041f906126ac565b600054610100900460ff16158015610a4d576000805461ffff19166101011790555b610a93604051806040016040528060098152602001682634b3102a37b5b2b760b91b815250604051806040016040528060038152602001622624a360e91b81525061129e565b610a9b61131e565b610aa3611399565b610acd604051806040016040528060098152602001682634b3102a37b5b2b760b91b815250611400565b610ad68261148b565b8015610ae8576000805461ff00191690555b5050565b83421115610b3c5760405162461bcd60e51b815260206004820152601d60248201527f45524332305065726d69743a206578706972656420646561646c696e65000000604482015260640161041f565b600060fe54888888610b4d8c6119b3565b6040805160208101969096526001600160a01b0394851690860152929091166060840152608083015260a082015260c0810186905260e0016040516020818303038152906040528051906020012090506000610ba8826119db565b90506000610bb882878787611a29565b9050896001600160a01b0316816001600160a01b031614610c1b5760405162461bcd60e51b815260206004820152601e60248201527f45524332305065726d69743a20696e76616c6964207369676e61747572650000604482015260640161041f565b610c268a8a8a610d76565b50505050505050505050565b6097546001600160a01b03163314610c5c5760405162461bcd60e51b815260040161041f906126fa565b6001600160a01b038116610cc15760405162461bcd60e51b815260206004820152602660248201527f4f776e61626c653a206e6577206f776e657220697320746865207a65726f206160448201526564647265737360d01b606482015260840161041f565b610cca816111c4565b50565b61016254600160a01b900460ff1615610d1d5760405162461bcd60e51b815260206004820152601260248201527110db185a5b58589b194e881cdd1bdc1c195960721b604482015260640161041f565b610162805460ff60a01b1916600160a01b1790557f55c4adf1f68f084b809304657594a92ba835ada8d3b5340955bf05746723c05b610d593390565b6040516001600160a01b03909116815260200160405180910390a1565b6001600160a01b038316610dd85760405162461bcd60e51b8152602060048201526024808201527f45524332303a20617070726f76652066726f6d20746865207a65726f206164646044820152637265737360e01b606482015260840161041f565b6001600160a01b038216610e395760405162461bcd60e51b815260206004820152602260248201527f45524332303a20617070726f766520746f20746865207a65726f206164647265604482015261737360f01b606482015260840161041f565b6001600160a01b0383811660008181526034602090815260408083209487168084529482529182902085905590518481527f8c5be1e5ebec7d5bd14f71427d1e84f3dd0314c0f7b2291e5b200ac8c7c3b925910160405180910390a3505050565b6001600160a01b038316610efe5760405162461bcd60e51b815260206004820152602560248201527f45524332303a207472616e736665722066726f6d20746865207a65726f206164604482015264647265737360d81b606482015260840161041f565b6001600160a01b038216610f605760405162461bcd60e51b815260206004820152602360248201527f45524332303a207472616e7366657220746f20746865207a65726f206164647260448201526265737360e81b606482015260840161041f565b610f6b838383611a51565b6001600160a01b03831660009081526033602052604090205481811015610fe35760405162461bcd60e51b815260206004820152602660248201527f45524332303a207472616e7366657220616d6f756e7420657863656564732062604482015265616c616e636560d01b606482015260840161041f565b6001600160a01b0380851660009081526033602052604080822085850390559185168152908120805484929061101a90849061272f565b92505081905550826001600160a01b0316846001600160a01b03167fddf252ad1be2c89b69c2b068fc378daa952ba7f163c4a11628f55a4df523b3ef8460405161106691815260200190565b60405180910390a35b50505050565b60006104fe7f8b73c3c69bb8fe3d512ecc4cf759cc79239f7b179b0ffacaa9a75d522b39400f6110a460c95490565b60ca546040805160208101859052908101839052606081018290524660808201523060a082015260009060c0016040516020818303038152906040528051906020012090509392505050565b60655460ff166111395760405162461bcd60e51b815260206004820152601460248201527314185d5cd8589b194e881b9bdd081c185d5cd95960621b604482015260640161041f565b6065805460ff191690557f5db9ee0a495bf2e6ff9c91a7834c1ba4fdd244a5e8aa4e537bd38aeae4b073aa33610d59565b604080516001600160a01b0385811660248301528416604482015260648082018490528251808303909101815260849091019091526020810180516001600160e01b03166323b872dd60e01b17905261106f908590611a97565b609780546001600160a01b038381166001600160a01b0319831681179093556040519116919082907f8be0079c531659141344cd1fd0a4f28419497f9722a3daafe3b4186f6b6457e090600090a35050565b60655460ff161561125c5760405162461bcd60e51b815260206004820152601060248201526f14185d5cd8589b194e881c185d5cd95960821b604482015260640161041f565b6065805460ff191660011790557f62e78cea01bee320cd4e420270b5ea74000d11b0c9f74754ebdbfc544b05a258610d593390565b600061043f338484610e9a565b600054610100900460ff16806112b7575060005460ff16155b6112d35760405162461bcd60e51b815260040161041f906126ac565b600054610100900460ff161580156112f5576000805461ffff19166101011790555b6112fd611b69565b6113078383611bd3565b8015611319576000805461ff00191690555b505050565b600054610100900460ff1680611337575060005460ff16155b6113535760405162461bcd60e51b815260040161041f906126ac565b600054610100900460ff16158015611375576000805461ffff19166101011790555b61137d611b69565b611385611c68565b8015610cca576000805461ff001916905550565b600054610100900460ff16806113b2575060005460ff16155b6113ce5760405162461bcd60e51b815260040161041f906126ac565b600054610100900460ff161580156113f0576000805461ffff19166101011790555b6113f8611b69565b611385611cdd565b600054610100900460ff1680611419575060005460ff16155b6114355760405162461bcd60e51b815260040161041f906126ac565b600054610100900460ff16158015611457576000805461ffff19166101011790555b61145f611b69565b61148282604051806040016040528060018152602001603160f81b815250611d3d565b610ad682611dc7565b600054610100900460ff16806114a4575060005460ff16155b6114c05760405162461bcd60e51b815260040161041f906126ac565b600054610100900460ff161580156114e2576000805461ffff19166101011790555b6001600160a01b0382166115385760405162461bcd60e51b815260206004820181905260248201527f436c61696d61626c653a20696e76616c696420746f6b656e2061646472657373604482015260640161041f565b61016280546001600160a81b0319166001600160a01b03841617905561155c611e57565b6115ec3061016260009054906101000a90046001600160a01b03166001600160a01b03166318160ddd6040518163ffffffff1660e01b815260040160206040518083038186803b1580156115af57600080fd5b505afa1580156115c3573d6000803e3d6000fd5b505050506040513d601f19601f820116820180604052508101906115e79190612644565b611eb6565b739067ae747976631d6194311f6cf6fd83a561b0c960009081526101636020527f9cf969c240a3d863413abb2b5686e082f605aa5d13c523f8c33d57afb6ca54a48054690214e2a7766d89d80000929061164790849061272f565b909155505073415df4ef8f2e4afaebd99ec1d49b05a220ac367360009081526101636020527f6e9a2f9d3764c94fcda89a7be83401543628f8e0541b31bfb0325316b83c45cc8054690b02ecf74c31387fedf992906116a790849061272f565b90915550507377e4588685744cdbddbf677860b42a3c28e166dd60009081526101636020527f3b236c3cc8b75323fcfda9ae626dd9266c58d27d6f7f28b849a0591d9160686880546828b6c5bb47a018cc00929061170690849061272f565b909155505073b91e2071762e2825d3ec7513304b7f833be32d4860009081526101636020527ff64db07b09ddd9f8a7cf0b6273857c1d5fb68b81bb60eba9d23325ed3456f9cd8054612710929061175e90849061272f565b90915550507372ba03f175420890d18423500f0c6b1f2b3e821d60009081526101636020527fa82e8f5d2389b5f5b01d36ab35f251a2b7039e0251d7d8bdff94656b7168384180546901117d708271c5b4000092906117be90849061272f565b909155505073692306857d17a8f31bb5feb17cfe765773487e6660009081526101636020527f9892767dcc6f39d45a05036903f5a396e2cad2bdc90e81ea1335875b137053348054680a14c14b39cdf78000929061181d90849061272f565b909155505073a7f660812022155ada962f54d2c289c5592f518a60009081526101636020527fd9581a4c94f6917ea7d40cf8ad0656f6290baee0d53733571f39d912f00891bf8054681b1ae4d6e2ef500000929061187c90849061272f565b9091555050738adbf5f4f80319cfbe8d49976aad9aacc158b4b860009081526101636020527f17b032d0e156f8cce42129fd4895a15ad617683098798c4acf50528787337e8f805468a55740b8684d68000092906118db90849061272f565b90915550507377e4588685744cdbddbf677860b42a3c28e166dd60009081526101636020527f3b236c3cc8b75323fcfda9ae626dd9266c58d27d6f7f28b849a0591d91606868805468022b1c8c1227a00000929061193a90849061272f565b90915550507377928bbe911befe4bd4e5d6a6c6d1b7ca58eab6e60009081526101636020527f3e9583b01bddc49c7ce2d1e8ec749f36f847b8571f72e69edbd8afd183ad17bb8054681043561a8829300000929061199990849061272f565b90915550508015610ae8576000805461ff00191690555050565b6001600160a01b038116600090815260fd602052604090208054600181018255905b50919050565b60006108bb6119e8611075565b8360405161190160f01b6020820152602281018390526042810182905260009060620160405160208183030381529060405280519060200120905092915050565b6000806000611a3a87878787611ec0565b91509150611a4781611fad565b5095945050505050565b60655460ff16156113195760405162461bcd60e51b815260206004820152601060248201526f14185d5cd8589b194e881c185d5cd95960821b604482015260640161041f565b6000611aec826040518060400160405280602081526020017f5361666545524332303a206c6f772d6c6576656c2063616c6c206661696c6564815250856001600160a01b03166121689092919063ffffffff16565b8051909150156113195780806020019051810190611b0a9190612622565b6113195760405162461bcd60e51b815260206004820152602a60248201527f5361666545524332303a204552433230206f7065726174696f6e20646964206e6044820152691bdd081cdd58d8d9595960b21b606482015260840161041f565b600054610100900460ff1680611b82575060005460ff16155b611b9e5760405162461bcd60e51b815260040161041f906126ac565b600054610100900460ff16158015611385576000805461ffff19166101011790558015610cca576000805461ff001916905550565b600054610100900460ff1680611bec575060005460ff16155b611c085760405162461bcd60e51b815260040161041f906126ac565b600054610100900460ff16158015611c2a576000805461ffff19166101011790555b8251611c3d906036906020860190612446565b508151611c51906037906020850190612446565b508015611319576000805461ff0019169055505050565b600054610100900460ff1680611c81575060005460ff16155b611c9d5760405162461bcd60e51b815260040161041f906126ac565b600054610100900460ff16158015611cbf576000805461ffff19166101011790555b6065805460ff191690558015610cca576000805461ff001916905550565b600054610100900460ff1680611cf6575060005460ff16155b611d125760405162461bcd60e51b815260040161041f906126ac565b600054610100900460ff16158015611d34576000805461ffff19166101011790555b611385336111c4565b600054610100900460ff1680611d56575060005460ff16155b611d725760405162461bcd60e51b815260040161041f906126ac565b600054610100900460ff16158015611d94576000805461ffff19166101011790555b825160208085019190912083519184019190912060c99190915560ca558015611319576000805461ff0019169055505050565b600054610100900460ff1680611de0575060005460ff16155b611dfc5760405162461bcd60e51b815260040161041f906126ac565b600054610100900460ff16158015611e1e576000805461ffff19166101011790555b7f6e71edae12b1b97f4d1f60370fef10105fa2faae0126114a169c64845d6126c960fe558015610ae8576000805461ff00191690555050565b600054610100900460ff1680611e70575060005460ff16155b611e8c5760405162461bcd60e51b815260040161041f906126ac565b600054610100900460ff16158015611eae576000805461ffff19166101011790555b61138561217f565b610ae882826121f0565b6000807f7fffffffffffffffffffffffffffffff5d576e7357a4501ddfe92f46681b20a0831115611ef75750600090506003611fa4565b8460ff16601b14158015611f0f57508460ff16601c14155b15611f205750600090506004611fa4565b6040805160008082526020820180845289905260ff881692820192909252606081018690526080810185905260019060a0016020604051602081039080840390855afa158015611f74573d6000803e3d6000fd5b5050604051601f1901519150506001600160a01b038116611f9d57600060019250925050611fa4565b9150600090505b94509492505050565b6000816004811115611fc157611fc16127b6565b1415611fca5750565b6001816004811115611fde57611fde6127b6565b141561202c5760405162461bcd60e51b815260206004820152601860248201527f45434453413a20696e76616c6964207369676e61747572650000000000000000604482015260640161041f565b6002816004811115612040576120406127b6565b141561208e5760405162461bcd60e51b815260206004820152601f60248201527f45434453413a20696e76616c6964207369676e6174757265206c656e67746800604482015260640161041f565b60038160048111156120a2576120a26127b6565b14156120fb5760405162461bcd60e51b815260206004820152602260248201527f45434453413a20696e76616c6964207369676e6174757265202773272076616c604482015261756560f01b606482015260840161041f565b600481600481111561210f5761210f6127b6565b1415610cca5760405162461bcd60e51b815260206004820152602260248201527f45434453413a20696e76616c6964207369676e6174757265202776272076616c604482015261756560f01b606482015260840161041f565b606061217784846000856121fa565b949350505050565b600054610100900460ff1680612198575060005460ff16155b6121b45760405162461bcd60e51b815260040161041f906126ac565b600054610100900460ff161580156121d6576000805461ffff19166101011790555b6001610130558015610cca576000805461ff001916905550565b610ae88282612322565b60608247101561225b5760405162461bcd60e51b815260206004820152602660248201527f416464726573733a20696e73756666696369656e742062616c616e636520666f6044820152651c8818d85b1b60d21b606482015260840161041f565b843b6122a95760405162461bcd60e51b815260206004820152601d60248201527f416464726573733a2063616c6c20746f206e6f6e2d636f6e7472616374000000604482015260640161041f565b600080866001600160a01b031685876040516122c5919061265d565b60006040518083038185875af1925050503d8060008114612302576040519150601f19603f3d011682016040523d82523d6000602084013e612307565b606091505b509150915061231782828661240d565b979650505050505050565b6001600160a01b0382166123785760405162461bcd60e51b815260206004820152601f60248201527f45524332303a206d696e7420746f20746865207a65726f206164647265737300604482015260640161041f565b61238460008383611a51565b8060356000828254612396919061272f565b90915550506001600160a01b038216600090815260336020526040812080548392906123c390849061272f565b90915550506040518181526001600160a01b038316906000907fddf252ad1be2c89b69c2b068fc378daa952ba7f163c4a11628f55a4df523b3ef9060200160405180910390a35050565b6060831561241c5750816104ed565b82511561242c5782518084602001fd5b8160405162461bcd60e51b815260040161041f9190612679565b82805461245290612781565b90600052602060002090601f01602090048101928261247457600085556124ba565b82601f1061248d57805160ff19168380011785556124ba565b828001600101855582156124ba579182015b828111156124ba57825182559160200191906001019061249f565b506124c69291506124ca565b5090565b5b808211156124c657600081556001016124cb565b80356001600160a01b03811681146124f657600080fd5b919050565b60006020828403121561250d57600080fd5b6104ed826124df565b6000806040838503121561252957600080fd5b612532836124df565b9150612540602084016124df565b90509250929050565b60008060006060848603121561255e57600080fd5b612567846124df565b9250612575602085016124df565b9150604084013590509250925092565b600080600080600080600060e0888a0312156125a057600080fd5b6125a9886124df565b96506125b7602089016124df565b95506040880135945060608801359350608088013560ff811681146125db57600080fd5b9699959850939692959460a0840135945060c09093013592915050565b6000806040838503121561260b57600080fd5b612614836124df565b946020939093013593505050565b60006020828403121561263457600080fd5b815180151581146104ed57600080fd5b60006020828403121561265657600080fd5b5051919050565b6000825161266f818460208701612755565b9190910192915050565b6020815260008251806020840152612698816040850160208701612755565b601f01601f19169190910160400192915050565b6020808252602e908201527f496e697469616c697a61626c653a20636f6e747261637420697320616c72656160408201526d191e481a5b9a5d1a585b1a5e995960921b606082015260800190565b6020808252818101527f4f776e61626c653a2063616c6c6572206973206e6f7420746865206f776e6572604082015260600190565b6000821982111561275057634e487b7160e01b600052601160045260246000fd5b500190565b60005b83811015612770578181015183820152602001612758565b8381111561106f5750506000910152565b600181811c9082168061279557607f821691505b602082108114156119d557634e487b7160e01b600052602260045260246000fd5b634e487b7160e01b600052602160045260246000fdfea2646970667358221220ed81ed37b94c506aeb4eac7ec1c732b1df8d1ae309a39576eed9578fcfcdc19a64736f6c63430008070033",
  "linkReferences": {},
  "deployedLinkReferences": {}
}