{
  "_format": "hh-sol-artifact-1",
  "contractName": "Lif2UpgradeabilityTest",
  "sourceName": "contracts/test/Lif2UpgradeabilityTest.sol",
  "abi": [
    {
      "anonymous": false,
      "inputs": [
        {
          "indexed": true,
          "internalType": "address",
          "name": "owner",
          "type": "address"
        },
        {
          "indexed": true,
          "internalType": "address",
          "name": "spender",
          "type": "address"
        },
        {
          "indexed": false,
          "internalType": "uint256",
          "name": "value",
          "type": "uint256"
        }
      ],
      "name": "Approval",
      "type": "event"
    },
    {
      "anonymous": false,
      "inputs": [
        {
          "indexed": true,
          "internalType": "address",
          "name": "holder",
          "type": "address"
        },
        {
          "indexed": false,
          "internalType": "uint256",
          "name": "value",
          "type": "uint256"
        }
      ],
      "name": "Claim",
      "type": "event"
    },
    {
      "anonymous": false,
      "inputs": [
        {
          "indexed": true,
          "internalType": "address",
          "name": "previousOwner",
          "type": "address"
        },
        {
          "indexed": true,
          "internalType": "address",
          "name": "newOwner",
          "type": "address"
        }
      ],
      "name": "OwnershipTransferred",
      "type": "event"
    },
    {
      "anonymous": false,
      "inputs": [
        {
          "indexed": false,
          "internalType": "address",
          "name": "account",
          "type": "address"
        }
      ],
      "name": "Paused",
      "type": "event"
    },
    {
      "anonymous": false,
      "inputs": [
        {
          "indexed": true,
          "internalType": "address",
          "name": "holder",
          "type": "address"
        },
        {
          "indexed": false,
          "internalType": "uint256",
          "name": "value",
          "type": "uint256"
        }
      ],
      "name": "Resurrect",
      "type": "event"
    },
    {
      "anonymous": false,
      "inputs": [
        {
          "indexed": false,
          "internalType": "address",
          "name": "account",
          "type": "address"
        }
      ],
      "name": "Started",
      "type": "event"
    },
    {
      "anonymous": false,
      "inputs": [
        {
          "indexed": false,
          "internalType": "address",
          "name": "account",
          "type": "address"
        }
      ],
      "name": "Stopped",
      "type": "event"
    },
    {
      "anonymous": false,
      "inputs": [
        {
          "indexed": true,
          "internalType": "address",
          "name": "from",
          "type": "address"
        },
        {
          "indexed": true,
          "internalType": "address",
          "name": "to",
          "type": "address"
        },
        {
          "indexed": false,
          "internalType": "uint256",
          "name": "value",
          "type": "uint256"
        }
      ],
      "name": "Transfer",
      "type": "event"
    },
    {
      "anonymous": false,
      "inputs": [
        {
          "indexed": false,
          "internalType": "address",
          "name": "account",
          "type": "address"
        }
      ],
      "name": "Unpaused",
      "type": "event"
    },
    {
      "inputs": [],
      "name": "DOMAIN_SEPARATOR",
      "outputs": [
        {
          "internalType": "bytes32",
          "name": "",
          "type": "bytes32"
        }
      ],
      "stateMutability": "view",
      "type": "function"
    },
    {
      "inputs": [
        {
          "internalType": "address",
          "name": "owner",
          "type": "address"
        },
        {
          "internalType": "address",
          "name": "spender",
          "type": "address"
        }
      ],
      "name": "allowance",
      "outputs": [
        {
          "internalType": "uint256",
          "name": "",
          "type": "uint256"
        }
      ],
      "stateMutability": "view",
      "type": "function"
    },
    {
      "inputs": [
        {
          "internalType": "address",
          "name": "spender",
          "type": "address"
        },
        {
          "internalType": "uint256",
          "name": "amount",
          "type": "uint256"
        }
      ],
      "name": "approve",
      "outputs": [
        {
          "internalType": "bool",
          "name": "",
          "type": "bool"
        }
      ],
      "stateMutability": "nonpayable",
      "type": "function"
    },
    {
      "inputs": [
        {
          "internalType": "address",
          "name": "account",
          "type": "address"
        }
      ],
      "name": "balanceOf",
      "outputs": [
        {
          "internalType": "uint256",
          "name": "",
          "type": "uint256"
        }
      ],
      "stateMutability": "view",
      "type": "function"
    },
    {
      "inputs": [],
      "name": "claim",
      "outputs": [],
      "stateMutability": "nonpayable",
      "type": "function"
    },
    {
      "inputs": [],
      "name": "decimals",
      "outputs": [
        {
          "internalType": "uint8",
          "name": "",
          "type": "uint8"
        }
      ],
      "stateMutability": "view",
      "type": "function"
    },
    {
      "inputs": [
        {
          "internalType": "address",
          "name": "spender",
          "type": "address"
        },
        {
          "internalType": "uint256",
          "name": "subtractedValue",
          "type": "uint256"
        }
      ],
      "name": "decreaseAllowance",
      "outputs": [
        {
          "internalType": "bool",
          "name": "",
          "type": "bool"
        }
      ],
      "stateMutability": "nonpayable",
      "type": "function"
    },
    {
      "inputs": [
        {
          "internalType": "address",
          "name": "spender",
          "type": "address"
        },
        {
          "internalType": "uint256",
          "name": "addedValue",
          "type": "uint256"
        }
      ],
      "name": "increaseAllowance",
      "outputs": [
        {
          "internalType": "bool",
          "name": "",
          "type": "bool"
        }
      ],
      "stateMutability": "nonpayable",
      "type": "function"
    },
    {
      "inputs": [
        {
          "internalType": "address",
          "name": "tokenAddress_",
          "type": "address"
        }
      ],
      "name": "initialize",
      "outputs": [],
      "stateMutability": "nonpayable",
      "type": "function"
    },
    {
      "inputs": [],
      "name": "name",
      "outputs": [
        {
          "internalType": "string",
          "name": "",
          "type": "string"
        }
      ],
      "stateMutability": "view",
      "type": "function"
    },
    {
      "inputs": [],
      "name": "newFunction",
      "outputs": [
        {
          "internalType": "bool",
          "name": "",
          "type": "bool"
        }
      ],
      "stateMutability": "pure",
      "type": "function"
    },
    {
      "inputs": [
        {
          "internalType": "address",
          "name": "owner",
          "type": "address"
        }
      ],
      "name": "nonces",
      "outputs": [
        {
          "internalType": "uint256",
          "name": "",
          "type": "uint256"
        }
      ],
      "stateMutability": "view",
      "type": "function"
    },
    {
      "inputs": [],
      "name": "originalLif",
      "outputs": [
        {
          "internalType": "address",
          "name": "",
          "type": "address"
        }
      ],
      "stateMutability": "view",
      "type": "function"
    },
    {
      "inputs": [],
      "name": "owner",
      "outputs": [
        {
          "internalType": "address",
          "name": "",
          "type": "address"
        }
      ],
      "stateMutability": "view",
      "type": "function"
    },
    {
      "inputs": [],
      "name": "pause",
      "outputs": [],
      "stateMutability": "nonpayable",
      "type": "function"
    },
    {
      "inputs": [],
      "name": "paused",
      "outputs": [
        {
          "internalType": "bool",
          "name": "",
          "type": "bool"
        }
      ],
      "stateMutability": "view",
      "type": "function"
    },
    {
      "inputs": [
        {
          "internalType": "address",
          "name": "owner",
          "type": "address"
        },
        {
          "internalType": "address",
          "name": "spender",
          "type": "address"
        },
        {
          "internalType": "uint256",
          "name": "value",
          "type": "uint256"
        },
        {
          "internalType": "uint256",
          "name": "deadline",
          "type": "uint256"
        },
        {
          "internalType": "uint8",
          "name": "v",
          "type": "uint8"
        },
        {
          "internalType": "bytes32",
          "name": "r",
          "type": "bytes32"
        },
        {
          "internalType": "bytes32",
          "name": "s",
          "type": "bytes32"
        }
      ],
      "name": "permit",
      "outputs": [],
      "stateMutability": "nonpayable",
      "type": "function"
    },
    {
      "inputs": [],
      "name": "renounceOwnership",
      "outputs": [],
      "stateMutability": "nonpayable",
      "type": "function"
    },
    {
      "inputs": [],
      "name": "start",
      "outputs": [],
      "stateMutability": "nonpayable",
      "type": "function"
    },
    {
      "inputs": [],
      "name": "stop",
      "outputs": [],
      "stateMutability": "nonpayable",
      "type": "function"
    },
    {
      "inputs": [],
      "name": "stopped",
      "outputs": [
        {
          "internalType": "bool",
          "name": "",
          "type": "bool"
        }
      ],
      "stateMutability": "view",
      "type": "function"
    },
    {
      "inputs": [],
      "name": "symbol",
      "outputs": [
        {
          "internalType": "string",
          "name": "",
          "type": "string"
        }
      ],
      "stateMutability": "view",
      "type": "function"
    },
    {
      "inputs": [],
      "name": "totalSupply",
      "outputs": [
        {
          "internalType": "uint256",
          "name": "",
          "type": "uint256"
        }
      ],
      "stateMutability": "view",
      "type": "function"
    },
    {
      "inputs": [
        {
          "internalType": "address",
          "name": "recipient",
          "type": "address"
        },
        {
          "internalType": "uint256",
          "name": "amount",
          "type": "uint256"
        }
      ],
      "name": "transfer",
      "outputs": [
        {
          "internalType": "bool",
          "name": "",
          "type": "bool"
        }
      ],
      "stateMutability": "nonpayable",
      "type": "function"
    },
    {
      "inputs": [
        {
          "internalType": "address",
          "name": "sender",
          "type": "address"
        },
        {
          "internalType": "address",
          "name": "recipient",
          "type": "address"
        },
        {
          "internalType": "uint256",
          "name": "amount",
          "type": "uint256"
        }
      ],
      "name": "transferFrom",
      "outputs": [
        {
          "internalType": "bool",
          "name": "",
          "type": "bool"
        }
      ],
      "stateMutability": "nonpayable",
      "type": "function"
    },
    {
      "inputs": [
        {
          "internalType": "address",
          "name": "newOwner",
          "type": "address"
        }
      ],
      "name": "transferOwnership",
      "outputs": [],
      "stateMutability": "nonpayable",
      "type": "function"
    },
    {
      "inputs": [],
      "name": "unpause",
      "outputs": [],
      "stateMutability": "nonpayable",
      "type": "function"
    }
  ],
  "bytecode": "0x608060405234801561001057600080fd5b506126c3806100206000396000f3fe608060405234801561001057600080fd5b50600436106101a95760003560e01c8063715018a6116100f9578063a9059cbb11610097578063c4d66de811610071578063c4d66de814610336578063d505accf14610349578063dd62ed3e1461035c578063f2fde38b1461039557600080fd5b8063a9059cbb14610309578063be9a65551461031c578063c43b1b471461032457600080fd5b80638456cb59116100d35780638456cb59146102c15780638da5cb5b146102c957806395d89b41146102ee578063a457c2d7146102f657600080fd5b8063715018a61461029357806375f12b211461029b5780637ecebe00146102ae57600080fd5b8063313ce567116101665780633f4ba83a116101405780633f4ba83a1461024f5780634e71d92d146102575780635c975abb1461025f57806370a082311461026a57600080fd5b8063313ce567146102255780633644e51514610234578063395093511461023c57600080fd5b806306fdde03146101ae57806307da68f5146101cc578063095ea7b3146101d657806318160ddd146101f95780631b28d63e1461020b57806323b872dd14610212575b600080fd5b6101b66103a8565b6040516101c3919061253a565b60405180910390f35b6101d461043a565b005b6101e96101e43660046124b9565b610477565b60405190151581526020016101c3565b6035545b6040519081526020016101c3565b60016101e9565b6101e961022036600461240a565b61048d565b604051601281526020016101c3565b6101fd610539565b6101e961024a3660046124b9565b610548565b6101d4610584565b6101d46105b6565b60655460ff166101e9565b6101fd6102783660046123bc565b6001600160a01b031660009081526033602052604090205490565b6101d46108af565b61016254600160a01b900460ff166101e9565b6101fd6102bc3660046123bc565b6108e3565b6101d4610903565b6097546001600160a01b03165b6040516001600160a01b0390911681526020016101c3565b6101b6610935565b6101e96103043660046124b9565b610944565b6101e96103173660046124b9565b6109dd565b6101d4610a38565b610162546001600160a01b03166102d6565b6101d46103443660046123bc565b610a6a565b6101d4610357366004612446565b610b5e565b6101fd61036a3660046123d7565b6001600160a01b03918216600090815260346020908152604080832093909416825291909152205490565b6101d46103a33660046123bc565b610ca4565b6060603680546103b790612642565b80601f01602080910402602001604051908101604052809291908181526020018280546103e390612642565b80156104305780601f1061040557610100808354040283529160200191610430565b820191906000526020600020905b81548152906001019060200180831161041357829003601f168201915b5050505050905090565b6097546001600160a01b0316331461046d5760405162461bcd60e51b8152600401610464906125bb565b60405180910390fd5b610475610d3f565b565b6000610484338484610de8565b50600192915050565b600061049a848484610f0c565b6001600160a01b03841660009081526034602090815260408083203384529091529020548281101561051f5760405162461bcd60e51b815260206004820152602860248201527f45524332303a207472616e7366657220616d6f756e74206578636565647320616044820152676c6c6f77616e636560c01b6064820152608401610464565b61052c8533858403610de8565b60019150505b9392505050565b60006105436110e7565b905090565b3360008181526034602090815260408083206001600160a01b0387168452909152812054909161048491859061057f9086906125f0565b610de8565b6097546001600160a01b031633146105ae5760405162461bcd60e51b8152600401610464906125bb565b610475611162565b600261013054141561060a5760405162461bcd60e51b815260206004820152601f60248201527f5265656e7472616e637947756172643a207265656e7472616e742063616c6c006044820152606401610464565b600261013055600033610162546040516370a0823160e01b81526001600160a01b038084166004830152929350600092909116906370a082319060240160206040518083038186803b15801561065f57600080fd5b505afa158015610673573d6000803e3d6000fd5b505050506040513d601f19601f820116820180604052508101906106979190612505565b9050600081116106e95760405162461bcd60e51b815260206004820152601b60248201527f436c61696d61626c653a206e6f7468696e6720746f20636c61696d00000000006044820152606401610464565b61016254610702906001600160a01b03168330846111dc565b610162546040516370a0823160e01b81526001600160a01b038481166004830152909116906370a082319060240160206040518083038186803b15801561074857600080fd5b505afa15801561075c573d6000803e3d6000fd5b505050506040513d601f19601f820116820180604052508101906107809190612505565b156107cd5760405162461bcd60e51b815260206004820152601d60248201527f436c61696d61626c653a20756e61626c6520746f207472616e736665720000006044820152606401610464565b6107d8308383610f0c565b816001600160a01b03167f47cee97cb7acd717b3c0aa1435d004cd5b3c8c57d70dbceb4e4458bbd60e39d48260405161081391815260200190565b60405180910390a26001600160a01b0382166000908152610163602052604090205480156108a4576001600160a01b03831660009081526101636020526040812055610860308483610f0c565b826001600160a01b03167fa065a6bcbaa96b9d220b93617b9a6602d16a15aa84337912c99fc90e04d13cdb8260405161089b91815260200190565b60405180910390a25b505060016101305550565b6097546001600160a01b031633146108d95760405162461bcd60e51b8152600401610464906125bb565b6104756000611236565b6001600160a01b038116600090815260fd60205260408120545b92915050565b6097546001600160a01b0316331461092d5760405162461bcd60e51b8152600401610464906125bb565b610475611288565b6060603780546103b790612642565b3360009081526034602090815260408083206001600160a01b0386168452909152812054828110156109c65760405162461bcd60e51b815260206004820152602560248201527f45524332303a2064656372656173656420616c6c6f77616e63652062656c6f77604482015264207a65726f60d81b6064820152608401610464565b6109d33385858403610de8565b5060019392505050565b6000823b15610a2e5760405162461bcd60e51b815260206004820152601f60248201527f45524332303a207472616e7366657220746f2074686520636f6e7472616374006044820152606401610464565b6105328383611303565b6097546001600160a01b03163314610a625760405162461bcd60e51b8152600401610464906125bb565b610475611310565b600054610100900460ff1680610a83575060005460ff16155b610a9f5760405162461bcd60e51b81526004016104649061256d565b600054610100900460ff16158015610ac1576000805461ffff19166101011790555b610b06604051806040016040528060088152602001672634b32a37b5b2b760c11b815250604051806040016040528060038152602001622624a360e91b815250611394565b610b0e611414565b610b1661148f565b610b3f604051806040016040528060088152602001672634b32a37b5b2b760c11b8152506114f6565b610b4882611581565b8015610b5a576000805461ff00191690555b5050565b83421115610bae5760405162461bcd60e51b815260206004820152601d60248201527f45524332305065726d69743a206578706972656420646561646c696e650000006044820152606401610464565b600060fe54888888610bbf8c6116ea565b6040805160208101969096526001600160a01b0394851690860152929091166060840152608083015260a082015260c0810186905260e0016040516020818303038152906040528051906020012090506000610c1a82611712565b90506000610c2a82878787611760565b9050896001600160a01b0316816001600160a01b031614610c8d5760405162461bcd60e51b815260206004820152601e60248201527f45524332305065726d69743a20696e76616c6964207369676e617475726500006044820152606401610464565b610c988a8a8a610de8565b50505050505050505050565b6097546001600160a01b03163314610cce5760405162461bcd60e51b8152600401610464906125bb565b6001600160a01b038116610d335760405162461bcd60e51b815260206004820152602660248201527f4f776e61626c653a206e6577206f776e657220697320746865207a65726f206160448201526564647265737360d01b6064820152608401610464565b610d3c81611236565b50565b61016254600160a01b900460ff1615610d8f5760405162461bcd60e51b815260206004820152601260248201527110db185a5b58589b194e881cdd1bdc1c195960721b6044820152606401610464565b610162805460ff60a01b1916600160a01b1790557f55c4adf1f68f084b809304657594a92ba835ada8d3b5340955bf05746723c05b610dcb3390565b6040516001600160a01b03909116815260200160405180910390a1565b6001600160a01b038316610e4a5760405162461bcd60e51b8152602060048201526024808201527f45524332303a20617070726f76652066726f6d20746865207a65726f206164646044820152637265737360e01b6064820152608401610464565b6001600160a01b038216610eab5760405162461bcd60e51b815260206004820152602260248201527f45524332303a20617070726f766520746f20746865207a65726f206164647265604482015261737360f01b6064820152608401610464565b6001600160a01b0383811660008181526034602090815260408083209487168084529482529182902085905590518481527f8c5be1e5ebec7d5bd14f71427d1e84f3dd0314c0f7b2291e5b200ac8c7c3b925910160405180910390a3505050565b6001600160a01b038316610f705760405162461bcd60e51b815260206004820152602560248201527f45524332303a207472616e736665722066726f6d20746865207a65726f206164604482015264647265737360d81b6064820152608401610464565b6001600160a01b038216610fd25760405162461bcd60e51b815260206004820152602360248201527f45524332303a207472616e7366657220746f20746865207a65726f206164647260448201526265737360e81b6064820152608401610464565b610fdd838383611788565b6001600160a01b038316600090815260336020526040902054818110156110555760405162461bcd60e51b815260206004820152602660248201527f45524332303a207472616e7366657220616d6f756e7420657863656564732062604482015265616c616e636560d01b6064820152608401610464565b6001600160a01b0380851660009081526033602052604080822085850390559185168152908120805484929061108c9084906125f0565b92505081905550826001600160a01b0316846001600160a01b03167fddf252ad1be2c89b69c2b068fc378daa952ba7f163c4a11628f55a4df523b3ef846040516110d891815260200190565b60405180910390a35b50505050565b60006105437f8b73c3c69bb8fe3d512ecc4cf759cc79239f7b179b0ffacaa9a75d522b39400f61111660c95490565b60ca546040805160208101859052908101839052606081018290524660808201523060a082015260009060c0016040516020818303038152906040528051906020012090509392505050565b60655460ff166111ab5760405162461bcd60e51b815260206004820152601460248201527314185d5cd8589b194e881b9bdd081c185d5cd95960621b6044820152606401610464565b6065805460ff191690557f5db9ee0a495bf2e6ff9c91a7834c1ba4fdd244a5e8aa4e537bd38aeae4b073aa33610dcb565b604080516001600160a01b0385811660248301528416604482015260648082018490528251808303909101815260849091019091526020810180516001600160e01b03166323b872dd60e01b1790526110e19085906117ce565b609780546001600160a01b038381166001600160a01b0319831681179093556040519116919082907f8be0079c531659141344cd1fd0a4f28419497f9722a3daafe3b4186f6b6457e090600090a35050565b60655460ff16156112ce5760405162461bcd60e51b815260206004820152601060248201526f14185d5cd8589b194e881c185d5cd95960821b6044820152606401610464565b6065805460ff191660011790557f62e78cea01bee320cd4e420270b5ea74000d11b0c9f74754ebdbfc544b05a258610dcb3390565b6000610484338484610f0c565b61016254600160a01b900460ff1661135f5760405162461bcd60e51b815260206004820152601260248201527110db185a5b58589b194e881cdd185c9d195960721b6044820152606401610464565b610162805460ff60a01b191690557f27029695aa5f602a4ee81f4c32dfa86e562f200a17966496f3a7c3f2ec0f941733610dcb565b600054610100900460ff16806113ad575060005460ff16155b6113c95760405162461bcd60e51b81526004016104649061256d565b600054610100900460ff161580156113eb576000805461ffff19166101011790555b6113f36118a0565b6113fd838361190a565b801561140f576000805461ff00191690555b505050565b600054610100900460ff168061142d575060005460ff16155b6114495760405162461bcd60e51b81526004016104649061256d565b600054610100900460ff1615801561146b576000805461ffff19166101011790555b6114736118a0565b61147b61199f565b8015610d3c576000805461ff001916905550565b600054610100900460ff16806114a8575060005460ff16155b6114c45760405162461bcd60e51b81526004016104649061256d565b600054610100900460ff161580156114e6576000805461ffff19166101011790555b6114ee6118a0565b61147b611a14565b600054610100900460ff168061150f575060005460ff16155b61152b5760405162461bcd60e51b81526004016104649061256d565b600054610100900460ff1615801561154d576000805461ffff19166101011790555b6115556118a0565b61157882604051806040016040528060018152602001603160f81b815250611a74565b610b4882611afe565b600054610100900460ff168061159a575060005460ff16155b6115b65760405162461bcd60e51b81526004016104649061256d565b600054610100900460ff161580156115d8576000805461ffff19166101011790555b6001600160a01b03821661162e5760405162461bcd60e51b815260206004820181905260248201527f436c61696d61626c653a20696e76616c696420746f6b656e20616464726573736044820152606401610464565b61016280546001600160a81b0319166001600160a01b038416179055611652611b8e565b6116e23061016260009054906101000a90046001600160a01b03166001600160a01b03166318160ddd6040518163ffffffff1660e01b815260040160206040518083038186803b1580156116a557600080fd5b505afa1580156116b9573d6000803e3d6000fd5b505050506040513d601f19601f820116820180604052508101906116dd9190612505565b611bed565b610b48611bf7565b6001600160a01b038116600090815260fd602052604090208054600181018255905b50919050565b60006108fd61171f6110e7565b8360405161190160f01b6020820152602281018390526042810182905260009060620160405160208183030381529060405280519060200120905092915050565b600080600061177187878787611d81565b9150915061177e81611e6e565b5095945050505050565b60655460ff161561140f5760405162461bcd60e51b815260206004820152601060248201526f14185d5cd8589b194e881c185d5cd95960821b6044820152606401610464565b6000611823826040518060400160405280602081526020017f5361666545524332303a206c6f772d6c6576656c2063616c6c206661696c6564815250856001600160a01b03166120299092919063ffffffff16565b80519091501561140f578080602001905181019061184191906124e3565b61140f5760405162461bcd60e51b815260206004820152602a60248201527f5361666545524332303a204552433230206f7065726174696f6e20646964206e6044820152691bdd081cdd58d8d9595960b21b6064820152608401610464565b600054610100900460ff16806118b9575060005460ff16155b6118d55760405162461bcd60e51b81526004016104649061256d565b600054610100900460ff1615801561147b576000805461ffff19166101011790558015610d3c576000805461ff001916905550565b600054610100900460ff1680611923575060005460ff16155b61193f5760405162461bcd60e51b81526004016104649061256d565b600054610100900460ff16158015611961576000805461ffff19166101011790555b8251611974906036906020860190612307565b508151611988906037906020850190612307565b50801561140f576000805461ff0019169055505050565b600054610100900460ff16806119b8575060005460ff16155b6119d45760405162461bcd60e51b81526004016104649061256d565b600054610100900460ff161580156119f6576000805461ffff19166101011790555b6065805460ff191690558015610d3c576000805461ff001916905550565b600054610100900460ff1680611a2d575060005460ff16155b611a495760405162461bcd60e51b81526004016104649061256d565b600054610100900460ff16158015611a6b576000805461ffff19166101011790555b61147b33611236565b600054610100900460ff1680611a8d575060005460ff16155b611aa95760405162461bcd60e51b81526004016104649061256d565b600054610100900460ff16158015611acb576000805461ffff19166101011790555b825160208085019190912083519184019190912060c99190915560ca55801561140f576000805461ff0019169055505050565b600054610100900460ff1680611b17575060005460ff16155b611b335760405162461bcd60e51b81526004016104649061256d565b600054610100900460ff16158015611b55576000805461ffff19166101011790555b7f6e71edae12b1b97f4d1f60370fef10105fa2faae0126114a169c64845d6126c960fe558015610b5a576000805461ff00191690555050565b600054610100900460ff1680611ba7575060005460ff16155b611bc35760405162461bcd60e51b81526004016104649061256d565b600054610100900460ff16158015611be5576000805461ffff19166101011790555b61147b612040565b610b5a82826120b1565b600054610100900460ff1680611c10575060005460ff16155b611c2c5760405162461bcd60e51b81526004016104649061256d565b600054610100900460ff16158015611c4e576000805461ffff19166101011790555b7370997970c51812dc3a010c7d01b50e0d17dc79c860009081526101636020527fe7b3ce69b131f8c512bc70362a8abe4a5f081e49309955ca3709fda792ab94a98054690214e2a7766d89d800009290611ca99084906125f0565b9091555050733c44cdddb6a900fa2b585dd299e03d12fa4293bc60009081526101636020527fd8209803dc5119ab243b31766a0138d39b8881c699dcd8ea72979685497415518054690b02ecf74c31387fedf99290611d099084906125f0565b90915550507390f79bf6eb2c4f870365e785982e1f101e93b90660009081526101636020527f2fbad6c6db32930ab000296e8f69b4554874996512cbb29cdccae69fc9f32f2880546828b6c5bb47a018cc009290611d689084906125f0565b90915550508015610d3c576000805461ff001916905550565b6000807f7fffffffffffffffffffffffffffffff5d576e7357a4501ddfe92f46681b20a0831115611db85750600090506003611e65565b8460ff16601b14158015611dd057508460ff16601c14155b15611de15750600090506004611e65565b6040805160008082526020820180845289905260ff881692820192909252606081018690526080810185905260019060a0016020604051602081039080840390855afa158015611e35573d6000803e3d6000fd5b5050604051601f1901519150506001600160a01b038116611e5e57600060019250925050611e65565b9150600090505b94509492505050565b6000816004811115611e8257611e82612677565b1415611e8b5750565b6001816004811115611e9f57611e9f612677565b1415611eed5760405162461bcd60e51b815260206004820152601860248201527f45434453413a20696e76616c6964207369676e617475726500000000000000006044820152606401610464565b6002816004811115611f0157611f01612677565b1415611f4f5760405162461bcd60e51b815260206004820152601f60248201527f45434453413a20696e76616c6964207369676e6174757265206c656e677468006044820152606401610464565b6003816004811115611f6357611f63612677565b1415611fbc5760405162461bcd60e51b815260206004820152602260248201527f45434453413a20696e76616c6964207369676e6174757265202773272076616c604482015261756560f01b6064820152608401610464565b6004816004811115611fd057611fd0612677565b1415610d3c5760405162461bcd60e51b815260206004820152602260248201527f45434453413a20696e76616c6964207369676e6174757265202776272076616c604482015261756560f01b6064820152608401610464565b606061203884846000856120bb565b949350505050565b600054610100900460ff1680612059575060005460ff16155b6120755760405162461bcd60e51b81526004016104649061256d565b600054610100900460ff16158015612097576000805461ffff19166101011790555b6001610130558015610d3c576000805461ff001916905550565b610b5a82826121e3565b60608247101561211c5760405162461bcd60e51b815260206004820152602660248201527f416464726573733a20696e73756666696369656e742062616c616e636520666f6044820152651c8818d85b1b60d21b6064820152608401610464565b843b61216a5760405162461bcd60e51b815260206004820152601d60248201527f416464726573733a2063616c6c20746f206e6f6e2d636f6e74726163740000006044820152606401610464565b600080866001600160a01b03168587604051612186919061251e565b60006040518083038185875af1925050503d80600081146121c3576040519150601f19603f3d011682016040523d82523d6000602084013e6121c8565b606091505b50915091506121d88282866122ce565b979650505050505050565b6001600160a01b0382166122395760405162461bcd60e51b815260206004820152601f60248201527f45524332303a206d696e7420746f20746865207a65726f2061646472657373006044820152606401610464565b61224560008383611788565b806035600082825461225791906125f0565b90915550506001600160a01b038216600090815260336020526040812080548392906122849084906125f0565b90915550506040518181526001600160a01b038316906000907fddf252ad1be2c89b69c2b068fc378daa952ba7f163c4a11628f55a4df523b3ef9060200160405180910390a35050565b606083156122dd575081610532565b8251156122ed5782518084602001fd5b8160405162461bcd60e51b8152600401610464919061253a565b82805461231390612642565b90600052602060002090601f016020900481019282612335576000855561237b565b82601f1061234e57805160ff191683800117855561237b565b8280016001018555821561237b579182015b8281111561237b578251825591602001919060010190612360565b5061238792915061238b565b5090565b5b80821115612387576000815560010161238c565b80356001600160a01b03811681146123b757600080fd5b919050565b6000602082840312156123ce57600080fd5b610532826123a0565b600080604083850312156123ea57600080fd5b6123f3836123a0565b9150612401602084016123a0565b90509250929050565b60008060006060848603121561241f57600080fd5b612428846123a0565b9250612436602085016123a0565b9150604084013590509250925092565b600080600080600080600060e0888a03121561246157600080fd5b61246a886123a0565b9650612478602089016123a0565b95506040880135945060608801359350608088013560ff8116811461249c57600080fd5b9699959850939692959460a0840135945060c09093013592915050565b600080604083850312156124cc57600080fd5b6124d5836123a0565b946020939093013593505050565b6000602082840312156124f557600080fd5b8151801515811461053257600080fd5b60006020828403121561251757600080fd5b5051919050565b60008251612530818460208701612616565b9190910192915050565b6020815260008251806020840152612559816040850160208701612616565b601f01601f19169190910160400192915050565b6020808252602e908201527f496e697469616c697a61626c653a20636f6e747261637420697320616c72656160408201526d191e481a5b9a5d1a585b1a5e995960921b606082015260800190565b6020808252818101527f4f776e61626c653a2063616c6c6572206973206e6f7420746865206f776e6572604082015260600190565b6000821982111561261157634e487b7160e01b600052601160045260246000fd5b500190565b60005b83811015612631578181015183820152602001612619565b838111156110e15750506000910152565b600181811c9082168061265657607f821691505b6020821081141561170c57634e487b7160e01b600052602260045260246000fd5b634e487b7160e01b600052602160045260246000fdfea2646970667358221220af3e5b9085564b59a21dbaa733a900bf24da2b5243a202fa178608cd20d6965664736f6c63430008070033",
  "linkReferences": {},
  "deployedLinkReferences": {}
}