{
  "_format": "hh-sol-artifact-1",
  "contractName": "Lif2UpgradeabilityTest",
  "sourceName": "contracts/Lif2UpgradeabilityTest.sol",
  "abi": [
    {
      "anonymous": false,
      "inputs": [
        {
          "indexed": true,
          "internalType": "address",
          "name": "owner",
          "type": "address"
        },
        {
          "indexed": true,
          "internalType": "address",
          "name": "spender",
          "type": "address"
        },
        {
          "indexed": false,
          "internalType": "uint256",
          "name": "value",
          "type": "uint256"
        }
      ],
      "name": "Approval",
      "type": "event"
    },
    {
      "anonymous": false,
      "inputs": [
        {
          "indexed": true,
          "internalType": "address",
          "name": "holder",
          "type": "address"
        },
        {
          "indexed": false,
          "internalType": "uint256",
          "name": "value",
          "type": "uint256"
        }
      ],
      "name": "Claim",
      "type": "event"
    },
    {
      "anonymous": false,
      "inputs": [
        {
          "indexed": true,
          "internalType": "address",
          "name": "previousOwner",
          "type": "address"
        },
        {
          "indexed": true,
          "internalType": "address",
          "name": "newOwner",
          "type": "address"
        }
      ],
      "name": "OwnershipTransferred",
      "type": "event"
    },
    {
      "anonymous": false,
      "inputs": [
        {
          "indexed": false,
          "internalType": "address",
          "name": "account",
          "type": "address"
        }
      ],
      "name": "Paused",
      "type": "event"
    },
    {
      "anonymous": false,
      "inputs": [
        {
          "indexed": true,
          "internalType": "address",
          "name": "holder",
          "type": "address"
        },
        {
          "indexed": false,
          "internalType": "uint256",
          "name": "value",
          "type": "uint256"
        }
      ],
      "name": "Resurrect",
      "type": "event"
    },
    {
      "anonymous": false,
      "inputs": [
        {
          "indexed": false,
          "internalType": "address",
          "name": "account",
          "type": "address"
        }
      ],
      "name": "Started",
      "type": "event"
    },
    {
      "anonymous": false,
      "inputs": [
        {
          "indexed": false,
          "internalType": "address",
          "name": "account",
          "type": "address"
        }
      ],
      "name": "Stopped",
      "type": "event"
    },
    {
      "anonymous": false,
      "inputs": [
        {
          "indexed": true,
          "internalType": "address",
          "name": "from",
          "type": "address"
        },
        {
          "indexed": true,
          "internalType": "address",
          "name": "to",
          "type": "address"
        },
        {
          "indexed": false,
          "internalType": "uint256",
          "name": "value",
          "type": "uint256"
        }
      ],
      "name": "Transfer",
      "type": "event"
    },
    {
      "anonymous": false,
      "inputs": [
        {
          "indexed": false,
          "internalType": "address",
          "name": "account",
          "type": "address"
        }
      ],
      "name": "Unpaused",
      "type": "event"
    },
    {
      "inputs": [],
      "name": "DOMAIN_SEPARATOR",
      "outputs": [
        {
          "internalType": "bytes32",
          "name": "",
          "type": "bytes32"
        }
      ],
      "stateMutability": "view",
      "type": "function"
    },
    {
      "inputs": [
        {
          "internalType": "address",
          "name": "owner",
          "type": "address"
        },
        {
          "internalType": "address",
          "name": "spender",
          "type": "address"
        }
      ],
      "name": "allowance",
      "outputs": [
        {
          "internalType": "uint256",
          "name": "",
          "type": "uint256"
        }
      ],
      "stateMutability": "view",
      "type": "function"
    },
    {
      "inputs": [
        {
          "internalType": "address",
          "name": "spender",
          "type": "address"
        },
        {
          "internalType": "uint256",
          "name": "amount",
          "type": "uint256"
        }
      ],
      "name": "approve",
      "outputs": [
        {
          "internalType": "bool",
          "name": "",
          "type": "bool"
        }
      ],
      "stateMutability": "nonpayable",
      "type": "function"
    },
    {
      "inputs": [
        {
          "internalType": "address",
          "name": "account",
          "type": "address"
        }
      ],
      "name": "balanceOf",
      "outputs": [
        {
          "internalType": "uint256",
          "name": "",
          "type": "uint256"
        }
      ],
      "stateMutability": "view",
      "type": "function"
    },
    {
      "inputs": [],
      "name": "claim",
      "outputs": [],
      "stateMutability": "nonpayable",
      "type": "function"
    },
    {
      "inputs": [],
      "name": "decimals",
      "outputs": [
        {
          "internalType": "uint8",
          "name": "",
          "type": "uint8"
        }
      ],
      "stateMutability": "view",
      "type": "function"
    },
    {
      "inputs": [
        {
          "internalType": "address",
          "name": "spender",
          "type": "address"
        },
        {
          "internalType": "uint256",
          "name": "subtractedValue",
          "type": "uint256"
        }
      ],
      "name": "decreaseAllowance",
      "outputs": [
        {
          "internalType": "bool",
          "name": "",
          "type": "bool"
        }
      ],
      "stateMutability": "nonpayable",
      "type": "function"
    },
    {
      "inputs": [
        {
          "internalType": "address",
          "name": "spender",
          "type": "address"
        },
        {
          "internalType": "uint256",
          "name": "addedValue",
          "type": "uint256"
        }
      ],
      "name": "increaseAllowance",
      "outputs": [
        {
          "internalType": "bool",
          "name": "",
          "type": "bool"
        }
      ],
      "stateMutability": "nonpayable",
      "type": "function"
    },
    {
      "inputs": [
        {
          "internalType": "address",
          "name": "tokenAddress_",
          "type": "address"
        }
      ],
      "name": "initialize",
      "outputs": [],
      "stateMutability": "nonpayable",
      "type": "function"
    },
    {
      "inputs": [],
      "name": "name",
      "outputs": [
        {
          "internalType": "string",
          "name": "",
          "type": "string"
        }
      ],
      "stateMutability": "view",
      "type": "function"
    },
    {
      "inputs": [],
      "name": "newFunction",
      "outputs": [
        {
          "internalType": "bool",
          "name": "",
          "type": "bool"
        }
      ],
      "stateMutability": "pure",
      "type": "function"
    },
    {
      "inputs": [
        {
          "internalType": "address",
          "name": "owner",
          "type": "address"
        }
      ],
      "name": "nonces",
      "outputs": [
        {
          "internalType": "uint256",
          "name": "",
          "type": "uint256"
        }
      ],
      "stateMutability": "view",
      "type": "function"
    },
    {
      "inputs": [],
      "name": "originalLif",
      "outputs": [
        {
          "internalType": "address",
          "name": "",
          "type": "address"
        }
      ],
      "stateMutability": "view",
      "type": "function"
    },
    {
      "inputs": [],
      "name": "owner",
      "outputs": [
        {
          "internalType": "address",
          "name": "",
          "type": "address"
        }
      ],
      "stateMutability": "view",
      "type": "function"
    },
    {
      "inputs": [],
      "name": "pause",
      "outputs": [],
      "stateMutability": "nonpayable",
      "type": "function"
    },
    {
      "inputs": [],
      "name": "paused",
      "outputs": [
        {
          "internalType": "bool",
          "name": "",
          "type": "bool"
        }
      ],
      "stateMutability": "view",
      "type": "function"
    },
    {
      "inputs": [
        {
          "internalType": "address",
          "name": "owner",
          "type": "address"
        },
        {
          "internalType": "address",
          "name": "spender",
          "type": "address"
        },
        {
          "internalType": "uint256",
          "name": "value",
          "type": "uint256"
        },
        {
          "internalType": "uint256",
          "name": "deadline",
          "type": "uint256"
        },
        {
          "internalType": "uint8",
          "name": "v",
          "type": "uint8"
        },
        {
          "internalType": "bytes32",
          "name": "r",
          "type": "bytes32"
        },
        {
          "internalType": "bytes32",
          "name": "s",
          "type": "bytes32"
        }
      ],
      "name": "permit",
      "outputs": [],
      "stateMutability": "nonpayable",
      "type": "function"
    },
    {
      "inputs": [],
      "name": "renounceOwnership",
      "outputs": [],
      "stateMutability": "nonpayable",
      "type": "function"
    },
    {
      "inputs": [],
      "name": "start",
      "outputs": [],
      "stateMutability": "nonpayable",
      "type": "function"
    },
    {
      "inputs": [],
      "name": "stop",
      "outputs": [],
      "stateMutability": "nonpayable",
      "type": "function"
    },
    {
      "inputs": [],
      "name": "stopped",
      "outputs": [
        {
          "internalType": "bool",
          "name": "",
          "type": "bool"
        }
      ],
      "stateMutability": "view",
      "type": "function"
    },
    {
      "inputs": [],
      "name": "symbol",
      "outputs": [
        {
          "internalType": "string",
          "name": "",
          "type": "string"
        }
      ],
      "stateMutability": "view",
      "type": "function"
    },
    {
      "inputs": [],
      "name": "totalSupply",
      "outputs": [
        {
          "internalType": "uint256",
          "name": "",
          "type": "uint256"
        }
      ],
      "stateMutability": "view",
      "type": "function"
    },
    {
      "inputs": [
        {
          "internalType": "address",
          "name": "recipient",
          "type": "address"
        },
        {
          "internalType": "uint256",
          "name": "amount",
          "type": "uint256"
        }
      ],
      "name": "transfer",
      "outputs": [
        {
          "internalType": "bool",
          "name": "",
          "type": "bool"
        }
      ],
      "stateMutability": "nonpayable",
      "type": "function"
    },
    {
      "inputs": [
        {
          "internalType": "address",
          "name": "sender",
          "type": "address"
        },
        {
          "internalType": "address",
          "name": "recipient",
          "type": "address"
        },
        {
          "internalType": "uint256",
          "name": "amount",
          "type": "uint256"
        }
      ],
      "name": "transferFrom",
      "outputs": [
        {
          "internalType": "bool",
          "name": "",
          "type": "bool"
        }
      ],
      "stateMutability": "nonpayable",
      "type": "function"
    },
    {
      "inputs": [
        {
          "internalType": "address",
          "name": "newOwner",
          "type": "address"
        }
      ],
      "name": "transferOwnership",
      "outputs": [],
      "stateMutability": "nonpayable",
      "type": "function"
    },
    {
      "inputs": [],
      "name": "unpause",
      "outputs": [],
      "stateMutability": "nonpayable",
      "type": "function"
    }
  ],
  "bytecode": "0x608060405234801561001057600080fd5b506126c8806100206000396000f3fe608060405234801561001057600080fd5b50600436106101a95760003560e01c8063715018a6116100f9578063a9059cbb11610097578063c4d66de811610071578063c4d66de814610336578063d505accf14610349578063dd62ed3e1461035c578063f2fde38b1461039557600080fd5b8063a9059cbb14610309578063be9a65551461031c578063c43b1b471461032457600080fd5b80638456cb59116100d35780638456cb59146102c15780638da5cb5b146102c957806395d89b41146102ee578063a457c2d7146102f657600080fd5b8063715018a61461029357806375f12b211461029b5780637ecebe00146102ae57600080fd5b8063313ce567116101665780633f4ba83a116101405780633f4ba83a1461024f5780634e71d92d146102575780635c975abb1461025f57806370a082311461026a57600080fd5b8063313ce567146102255780633644e51514610234578063395093511461023c57600080fd5b806306fdde03146101ae57806307da68f5146101cc578063095ea7b3146101d657806318160ddd146101f95780631b28d63e1461020b57806323b872dd14610212575b600080fd5b6101b66103a8565b6040516101c3919061253f565b60405180910390f35b6101d461043a565b005b6101e96101e43660046124be565b610477565b60405190151581526020016101c3565b6035545b6040519081526020016101c3565b60016101e9565b6101e961022036600461240f565b61048d565b604051601281526020016101c3565b6101fd610539565b6101e961024a3660046124be565b610548565b6101d4610584565b6101d46105b6565b60655460ff166101e9565b6101fd6102783660046123c1565b6001600160a01b031660009081526033602052604090205490565b6101d46108b2565b61016254600160a01b900460ff166101e9565b6101fd6102bc3660046123c1565b6108e6565b6101d4610906565b6097546001600160a01b03165b6040516001600160a01b0390911681526020016101c3565b6101b6610938565b6101e96103043660046124be565b610947565b6101e96103173660046124be565b6109e0565b6101d4610a3b565b610162546001600160a01b03166102d6565b6101d46103443660046123c1565b610a6d565b6101d461035736600461244b565b610b63565b6101fd61036a3660046123dc565b6001600160a01b03918216600090815260346020908152604080832093909416825291909152205490565b6101d46103a33660046123c1565b610ca9565b6060603680546103b790612647565b80601f01602080910402602001604051908101604052809291908181526020018280546103e390612647565b80156104305780601f1061040557610100808354040283529160200191610430565b820191906000526020600020905b81548152906001019060200180831161041357829003601f168201915b5050505050905090565b6097546001600160a01b0316331461046d5760405162461bcd60e51b8152600401610464906125c0565b60405180910390fd5b610475610d44565b565b6000610484338484610ded565b50600192915050565b600061049a848484610f11565b6001600160a01b03841660009081526034602090815260408083203384529091529020548281101561051f5760405162461bcd60e51b815260206004820152602860248201527f45524332303a207472616e7366657220616d6f756e74206578636565647320616044820152676c6c6f77616e636560c01b6064820152608401610464565b61052c8533858403610ded565b60019150505b9392505050565b60006105436110ec565b905090565b3360008181526034602090815260408083206001600160a01b0387168452909152812054909161048491859061057f9086906125f5565b610ded565b6097546001600160a01b031633146105ae5760405162461bcd60e51b8152600401610464906125c0565b610475611167565b600261013054141561060a5760405162461bcd60e51b815260206004820152601f60248201527f5265656e7472616e637947756172643a207265656e7472616e742063616c6c006044820152606401610464565b600261013055600033610162546040516370a0823160e01b81526001600160a01b038084166004830152929350600092909116906370a082319060240160206040518083038186803b15801561065f57600080fd5b505afa158015610673573d6000803e3d6000fd5b505050506040513d601f19601f82011682018060405250810190610697919061250a565b9050600081116106e95760405162461bcd60e51b815260206004820152601b60248201527f436c61696d61626c653a206e6f7468696e6720746f20636c61696d00000000006044820152606401610464565b61016254610702906001600160a01b03168330846111e1565b610162546040516370a0823160e01b81526001600160a01b038481166004830152909116906370a082319060240160206040518083038186803b15801561074857600080fd5b505afa15801561075c573d6000803e3d6000fd5b505050506040513d601f19601f82011682018060405250810190610780919061250a565b156107cd5760405162461bcd60e51b815260206004820152601d60248201527f436c61696d61626c653a20756e61626c6520746f207472616e736665720000006044820152606401610464565b6107d8308383610f11565b816001600160a01b03167f47cee97cb7acd717b3c0aa1435d004cd5b3c8c57d70dbceb4e4458bbd60e39d48260405161081391815260200190565b60405180910390a26001600160a01b03821660009081526101636020526040902054156108a8576001600160a01b0382166000908152610163602052604081208054919055610863308483610f11565b826001600160a01b03167fa065a6bcbaa96b9d220b93617b9a6602d16a15aa84337912c99fc90e04d13cdb8260405161089e91815260200190565b60405180910390a2505b5050600161013055565b6097546001600160a01b031633146108dc5760405162461bcd60e51b8152600401610464906125c0565b610475600061123b565b6001600160a01b038116600090815260fd60205260408120545b92915050565b6097546001600160a01b031633146109305760405162461bcd60e51b8152600401610464906125c0565b61047561128d565b6060603780546103b790612647565b3360009081526034602090815260408083206001600160a01b0386168452909152812054828110156109c95760405162461bcd60e51b815260206004820152602560248201527f45524332303a2064656372656173656420616c6c6f77616e63652062656c6f77604482015264207a65726f60d81b6064820152608401610464565b6109d63385858403610ded565b5060019392505050565b6000823b15610a315760405162461bcd60e51b815260206004820152601f60248201527f45524332303a207472616e7366657220746f2074686520636f6e7472616374006044820152606401610464565b6105328383611308565b6097546001600160a01b03163314610a655760405162461bcd60e51b8152600401610464906125c0565b610475611315565b600054610100900460ff1680610a86575060005460ff16155b610aa25760405162461bcd60e51b815260040161046490612572565b600054610100900460ff16158015610ac4576000805461ffff19166101011790555b610b0a604051806040016040528060098152602001682624a3102a37b5b2b760b91b815250604051806040016040528060038152602001622624a360e91b815250611399565b610b12611419565b610b1a611494565b610b44604051806040016040528060098152602001682624a3102a37b5b2b760b91b8152506114fb565b610b4d82611586565b8015610b5f576000805461ff00191690555b5050565b83421115610bb35760405162461bcd60e51b815260206004820152601d60248201527f45524332305065726d69743a206578706972656420646561646c696e650000006044820152606401610464565b600060fe54888888610bc48c6116ef565b6040805160208101969096526001600160a01b0394851690860152929091166060840152608083015260a082015260c0810186905260e0016040516020818303038152906040528051906020012090506000610c1f82611717565b90506000610c2f82878787611765565b9050896001600160a01b0316816001600160a01b031614610c925760405162461bcd60e51b815260206004820152601e60248201527f45524332305065726d69743a20696e76616c6964207369676e617475726500006044820152606401610464565b610c9d8a8a8a610ded565b50505050505050505050565b6097546001600160a01b03163314610cd35760405162461bcd60e51b8152600401610464906125c0565b6001600160a01b038116610d385760405162461bcd60e51b815260206004820152602660248201527f4f776e61626c653a206e6577206f776e657220697320746865207a65726f206160448201526564647265737360d01b6064820152608401610464565b610d418161123b565b50565b61016254600160a01b900460ff1615610d945760405162461bcd60e51b815260206004820152601260248201527110db185a5b58589b194e881cdd1bdc1c195960721b6044820152606401610464565b610162805460ff60a01b1916600160a01b1790557f55c4adf1f68f084b809304657594a92ba835ada8d3b5340955bf05746723c05b610dd03390565b6040516001600160a01b03909116815260200160405180910390a1565b6001600160a01b038316610e4f5760405162461bcd60e51b8152602060048201526024808201527f45524332303a20617070726f76652066726f6d20746865207a65726f206164646044820152637265737360e01b6064820152608401610464565b6001600160a01b038216610eb05760405162461bcd60e51b815260206004820152602260248201527f45524332303a20617070726f766520746f20746865207a65726f206164647265604482015261737360f01b6064820152608401610464565b6001600160a01b0383811660008181526034602090815260408083209487168084529482529182902085905590518481527f8c5be1e5ebec7d5bd14f71427d1e84f3dd0314c0f7b2291e5b200ac8c7c3b925910160405180910390a3505050565b6001600160a01b038316610f755760405162461bcd60e51b815260206004820152602560248201527f45524332303a207472616e736665722066726f6d20746865207a65726f206164604482015264647265737360d81b6064820152608401610464565b6001600160a01b038216610fd75760405162461bcd60e51b815260206004820152602360248201527f45524332303a207472616e7366657220746f20746865207a65726f206164647260448201526265737360e81b6064820152608401610464565b610fe283838361178d565b6001600160a01b0383166000908152603360205260409020548181101561105a5760405162461bcd60e51b815260206004820152602660248201527f45524332303a207472616e7366657220616d6f756e7420657863656564732062604482015265616c616e636560d01b6064820152608401610464565b6001600160a01b038085166000908152603360205260408082208585039055918516815290812080548492906110919084906125f5565b92505081905550826001600160a01b0316846001600160a01b03167fddf252ad1be2c89b69c2b068fc378daa952ba7f163c4a11628f55a4df523b3ef846040516110dd91815260200190565b60405180910390a35b50505050565b60006105437f8b73c3c69bb8fe3d512ecc4cf759cc79239f7b179b0ffacaa9a75d522b39400f61111b60c95490565b60ca546040805160208101859052908101839052606081018290524660808201523060a082015260009060c0016040516020818303038152906040528051906020012090509392505050565b60655460ff166111b05760405162461bcd60e51b815260206004820152601460248201527314185d5cd8589b194e881b9bdd081c185d5cd95960621b6044820152606401610464565b6065805460ff191690557f5db9ee0a495bf2e6ff9c91a7834c1ba4fdd244a5e8aa4e537bd38aeae4b073aa33610dd0565b604080516001600160a01b0385811660248301528416604482015260648082018490528251808303909101815260849091019091526020810180516001600160e01b03166323b872dd60e01b1790526110e69085906117d3565b609780546001600160a01b038381166001600160a01b0319831681179093556040519116919082907f8be0079c531659141344cd1fd0a4f28419497f9722a3daafe3b4186f6b6457e090600090a35050565b60655460ff16156112d35760405162461bcd60e51b815260206004820152601060248201526f14185d5cd8589b194e881c185d5cd95960821b6044820152606401610464565b6065805460ff191660011790557f62e78cea01bee320cd4e420270b5ea74000d11b0c9f74754ebdbfc544b05a258610dd03390565b6000610484338484610f11565b61016254600160a01b900460ff166113645760405162461bcd60e51b815260206004820152601260248201527110db185a5b58589b194e881cdd185c9d195960721b6044820152606401610464565b610162805460ff60a01b191690557f27029695aa5f602a4ee81f4c32dfa86e562f200a17966496f3a7c3f2ec0f941733610dd0565b600054610100900460ff16806113b2575060005460ff16155b6113ce5760405162461bcd60e51b815260040161046490612572565b600054610100900460ff161580156113f0576000805461ffff19166101011790555b6113f86118a5565b611402838361190f565b8015611414576000805461ff00191690555b505050565b600054610100900460ff1680611432575060005460ff16155b61144e5760405162461bcd60e51b815260040161046490612572565b600054610100900460ff16158015611470576000805461ffff19166101011790555b6114786118a5565b6114806119a4565b8015610d41576000805461ff001916905550565b600054610100900460ff16806114ad575060005460ff16155b6114c95760405162461bcd60e51b815260040161046490612572565b600054610100900460ff161580156114eb576000805461ffff19166101011790555b6114f36118a5565b611480611a19565b600054610100900460ff1680611514575060005460ff16155b6115305760405162461bcd60e51b815260040161046490612572565b600054610100900460ff16158015611552576000805461ffff19166101011790555b61155a6118a5565b61157d82604051806040016040528060018152602001603160f81b815250611a79565b610b4d82611b03565b600054610100900460ff168061159f575060005460ff16155b6115bb5760405162461bcd60e51b815260040161046490612572565b600054610100900460ff161580156115dd576000805461ffff19166101011790555b6001600160a01b0382166116335760405162461bcd60e51b815260206004820181905260248201527f436c61696d61626c653a20696e76616c696420746f6b656e20616464726573736044820152606401610464565b61016280546001600160a81b0319166001600160a01b038416179055611657611b93565b6116e73061016260009054906101000a90046001600160a01b03166001600160a01b03166318160ddd6040518163ffffffff1660e01b815260040160206040518083038186803b1580156116aa57600080fd5b505afa1580156116be573d6000803e3d6000fd5b505050506040513d601f19601f820116820180604052508101906116e2919061250a565b611bf2565b610b4d611bfc565b6001600160a01b038116600090815260fd602052604090208054600181018255905b50919050565b60006109006117246110ec565b8360405161190160f01b6020820152602281018390526042810182905260009060620160405160208183030381529060405280519060200120905092915050565b600080600061177687878787611d86565b9150915061178381611e73565b5095945050505050565b60655460ff16156114145760405162461bcd60e51b815260206004820152601060248201526f14185d5cd8589b194e881c185d5cd95960821b6044820152606401610464565b6000611828826040518060400160405280602081526020017f5361666545524332303a206c6f772d6c6576656c2063616c6c206661696c6564815250856001600160a01b031661202e9092919063ffffffff16565b805190915015611414578080602001905181019061184691906124e8565b6114145760405162461bcd60e51b815260206004820152602a60248201527f5361666545524332303a204552433230206f7065726174696f6e20646964206e6044820152691bdd081cdd58d8d9595960b21b6064820152608401610464565b600054610100900460ff16806118be575060005460ff16155b6118da5760405162461bcd60e51b815260040161046490612572565b600054610100900460ff16158015611480576000805461ffff19166101011790558015610d41576000805461ff001916905550565b600054610100900460ff1680611928575060005460ff16155b6119445760405162461bcd60e51b815260040161046490612572565b600054610100900460ff16158015611966576000805461ffff19166101011790555b825161197990603690602086019061230c565b50815161198d90603790602085019061230c565b508015611414576000805461ff0019169055505050565b600054610100900460ff16806119bd575060005460ff16155b6119d95760405162461bcd60e51b815260040161046490612572565b600054610100900460ff161580156119fb576000805461ffff19166101011790555b6065805460ff191690558015610d41576000805461ff001916905550565b600054610100900460ff1680611a32575060005460ff16155b611a4e5760405162461bcd60e51b815260040161046490612572565b600054610100900460ff16158015611a70576000805461ffff19166101011790555b6114803361123b565b600054610100900460ff1680611a92575060005460ff16155b611aae5760405162461bcd60e51b815260040161046490612572565b600054610100900460ff16158015611ad0576000805461ffff19166101011790555b825160208085019190912083519184019190912060c99190915560ca558015611414576000805461ff0019169055505050565b600054610100900460ff1680611b1c575060005460ff16155b611b385760405162461bcd60e51b815260040161046490612572565b600054610100900460ff16158015611b5a576000805461ffff19166101011790555b7f6e71edae12b1b97f4d1f60370fef10105fa2faae0126114a169c64845d6126c960fe558015610b5f576000805461ff00191690555050565b600054610100900460ff1680611bac575060005460ff16155b611bc85760405162461bcd60e51b815260040161046490612572565b600054610100900460ff16158015611bea576000805461ffff19166101011790555b611480612045565b610b5f82826120b6565b600054610100900460ff1680611c15575060005460ff16155b611c315760405162461bcd60e51b815260040161046490612572565b600054610100900460ff16158015611c53576000805461ffff19166101011790555b7370997970c51812dc3a010c7d01b50e0d17dc79c860009081526101636020527fe7b3ce69b131f8c512bc70362a8abe4a5f081e49309955ca3709fda792ab94a98054690214e2a7766d89d800009290611cae9084906125f5565b9091555050733c44cdddb6a900fa2b585dd299e03d12fa4293bc60009081526101636020527fd8209803dc5119ab243b31766a0138d39b8881c699dcd8ea72979685497415518054690b02ecf74c31387fedf99290611d0e9084906125f5565b90915550507390f79bf6eb2c4f870365e785982e1f101e93b90660009081526101636020527f2fbad6c6db32930ab000296e8f69b4554874996512cbb29cdccae69fc9f32f2880546828b6c5bb47a018cc009290611d6d9084906125f5565b90915550508015610d41576000805461ff001916905550565b6000807f7fffffffffffffffffffffffffffffff5d576e7357a4501ddfe92f46681b20a0831115611dbd5750600090506003611e6a565b8460ff16601b14158015611dd557508460ff16601c14155b15611de65750600090506004611e6a565b6040805160008082526020820180845289905260ff881692820192909252606081018690526080810185905260019060a0016020604051602081039080840390855afa158015611e3a573d6000803e3d6000fd5b5050604051601f1901519150506001600160a01b038116611e6357600060019250925050611e6a565b9150600090505b94509492505050565b6000816004811115611e8757611e8761267c565b1415611e905750565b6001816004811115611ea457611ea461267c565b1415611ef25760405162461bcd60e51b815260206004820152601860248201527f45434453413a20696e76616c6964207369676e617475726500000000000000006044820152606401610464565b6002816004811115611f0657611f0661267c565b1415611f545760405162461bcd60e51b815260206004820152601f60248201527f45434453413a20696e76616c6964207369676e6174757265206c656e677468006044820152606401610464565b6003816004811115611f6857611f6861267c565b1415611fc15760405162461bcd60e51b815260206004820152602260248201527f45434453413a20696e76616c6964207369676e6174757265202773272076616c604482015261756560f01b6064820152608401610464565b6004816004811115611fd557611fd561267c565b1415610d415760405162461bcd60e51b815260206004820152602260248201527f45434453413a20696e76616c6964207369676e6174757265202776272076616c604482015261756560f01b6064820152608401610464565b606061203d84846000856120c0565b949350505050565b600054610100900460ff168061205e575060005460ff16155b61207a5760405162461bcd60e51b815260040161046490612572565b600054610100900460ff1615801561209c576000805461ffff19166101011790555b6001610130558015610d41576000805461ff001916905550565b610b5f82826121e8565b6060824710156121215760405162461bcd60e51b815260206004820152602660248201527f416464726573733a20696e73756666696369656e742062616c616e636520666f6044820152651c8818d85b1b60d21b6064820152608401610464565b843b61216f5760405162461bcd60e51b815260206004820152601d60248201527f416464726573733a2063616c6c20746f206e6f6e2d636f6e74726163740000006044820152606401610464565b600080866001600160a01b0316858760405161218b9190612523565b60006040518083038185875af1925050503d80600081146121c8576040519150601f19603f3d011682016040523d82523d6000602084013e6121cd565b606091505b50915091506121dd8282866122d3565b979650505050505050565b6001600160a01b03821661223e5760405162461bcd60e51b815260206004820152601f60248201527f45524332303a206d696e7420746f20746865207a65726f2061646472657373006044820152606401610464565b61224a6000838361178d565b806035600082825461225c91906125f5565b90915550506001600160a01b038216600090815260336020526040812080548392906122899084906125f5565b90915550506040518181526001600160a01b038316906000907fddf252ad1be2c89b69c2b068fc378daa952ba7f163c4a11628f55a4df523b3ef9060200160405180910390a35050565b606083156122e2575081610532565b8251156122f25782518084602001fd5b8160405162461bcd60e51b8152600401610464919061253f565b82805461231890612647565b90600052602060002090601f01602090048101928261233a5760008555612380565b82601f1061235357805160ff1916838001178555612380565b82800160010185558215612380579182015b82811115612380578251825591602001919060010190612365565b5061238c929150612390565b5090565b5b8082111561238c5760008155600101612391565b80356001600160a01b03811681146123bc57600080fd5b919050565b6000602082840312156123d357600080fd5b610532826123a5565b600080604083850312156123ef57600080fd5b6123f8836123a5565b9150612406602084016123a5565b90509250929050565b60008060006060848603121561242457600080fd5b61242d846123a5565b925061243b602085016123a5565b9150604084013590509250925092565b600080600080600080600060e0888a03121561246657600080fd5b61246f886123a5565b965061247d602089016123a5565b95506040880135945060608801359350608088013560ff811681146124a157600080fd5b9699959850939692959460a0840135945060c09093013592915050565b600080604083850312156124d157600080fd5b6124da836123a5565b946020939093013593505050565b6000602082840312156124fa57600080fd5b8151801515811461053257600080fd5b60006020828403121561251c57600080fd5b5051919050565b6000825161253581846020870161261b565b9190910192915050565b602081526000825180602084015261255e81604085016020870161261b565b601f01601f19169190910160400192915050565b6020808252602e908201527f496e697469616c697a61626c653a20636f6e747261637420697320616c72656160408201526d191e481a5b9a5d1a585b1a5e995960921b606082015260800190565b6020808252818101527f4f776e61626c653a2063616c6c6572206973206e6f7420746865206f776e6572604082015260600190565b6000821982111561261657634e487b7160e01b600052601160045260246000fd5b500190565b60005b8381101561263657818101518382015260200161261e565b838111156110e65750506000910152565b600181811c9082168061265b57607f821691505b6020821081141561171157634e487b7160e01b600052602260045260246000fd5b634e487b7160e01b600052602160045260246000fdfea26469706673582212207b17f63619a93055cfc4b7fa4a5ccbde3974db2420c2eb36a985eb2ee793a38964736f6c63430008070033",
  "linkReferences": {},
  "deployedLinkReferences": {}
}