{
  "_format": "hh-sol-artifact-1",
  "contractName": "OldLifTest",
  "sourceName": "contracts/OldLifTest.sol",
  "abi": [
    {
      "inputs": [],
      "stateMutability": "nonpayable",
      "type": "constructor"
    },
    {
      "anonymous": false,
      "inputs": [
        {
          "indexed": true,
          "internalType": "address",
          "name": "owner",
          "type": "address"
        },
        {
          "indexed": true,
          "internalType": "address",
          "name": "spender",
          "type": "address"
        },
        {
          "indexed": false,
          "internalType": "uint256",
          "name": "value",
          "type": "uint256"
        }
      ],
      "name": "Approval",
      "type": "event"
    },
    {
      "anonymous": false,
      "inputs": [
        {
          "indexed": true,
          "internalType": "address",
          "name": "from",
          "type": "address"
        },
        {
          "indexed": true,
          "internalType": "address",
          "name": "to",
          "type": "address"
        },
        {
          "indexed": false,
          "internalType": "uint256",
          "name": "value",
          "type": "uint256"
        }
      ],
      "name": "Transfer",
      "type": "event"
    },
    {
      "inputs": [
        {
          "internalType": "address",
          "name": "owner",
          "type": "address"
        },
        {
          "internalType": "address",
          "name": "spender",
          "type": "address"
        }
      ],
      "name": "allowance",
      "outputs": [
        {
          "internalType": "uint256",
          "name": "",
          "type": "uint256"
        }
      ],
      "stateMutability": "view",
      "type": "function"
    },
    {
      "inputs": [
        {
          "internalType": "address",
          "name": "spender",
          "type": "address"
        },
        {
          "internalType": "uint256",
          "name": "amount",
          "type": "uint256"
        }
      ],
      "name": "approve",
      "outputs": [
        {
          "internalType": "bool",
          "name": "",
          "type": "bool"
        }
      ],
      "stateMutability": "nonpayable",
      "type": "function"
    },
    {
      "inputs": [
        {
          "internalType": "address",
          "name": "account",
          "type": "address"
        }
      ],
      "name": "balanceOf",
      "outputs": [
        {
          "internalType": "uint256",
          "name": "",
          "type": "uint256"
        }
      ],
      "stateMutability": "view",
      "type": "function"
    },
    {
      "inputs": [
        {
          "internalType": "bytes32",
          "name": "c__0xf92d0f6c",
          "type": "bytes32"
        }
      ],
      "name": "c_0xf92d0f6c",
      "outputs": [],
      "stateMutability": "pure",
      "type": "function"
    },
    {
      "inputs": [],
      "name": "decimals",
      "outputs": [
        {
          "internalType": "uint8",
          "name": "",
          "type": "uint8"
        }
      ],
      "stateMutability": "view",
      "type": "function"
    },
    {
      "inputs": [
        {
          "internalType": "address",
          "name": "spender",
          "type": "address"
        },
        {
          "internalType": "uint256",
          "name": "subtractedValue",
          "type": "uint256"
        }
      ],
      "name": "decreaseAllowance",
      "outputs": [
        {
          "internalType": "bool",
          "name": "",
          "type": "bool"
        }
      ],
      "stateMutability": "nonpayable",
      "type": "function"
    },
    {
      "inputs": [
        {
          "internalType": "address",
          "name": "spender",
          "type": "address"
        },
        {
          "internalType": "uint256",
          "name": "addedValue",
          "type": "uint256"
        }
      ],
      "name": "increaseAllowance",
      "outputs": [
        {
          "internalType": "bool",
          "name": "",
          "type": "bool"
        }
      ],
      "stateMutability": "nonpayable",
      "type": "function"
    },
    {
      "inputs": [
        {
          "internalType": "address",
          "name": "holder",
          "type": "address"
        },
        {
          "internalType": "uint256",
          "name": "value",
          "type": "uint256"
        }
      ],
      "name": "mint",
      "outputs": [],
      "stateMutability": "nonpayable",
      "type": "function"
    },
    {
      "inputs": [],
      "name": "name",
      "outputs": [
        {
          "internalType": "string",
          "name": "",
          "type": "string"
        }
      ],
      "stateMutability": "view",
      "type": "function"
    },
    {
      "inputs": [],
      "name": "symbol",
      "outputs": [
        {
          "internalType": "string",
          "name": "",
          "type": "string"
        }
      ],
      "stateMutability": "view",
      "type": "function"
    },
    {
      "inputs": [],
      "name": "totalSupply",
      "outputs": [
        {
          "internalType": "uint256",
          "name": "",
          "type": "uint256"
        }
      ],
      "stateMutability": "view",
      "type": "function"
    },
    {
      "inputs": [
        {
          "internalType": "address",
          "name": "recipient",
          "type": "address"
        },
        {
          "internalType": "uint256",
          "name": "amount",
          "type": "uint256"
        }
      ],
      "name": "transfer",
      "outputs": [
        {
          "internalType": "bool",
          "name": "",
          "type": "bool"
        }
      ],
      "stateMutability": "nonpayable",
      "type": "function"
    },
    {
      "inputs": [
        {
          "internalType": "address",
          "name": "sender",
          "type": "address"
        },
        {
          "internalType": "address",
          "name": "recipient",
          "type": "address"
        },
        {
          "internalType": "uint256",
          "name": "amount",
          "type": "uint256"
        }
      ],
      "name": "transferFrom",
      "outputs": [
        {
          "internalType": "bool",
          "name": "",
          "type": "bool"
        }
      ],
      "stateMutability": "nonpayable",
      "type": "function"
    }
  ],
  "bytecode": "0x60806040523480156200001157600080fd5b50620000467f8efd665c9dde7d229c54a312bda0941034b773818f5cf193fe55162df905782660001b6200013060201b60201c565b6200007a7ffba12b0d38aa7c886be4f0ef97a8595e0d380ec2d2a338ea3c1fe4af7b7dd77f60001b6200013060201b60201c565b620000ae7fd551f543a92bd9b28bc08ba656100c05ecf5a16e06ad4f6d1fe40a488ab6a12a60001b6200013060201b60201c565b6200012a6040518060400160405280600781526020017f4c696654657374000000000000000000000000000000000000000000000000008152506040518060400160405280600381526020017f4c494600000000000000000000000000000000000000000000000000000000008152506200013360201b60201c565b620005e6565b50565b600060019054906101000a900460ff16806200015a575060008054906101000a900460ff16155b6200019c576040517f08c379a00000000000000000000000000000000000000000000000000000000081526004016200019390620004ff565b60405180910390fd5b60008060019054906101000a900460ff161590508015620001ed576001600060016101000a81548160ff02191690831515021790555060016000806101000a81548160ff0219169083151502179055505b620001fd6200023660201b60201c565b6200020f83836200031560201b60201c565b8015620002315760008060016101000a81548160ff0219169083151502179055505b505050565b600060019054906101000a900460ff16806200025d575060008054906101000a900460ff16155b6200029f576040517f08c379a00000000000000000000000000000000000000000000000000000000081526004016200029690620004ff565b60405180910390fd5b60008060019054906101000a900460ff161590508015620002f0576001600060016101000a81548160ff02191690831515021790555060016000806101000a81548160ff0219169083151502179055505b8015620003125760008060016101000a81548160ff0219169083151502179055505b50565b600060019054906101000a900460ff16806200033c575060008054906101000a900460ff16155b6200037e576040517f08c379a00000000000000000000000000000000000000000000000000000000081526004016200037590620004ff565b60405180910390fd5b60008060019054906101000a900460ff161590508015620003cf576001600060016101000a81548160ff02191690831515021790555060016000806101000a81548160ff0219169083151502179055505b8260369080519060200190620003e792919062000428565b5081603790805190602001906200040092919062000428565b508015620004235760008060016101000a81548160ff0219169083151502179055505b505050565b828054620004369062000532565b90600052602060002090601f0160209004810192826200045a5760008555620004a6565b82601f106200047557805160ff1916838001178555620004a6565b82800160010185558215620004a6579182015b82811115620004a557825182559160200191906001019062000488565b5b509050620004b59190620004b9565b5090565b5b80821115620004d4576000816000905550600101620004ba565b5090565b6000620004e7602e8362000521565b9150620004f48262000597565b604082019050919050565b600060208201905081810360008301526200051a81620004d8565b9050919050565b600082825260208201905092915050565b600060028204905060018216806200054b57607f821691505b6020821081141562000562576200056162000568565b5b50919050565b7f4e487b7100000000000000000000000000000000000000000000000000000000600052602260045260246000fd5b7f496e697469616c697a61626c653a20636f6e747261637420697320616c72656160008201527f647920696e697469616c697a6564000000000000000000000000000000000000602082015250565b6116d180620005f66000396000f3fe608060405234801561001057600080fd5b50600436106100cf5760003560e01c806340c10f191161008c578063a457c2d711610066578063a457c2d714610228578063a9059cbb14610258578063dd62ed3e14610288578063f29890af146102b8576100cf565b806340c10f19146101be57806370a08231146101da57806395d89b411461020a576100cf565b806306fdde03146100d4578063095ea7b3146100f257806318160ddd1461012257806323b872dd14610140578063313ce56714610170578063395093511461018e575b600080fd5b6100dc6102d4565b6040516100e99190611102565b60405180910390f35b61010c60048036038101906101079190610efc565b610366565b60405161011991906110e7565b60405180910390f35b61012a610384565b6040516101379190611224565b60405180910390f35b61015a60048036038101906101559190610ea9565b61038e565b60405161016791906110e7565b60405180910390f35b610178610486565b604051610185919061123f565b60405180910390f35b6101a860048036038101906101a39190610efc565b61048f565b6040516101b591906110e7565b60405180910390f35b6101d860048036038101906101d39190610efc565b61053b565b005b6101f460048036038101906101ef9190610e3c565b6105cd565b6040516102019190611224565b60405180910390f35b610212610616565b60405161021f9190611102565b60405180910390f35b610242600480360381019061023d9190610efc565b6106a8565b60405161024f91906110e7565b60405180910390f35b610272600480360381019061026d9190610efc565b610793565b60405161027f91906110e7565b60405180910390f35b6102a2600480360381019061029d9190610e69565b6107b1565b6040516102af9190611224565b60405180910390f35b6102d260048036038101906102cd9190610f3c565b610838565b005b6060603680546102e39061135e565b80601f016020809104026020016040519081016040528092919081815260200182805461030f9061135e565b801561035c5780601f106103315761010080835404028352916020019161035c565b820191906000526020600020905b81548152906001019060200180831161033f57829003601f168201915b5050505050905090565b600061037a61037361083b565b8484610843565b6001905092915050565b6000603554905090565b600061039b848484610a0e565b6000603460008673ffffffffffffffffffffffffffffffffffffffff1673ffffffffffffffffffffffffffffffffffffffff16815260200190815260200160002060006103e661083b565b73ffffffffffffffffffffffffffffffffffffffff1673ffffffffffffffffffffffffffffffffffffffff16815260200190815260200160002054905082811015610466576040517f08c379a000000000000000000000000000000000000000000000000000000000815260040161045d90611184565b60405180910390fd5b61047a8561047261083b565b858403610843565b60019150509392505050565b60006012905090565b600061053161049c61083b565b8484603460006104aa61083b565b73ffffffffffffffffffffffffffffffffffffffff1673ffffffffffffffffffffffffffffffffffffffff16815260200190815260200160002060008873ffffffffffffffffffffffffffffffffffffffff1673ffffffffffffffffffffffffffffffffffffffff1681526020019081526020016000205461052c9190611276565b610843565b6001905092915050565b6105677ff7741b4b6b3eaf4a34b99953593e6c738e747b4ebbfe92aec9e4a7abb8496f3460001b610838565b6105937f0323a876a0720638f3d80482ad7d511e9fbc9db0c1bb4baf615f9a398d09733960001b610838565b6105bf7f97222babaf0bc3a2ca0779894ade73ec6eb6453095053463b00713a4a1b1af7160001b610838565b6105c98282610c92565b5050565b6000603360008373ffffffffffffffffffffffffffffffffffffffff1673ffffffffffffffffffffffffffffffffffffffff168152602001908152602001600020549050919050565b6060603780546106259061135e565b80601f01602080910402602001604051908101604052809291908181526020018280546106519061135e565b801561069e5780601f106106735761010080835404028352916020019161069e565b820191906000526020600020905b81548152906001019060200180831161068157829003601f168201915b5050505050905090565b600080603460006106b761083b565b73ffffffffffffffffffffffffffffffffffffffff1673ffffffffffffffffffffffffffffffffffffffff16815260200190815260200160002060008573ffffffffffffffffffffffffffffffffffffffff1673ffffffffffffffffffffffffffffffffffffffff16815260200190815260200160002054905082811015610774576040517f08c379a000000000000000000000000000000000000000000000000000000000815260040161076b906111e4565b60405180910390fd5b61078861077f61083b565b85858403610843565b600191505092915050565b60006107a76107a061083b565b8484610a0e565b6001905092915050565b6000603460008473ffffffffffffffffffffffffffffffffffffffff1673ffffffffffffffffffffffffffffffffffffffff16815260200190815260200160002060008373ffffffffffffffffffffffffffffffffffffffff1673ffffffffffffffffffffffffffffffffffffffff16815260200190815260200160002054905092915050565b50565b600033905090565b600073ffffffffffffffffffffffffffffffffffffffff168373ffffffffffffffffffffffffffffffffffffffff1614156108b3576040517f08c379a00000000000000000000000000000000000000000000000000000000081526004016108aa906111c4565b60405180910390fd5b600073ffffffffffffffffffffffffffffffffffffffff168273ffffffffffffffffffffffffffffffffffffffff161415610923576040517f08c379a000000000000000000000000000000000000000000000000000000000815260040161091a90611144565b60405180910390fd5b80603460008573ffffffffffffffffffffffffffffffffffffffff1673ffffffffffffffffffffffffffffffffffffffff16815260200190815260200160002060008473ffffffffffffffffffffffffffffffffffffffff1673ffffffffffffffffffffffffffffffffffffffff168152602001908152602001600020819055508173ffffffffffffffffffffffffffffffffffffffff168373ffffffffffffffffffffffffffffffffffffffff167f8c5be1e5ebec7d5bd14f71427d1e84f3dd0314c0f7b2291e5b200ac8c7c3b92583604051610a019190611224565b60405180910390a3505050565b600073ffffffffffffffffffffffffffffffffffffffff168373ffffffffffffffffffffffffffffffffffffffff161415610a7e576040517f08c379a0000000000000000000000000000000000000000000000000000000008152600401610a75906111a4565b60405180910390fd5b600073ffffffffffffffffffffffffffffffffffffffff168273ffffffffffffffffffffffffffffffffffffffff161415610aee576040517f08c379a0000000000000000000000000000000000000000000000000000000008152600401610ae590611124565b60405180910390fd5b610af9838383610df3565b6000603360008573ffffffffffffffffffffffffffffffffffffffff1673ffffffffffffffffffffffffffffffffffffffff16815260200190815260200160002054905081811015610b80576040517f08c379a0000000000000000000000000000000000000000000000000000000008152600401610b7790611164565b60405180910390fd5b818103603360008673ffffffffffffffffffffffffffffffffffffffff1673ffffffffffffffffffffffffffffffffffffffff1681526020019081526020016000208190555081603360008573ffffffffffffffffffffffffffffffffffffffff1673ffffffffffffffffffffffffffffffffffffffff1681526020019081526020016000206000828254610c159190611276565b925050819055508273ffffffffffffffffffffffffffffffffffffffff168473ffffffffffffffffffffffffffffffffffffffff167fddf252ad1be2c89b69c2b068fc378daa952ba7f163c4a11628f55a4df523b3ef84604051610c799190611224565b60405180910390a3610c8c848484610df8565b50505050565b600073ffffffffffffffffffffffffffffffffffffffff168273ffffffffffffffffffffffffffffffffffffffff161415610d02576040517f08c379a0000000000000000000000000000000000000000000000000000000008152600401610cf990611204565b60405180910390fd5b610d0e60008383610df3565b8060356000828254610d209190611276565b9250508190555080603360008473ffffffffffffffffffffffffffffffffffffffff1673ffffffffffffffffffffffffffffffffffffffff1681526020019081526020016000206000828254610d769190611276565b925050819055508173ffffffffffffffffffffffffffffffffffffffff16600073ffffffffffffffffffffffffffffffffffffffff167fddf252ad1be2c89b69c2b068fc378daa952ba7f163c4a11628f55a4df523b3ef83604051610ddb9190611224565b60405180910390a3610def60008383610df8565b5050565b505050565b505050565b600081359050610e0c81611656565b92915050565b600081359050610e218161166d565b92915050565b600081359050610e3681611684565b92915050565b600060208284031215610e5257610e516113ee565b5b6000610e6084828501610dfd565b91505092915050565b60008060408385031215610e8057610e7f6113ee565b5b6000610e8e85828601610dfd565b9250506020610e9f85828601610dfd565b9150509250929050565b600080600060608486031215610ec257610ec16113ee565b5b6000610ed086828701610dfd565b9350506020610ee186828701610dfd565b9250506040610ef286828701610e27565b9150509250925092565b60008060408385031215610f1357610f126113ee565b5b6000610f2185828601610dfd565b9250506020610f3285828601610e27565b9150509250929050565b600060208284031215610f5257610f516113ee565b5b6000610f6084828501610e12565b91505092915050565b610f72816112de565b82525050565b6000610f838261125a565b610f8d8185611265565b9350610f9d81856020860161132b565b610fa6816113f3565b840191505092915050565b6000610fbe602383611265565b9150610fc982611404565b604082019050919050565b6000610fe1602283611265565b9150610fec82611453565b604082019050919050565b6000611004602683611265565b915061100f826114a2565b604082019050919050565b6000611027602883611265565b9150611032826114f1565b604082019050919050565b600061104a602583611265565b915061105582611540565b604082019050919050565b600061106d602483611265565b91506110788261158f565b604082019050919050565b6000611090602583611265565b915061109b826115de565b604082019050919050565b60006110b3601f83611265565b91506110be8261162d565b602082019050919050565b6110d281611314565b82525050565b6110e18161131e565b82525050565b60006020820190506110fc6000830184610f69565b92915050565b6000602082019050818103600083015261111c8184610f78565b905092915050565b6000602082019050818103600083015261113d81610fb1565b9050919050565b6000602082019050818103600083015261115d81610fd4565b9050919050565b6000602082019050818103600083015261117d81610ff7565b9050919050565b6000602082019050818103600083015261119d8161101a565b9050919050565b600060208201905081810360008301526111bd8161103d565b9050919050565b600060208201905081810360008301526111dd81611060565b9050919050565b600060208201905081810360008301526111fd81611083565b9050919050565b6000602082019050818103600083015261121d816110a6565b9050919050565b600060208201905061123960008301846110c9565b92915050565b600060208201905061125460008301846110d8565b92915050565b600081519050919050565b600082825260208201905092915050565b600061128182611314565b915061128c83611314565b9250827fffffffffffffffffffffffffffffffffffffffffffffffffffffffffffffffff038211156112c1576112c0611390565b5b828201905092915050565b60006112d7826112f4565b9050919050565b60008115159050919050565b6000819050919050565b600073ffffffffffffffffffffffffffffffffffffffff82169050919050565b6000819050919050565b600060ff82169050919050565b60005b8381101561134957808201518184015260208101905061132e565b83811115611358576000848401525b50505050565b6000600282049050600182168061137657607f821691505b6020821081141561138a576113896113bf565b5b50919050565b7f4e487b7100000000000000000000000000000000000000000000000000000000600052601160045260246000fd5b7f4e487b7100000000000000000000000000000000000000000000000000000000600052602260045260246000fd5b600080fd5b6000601f19601f8301169050919050565b7f45524332303a207472616e7366657220746f20746865207a65726f206164647260008201527f6573730000000000000000000000000000000000000000000000000000000000602082015250565b7f45524332303a20617070726f766520746f20746865207a65726f20616464726560008201527f7373000000000000000000000000000000000000000000000000000000000000602082015250565b7f45524332303a207472616e7366657220616d6f756e742065786365656473206260008201527f616c616e63650000000000000000000000000000000000000000000000000000602082015250565b7f45524332303a207472616e7366657220616d6f756e742065786365656473206160008201527f6c6c6f77616e6365000000000000000000000000000000000000000000000000602082015250565b7f45524332303a207472616e736665722066726f6d20746865207a65726f20616460008201527f6472657373000000000000000000000000000000000000000000000000000000602082015250565b7f45524332303a20617070726f76652066726f6d20746865207a65726f2061646460008201527f7265737300000000000000000000000000000000000000000000000000000000602082015250565b7f45524332303a2064656372656173656420616c6c6f77616e63652062656c6f7760008201527f207a65726f000000000000000000000000000000000000000000000000000000602082015250565b7f45524332303a206d696e7420746f20746865207a65726f206164647265737300600082015250565b61165f816112cc565b811461166a57600080fd5b50565b611676816112ea565b811461168157600080fd5b50565b61168d81611314565b811461169857600080fd5b5056fea264697066735822122079357704183d4966b853954f04fc5d4087f32bb656230cc68b2d5532c2c817f464736f6c63430008070033",
  "linkReferences": {},
  "deployedLinkReferences": {}
}